:020000040800F2
:10C80000A0470020FDC90008ED0E0108E50501085C
:10C81000E90E010867E90008693601080000000018
:10C82000000000000000000000000000352D01089D
:10C83000B1F00008000000007FCA00084D31010877
:10C8400017CA000817CA000817CA000817CA000844
:10C8500017CA000817CA000817CA000817CA000834
:10C8600017CA000817CA000817CA000817CA000824
:10C8700017CA000817CA000817CA000817CA000814
:10C8800017CA000817CA000817CA000817CA000804
:10C8900017CA000817CA000817CA0008F1F10008F3
:10C8A00017CA000817CA000817CA000817CA0008E4
:10C8B00017CA0008A132010817CA000817CA0008E1
:10C8C00017CA000817CA000817CA000817CA0008C4
:10C8D00017CA000817CA000817CA000817CA0008B4
:10C8E00017CA000817CA000817CA000817CA0008A4
:10C8F00017CA000817CA000817CA000817CA000894
:10C9000017CA000817CA000817CA000817CA000883
:10C9100017CA000817CA000817CA000817CA000873
:10C9200017CA000817CA000817CA000817CA000863
:10C9300000F002F800F053F80AA090E8000C8244DE
:10C940008344AAF10107DA4501D100F048F8AFF2BB
:10C95000090EBAE80F0013F0010F18BFFB1A43F0DD
:10C96000010318473CE900005CE90000103A24BFCD
:10C9700078C878C1FAD8520724BF30C830C144BF44
:10C9800004680C6070470000002300240025002686
:10C99000103A28BF78C1FBD8520728BF30C148BF22
:10C9A0000B607047662909F0F887642900F0D88089
:10C9B000752900F0D580002070471FB500F07CFE7F
:10C9C00004000020002109F0E1F9401C6060002013
:10C9D000002109F0C5F9E0601FBD10B510BD01F0E0
:10C9E0002BF91146FFF7E9FF09F0A8F901F052F918
:10C9F00003B4FFF7F2FF03BC01F092F90948804746
:10CA000009480047FEE7FEE7FEE7FEE7FEE7FEE730
:10CA1000FEE7FEE7FEE7FEE704480549054A064B48
:10CA2000704700004132010831C90008A0410020D0
:10CA3000A0470020A0430020A0430020EFF3108077
:10CA400072B6704780F3108870471D484FF0FF01A1
:10CA50000170002080F309881A48012101701A48EA
:10CA60004FF08051016062B6FEE717484FF08051E9
:10CA70000160704714484FF080510160704772B6F2
:10CA8000EFF3098028B1203880E8F00F0F490968DA
:10CA9000086000B50E4880475DF804EB0D480E496C
:10CAA0000A78027009480D490A680260106890E827
:10CAB000F00F203080F309884EF0040E62B6704704
:10CAC00022ED00E06A00002004ED00E0700000208C
:10CAD000E51C01085F0000206000002078000020B5
:10CAE0000FB41CB5084B06AA7B4469460090059814
:10CAF00000F085FD04460020694600F093FD2046C5
:10CB00001CBC5DF814FB0000390B000070B5044636
:10CB100085690068C10601D5302600E02026C007DF
:10CB200008D070BDD4E9012130469047206A00F159
:10CB3000010020626D1EF5D570BD70B50446856993
:10CB40000078C00708D170BDD4E9012120209047AA
:10CB5000206A00F1010020626D1EF5D570BD000055
:10CB60002DE9F0410646002410687529314616A5C6
:10CB700011D0AFF30080002803DAC0F1000013A544
:10CB800007E031688A0701D511A502E0490704D5FD
:10CB900010A5012401E0AFF3008000210A2306F173
:10CBA000240707E0B0FBF3F203FB120030307854A7
:10CBB0001046491C0028F5D123462A463046BDE8D8
:10CBC000F04100F0ABBA0000000000002D000000B2
:10CBD0002B000000200000002DE9F05F894604468C
:10CBE0004FF0000ADFF828B1FB44C0F820A020462F
:10CBF000E168884700287CD0252806D0D4E90121A7
:10CC00009047206A401C2062F1E700255F462046DD
:10CC1000E16888472028064608DB312E06D207EB5C
:10CC2000060010F8200C08B10543F0E7A80701D56D
:10CC300025F00405C4F81CA00027C4F818A02A2E6B
:10CC400009D0304606F044FE38B304EB8708303E86
:10CC5000C8F8186019E059F8041B204604EB870255
:10CC60009161E1688847012F064618D1E0690028E4
:10CC700020DA25F020051DE0D8F8180000EB800030
:10CC800006EB40003038C8F818002046E1688847B5
:10CC9000064606F01DFE0028EED1012F0AD02E2EEA
:10CCA00008D12046E16888477F1C0646022F45F0E0
:10CCB0002005C4DBA069002803DA404245F00105E5
:10CCC000A061E80701D025F0100596B1A6F141005A
:10CCD000192802D8203645F400654A4631462046D8
:10CCE00025604D46FFF75EFE60B1012807D0ED1DBF
:10CCF00000E009E025F0070000F1080977E705F1F9
:10CD0000040974E7304679E7206ABDE8F09F000027
:10CD10000FE600000FB400B58DB010A90990009186
:10CD20000B904FF0FF300A9000200C90064878449A
:10CD30000690064878446A4607900F9909A800F0C3
:10CD40008BFC0DB05DF814FB470900005F09000083
:10CD50002DE9FF5F1D464FF0FF3B91464FF0000865
:10CD60005F46D5E90146A96901987F1C8847296A71
:10CD7000824688470028F6D11AF101000CD0002E17
:10CD800024F4C06419DD600614D5BAF12B0F09D064
:10CD9000BAF12D0F0ED103E0584604B0BDE8F09F64
:10CDA00044F48064A96901987F1C8847761E8246F6
:10CDB000002E02DDBAF1300F03D0B9F1000F26D0FA
:10CDC00032E0A969761E01987F1C44F400748847FC
:10CDD000002E824605DDBAF1780F06D0BAF1580F61
:10CDE00003D0B9F1000F10D01EE0B9F1000F02D04E
:10CDF000B9F1100F18D1A969761E01987F1C24F48F
:10CE0000007488478246102002E0082000E00A20D3
:10CE1000814609E0A96908FB0908761E01987F1C74
:10CE200044F4007488478246002E05DD494650468A
:10CE300000F0FDFB0028EDDAE96901988847A005BC
:10CE400002D46FF00100A8E7E00727D1600614D5EF
:10CE5000600502D5C8F1000000E04046296801F1F4
:10CE600004022A600968220501D5087016E022072D
:10CE700001D5088012E0086010E0286800F1040184
:10CE800029600068210502D580F8008006E02107AE
:10CE900002D5A0F8008001E0C0F8008038467CE7A9
:10CEA00040EA010310B59B070FD1042A0DD310C827
:10CEB00008C9121F9C42F8D020BA19BA884201D979
:10CEC000012010BD4FF0FF3010BD1AB1D30703D0C1
:10CED000521C07E0002010BD10F8013B11F8014B77
:10CEE0001B1B07D110F8013B11F8014B1B1B01D193
:10CEF000921EF1D1184610BD40EA0103024630B53A
:10CF00009B0710D14FF0013400E008C208C91D1B77
:10CF10009D4315EAC41FF8D013F0FF0102F8011B6E
:10CF20000DD01B0AF8E711F8013B002B02F8013B7A
:10CF300005D011F8013B002B02F8013BF3D130BDC5
:10CF4000032A40F2308010F0030C00F0158011F835
:10CF5000013BBCF1020F624498BF11F801CB00F80D
:10CF6000013B38BF11F8013BA2F1040298BF00F861
:10CF700001CB38BF00F8013B11F0030300F025801E
:10CF8000083AC0F0088051F8043B083A51F804CB45
:10CF9000A0E80810F5E7121D5CBF51F8043B40F80B
:10CFA000043BAFF30080D20724BF11F8013B11F816
:10CFB00001CB48BF11F8012B24BF00F8013B00F85A
:10CFC00001CB48BF00F8012B704710B5203AC0F0E4
:10CFD0000B80B1E81850203AA0E81850B1E818507A
:10CFE000A0E81850BFF4F5AF5FEA027C24BFB1E8B7
:10CFF0001850A0E8185044BF18C918C0BDE8104028
:10D000005FEA827C24BF51F8043B40F8043B08BF30
:10D010007047D20728BF31F8023B48BF11F8012BF7
:10D0200028BF20F8023B48BF00F8012B70474FF0A3
:10D0300000020429C0F0128010F0030C00F01B80E5
:10D04000CCF1040CBCF1020F18BF00F8012BA8BFF3
:10D0500020F8022BA1EB0C0100F00DB85FEAC17CB7
:10D0600024BF00F8012B00F8012B48BF00F8012B6A
:10D0700070474FF0000200B513469446964620399B
:10D0800022BFA0E80C50A0E80C50B1F12001BFF481
:10D09000F7AF090728BFA0E80C5048BF0CC05DF8E7
:10D0A00004EB890028BF40F8042B08BF704748BF35
:10D0B00020F8022B11F0804F18BF00F8012B7047A9
:10D0C00010B5044610F0030F08BF11F0030F40F035
:10D0D00015804FF0013E121FC0F20E8051F8043B44
:10D0E000A3EB0E0C2CEA030C1CEACE1C08BF40F884
:10D0F000043BF0D0A1F1040102F10402521E08DB4E
:10D1000011F8013B002B00F8013BF7D11146FFF766
:10D110008EFF204610BD7047704770472DE9F047DD
:10D120000D4699469246044600F124080168880697
:10D1300004D5E06921F01001216000E00120A8423F
:10D1400002DDA0EB050700E00027A16907EB05025F
:10D1500002EB0900A1EB0000A0612078C00602D418
:10D160002046FFF7D3FC002608E0D4E901211AF895
:10D1700006009047206A401C761C20624E45F4DB76
:10D180002078C0060AD52046FFF7C0FC06E0D4E9A7
:10D19000012130209047206A401C2062381EA7F1F0
:10D1A0000107F4DC07E0D4E9012118F805009047F5
:10D1B000206A401C2062281EA5F10105F3DC2046F0
:10D1C000FFF7BBFC2078000602D50220BDE8F087FF
:10D1D0000120FBE770472DE9FF4F0C461E464FF03C
:10D1E000FF378BB0D2E90001DDF860800A908A46F3
:10D1F000C1F30A5505B93D46002108464FF000002D
:10D20000BAF1000F00F4400005DA00EB80004FF4A3
:10D21000400101EA50004FEA9059B9F1010F00DDD9
:10D22000B9460A9850EA4A000ED044F61050A5F2CA
:10D23000FF3545432F14B8F1000F1ED07542291E4B
:10D240001EDDC9F100021CE0B8F1010F4FF0000033
:10D2500001D0302103E0F24305E02154401CB042EC
:10D26000FBDB30460022002121540B99C1F80880D5
:10D27000C1E900200FB0BDE8F08FBD1B6D1CDEE7DB
:10D280004A4600DA694206A800F060FC06AB07CB0C
:10D2900003AB07C350460A9900F049FD8DE807002B
:10D2A000A0F500501F3800900398002D09DD42F2D0
:10D2B0001F014A46084403A90390684600F0A8FFEE
:10D2C00008E0A0F500504A461F3803A903906846BD
:10D2D00000F0B2FF8DE807000004000C03D04FF00F
:10D2E000FF30410800E01046B8F1000F03D00022E3
:10D2F000009215461FE0751E06D400F0E1F902F118
:10D30000300262556D1EF8D5B3460122084302D0A3
:10D3100000227F1C04E02078302801D100227F1EEB
:10D32000002A099787D01DE0112D07DA00F0C8F90F
:10D33000303262556D1C50EA0102F5D108430FD11D
:10D340000021681E05E0235C625C6354491C225482
:10D35000401E8142F7DBAB46A81B401E099001E04E
:10D36000009848B1002004F80B000B98099AC0F807
:10D370000880C0E9002B7DE711264FF000085AE72E
:10D380002DE9F04F88460446D21D22F0070191B0E6
:10D39000D1E90001CDE90A0106F086FA02460B98B0
:10D3A000C00F01D02D2007E02068810701D52B2078
:10D3B00002E0202101EAC000032A099001D0072AD7
:10D3C00005DB03464146204600F0C8F90FE120780E
:10D3D000800601D5E06900E00620B8F1650F8146BE
:10D3E00006D0B8F1660F18D0B8F1670F72D132E0ED
:10D3F0000020B9F1110F009001DB112301E009F1C8
:10D4000001030AAA01A90CA8FFF7E5FEDDE90C70EB
:10D41000002609F10105834648E001204B460090B3
:10D420004FF000470AAA01A90CA8FFF7D4FEDDE9D6
:10D430000DB00C995D46002618B909F1010001EB09
:10D440000005B9EB050003D4C0F1FF3609F1010571
:10D45000A5EB09002BE0B9F1010F01DA4FF001094A
:10D460000020B9F1110F0090484601DD112300E0C2
:10D4700003460AAA01A90CA8FFF7ADFEDDE90C706E
:10D480004D4600268346207800070AD4AB4500DAD3
:10D490005D4601A8012D04DD411911F8011C302958
:10D4A00007D04F4502DA17F1040F04DA0120824653
:10D4B00010E06D1EEEE7002F02DCED1B3E4403E0A2
:10D4C000781CA84200DD0546A7EB060000F1010A22
:10D4D0004FF000472078000703D4AA4501DB4FF046
:10D4E000FF3A0021B7F1004F0DF143088DF84310CA
:10D4F00023D002202B23002F01DA7F422D234FF06F
:10D500000A0C011EA0F1010000DC4FB197FBFCF1F9
:10D510000CFB11720F4602F1300208F8012DF0E702
:10D52000A8F1010003702188090501D5452100E01B
:10D530006521A0F1010800F8011C09980FA9A1EBD1
:10D54000080707F1070700B1012000EB050101EB17
:10D55000EA70A1693844A1EB0000A0F10100A061CC
:10D560002078C00602D42046FFF7D0FA099830B1DF
:10D57000D4E901219047206A00F10100206220785F
:10D58000C00620D52046FFF7C1FA1CE0002E04DBC0
:10D59000B34502DD01A8805D00E03020D4E901211F
:10D5A0009047206A761C401CBAF1010A20620AD119
:10D5B00000F082F8C0680168405CD4E9012190471E
:10D5C000206A401C2062281EA5F10105DEDC07E070
:10D5D000D4E9012118F8010B9047206A401C206211
:10D5E000381EA7F10107F3DC2046FFF7A6FA022058
:10D5F00011B040E601694A1C02610878704700B525
:10D600008FB0CDE901310021059105497944CDE97B
:10D61000031011466846FFF7DFFA0FB000BD0000A7
:10D62000E5FFFFFF0A6802F8010B0A6070473A281D
:10D6300000D2303820F02002412A01D3A2F1370075
:10D64000884201D34FF0FF30704700000268114458
:10D650001378016018467047D160054979445161DB
:10D6600004497944116200211161114600F0B6B8F5
:10D67000EDFFFFFFE5000000426842B1016811F8CC
:10D68000013B23B1521EC0E9001218467047012128
:10D69000C160881E704742685AB1C368016843B9C7
:10D6A00083688B4205D0491E521CC0E9001200203D
:10D6B00070474FF0FF3070470048704760410020CE
:10D6C00030B5B0F10A024FEA900E71F100034EEA54
:10D6D000817EB0EB0E0061EB91014FEA101E4EEA25
:10D6E000017E10EB0E0041EB11114FEA102E4EEAB5
:10D6F000016E10EB0E0041EB11214FEA104E4EEA85
:10D70000014E10EB0E0041EB1141401841F10001B8
:10D710004FEAD00040EA41704FEAD10110EB80059A
:10D720004FEA810444EA907444EB01046D1944EB20
:10D730000404521BA3414FF0000348BF0A3200D536
:10D7400030BD401C41F1000130BD10B5044600F071
:10D7500099FA0068005D00F0010010BD2DE9F0416C
:10D760001F46044603260168072A01F4006004DB13
:10D7700008B116A505E016A503E008B115A500E05F
:10D7800015A521F010002060A069C01EA0610FB196
:10D79000401EA0612046FFF7B9F94FB1D4E901213D
:10D7A00038469047206A401C2062C01C206206E078
:10D7B000206AFAE7D4E9012115F8010B9047761E9B
:10D7C000F8D22046FFF7B9F9BDE8F0814E414E008E
:10D7D0006E616E00494E4600696E66002DE9F34F9A
:10D7E0004FF0000A0C4656468DB001200C9001F116
:10D7F0000C000B9062690B980121904705002DD019
:10D80000252D2CD0216A8847C0B162690B9801216F
:10D810009047216A88470028F7D16269411E0B981A
:10D82000904700E0761CA1690D988847216A8847D7
:10D830000028F7D1E1690D988847DBE7A1690D98C9
:10D840008847A842074601D1761CD3E7E1690D98C5
:10D8500088477F1C02D1BAF1000F6FD06AE162697C
:10D860000B9800273D46394690472A2804D1626923
:10D870000B98012190470125DFF8CC8262690B9853
:10D8800001219047A0F130010A290AD24745E5DC81
:10D8900007EB870100EB4107303FDFD445F010056F
:10D8A000ECE7E90601D46FF000476C280AD04C2859
:10D8B00014D0682815D06A280DD074281CD07A2876
:10D8C0001AD01DE062690B98012190476C2802D0A4
:10D8D00045F0040514E045F002050DE045F0200593
:10D8E0000AE062690B9801219047682802D045F050
:10D8F000080505E045F4006562690B980121904731
:10D90000C4E9015765283DD019DC582879D00CDCD2
:10D91000452837D004DC252826D041289ED131E087
:10D9200046282FD0472899D12CE05B287FD061284A
:10D9300028D063287BD0642890D159E0F5E06F2887
:10D9400047D008DC66281DD067281BD0692821D065
:10D950006E2816D127E0702844D0732867D0752828
:10D9600046D078280DD14CE0A1690D98884725282C
:10D9700005463FF469AFE1690D9888476D1C3FF497
:10D980006AAFD7E00D9923466A466FF00100AFF306
:10D990000080C4E045F0400023464FF00002606084
:10D9A000A80735D43DE0206800F10401216000683B
:10D9B000290501D506701DE7290701D5068019E75D
:10D9C000A90704D54FEAE671C0E9006112E70660D5
:10D9D00010E745F0400023464FF008026060A807BA
:10D9E00016D41EE040F60E0125EA0100606016E044
:10D9F00045F0400023464FF00A026060A80707D4B4
:10DA00000FE045F040006060A80708D523461022CB
:10DA10000D996FF00100AFF3008080E007E0102265
:10DA200023460D996FF00100FFF792F977E04FF070
:10DA3000000963284F46C8464B46CB4602D05B28B8
:10DA400006D038E0E80601D40120A060012732E0CA
:10DA50006269D4F80CB00B98012190475E2807D179
:10DA60004FF0010949466269D4F80CB00B98904711
:10DA7000216939B900210B4603AA42F82130491C1B
:10DA80000829FADBD8B3216949B308F101086269B2
:10DA90000B98012190475D28F4D1B9F1000F09D00E
:10DAA000002003A951F82020D24341F82020401C37
:10DAB0000828F7DB03AB2069002820794FEA407083
:10DAC0001ED05B462246CDF80080CDE901970D9926
:10DAD00000286FF0010020DAAFF300801FE0C117CB
:10DAE00000EBD16203A9531122F01F0201EB830165
:10DAF000821A0B680120904003430B60C7E719E0CE
:10DB00000D99224600286FF00100009702DAAFF36A
:10DB1000008004E0AFF3008001E0AFF30080002854
:10DB20000ADA401C06D10C9820B14FF0FF300FB03C
:10DB3000BDE8F08F5046FAE7E90701D10AF1010A82
:10DB4000064400200C9055E6CCCCCC0C2DE9F047D7
:10DB5000814616468AB035487844D0E9002380686B
:10DB60000092CDE90130314878440C38D0E90223E5
:10DB7000006903924FF03702CDE9043041F69B3043
:10DB8000014491FBF2F0A0F1800502FB10141B3C54
:10DB900002D56442012000E00020DFF890A080461A
:10DBA0000027FA44AAF1C60A0DE0E00709D0324680
:10DBB000684607EB47010AEB810100F03DFB8DE869
:10DBC000070064107F1C002CEFD1184F7F44B43F36
:10DBD00017E0E80713D007EB04100DF1180A90E8DE
:10DBE0000E00AAE80E00C068F04201D19819089012
:10DBF000324606A903A800F01FFB03AB07C36D1054
:10DC0000641C002DE5D132466946B8F1000F03A827
:10DC100002D000F0FDFA01E000F00EFBC9E90001BE
:10DC2000C9F808200AB0BDE8F08700002CD7000032
:10DC300000487047404100207546FFF7F9FFAE46A7
:10DC400005006946534620F00700854618B020B508
:10DC5000FEF7E2FEBDE820404FF000064FF000075F
:10DC60004FF000084FF0000B21F00701AC46ACE884
:10DC7000C009ACE8C009ACE8C009ACE8C0098D46F1
:10DC80007047000010B5FFF717FD001D10BD00BF65
:10DC9000FD8000000446AFF300802046FEF7A8FE9A
:10DCA0004FF0013C50F8042B51F8043B9A4221D12B
:10DCB000A2EB0C03934313EACC1317D150F8042BB7
:10DCC00051F8043B9A4215D1A2EB0C03934313EA9B
:10DCD000CC130BD150F8042B51F8043B9A4209D1D4
:10DCE000A2EB0C03934313EACC13DBD04FF00000FC
:10DCF000704700BFD01A01BAB1FA81F101F01801E2
:10DD000022FA01F0CB40C1F12001DBB2C0B2C01A4F
:10DD10002CFA01F3D11A914311EAC311E6D17047ED
:10DD200001491820ABBEFEE72600020070475FEAFB
:10DD3000400C08BF91F0000F4FEA8C234FEAC1223C
:10DD400043EA51514FEA1C5018BF00F5F0404FEA2A
:10DD5000300018BF41F000415FEA6C5C00F02980A0
:10DD6000BCF1FF3F08BF40F080407047130C06BF76
:10DD700012044FF0100C4FF0000C130E04BF1202EF
:10DD80000CF1080C130F04BF12010CF1040C930FDB
:10DD900004BF92000CF1020CD30F04BF52000CF12F
:10DDA000010C11464FF00002A0F11F00A0EB0C0087
:10DDB000704711F0004F08BF704731F000413FF449
:10DDC000D5AF0B0C06BF09044FF0100C4FF0000C40
:10DDD0000B0E04BF09020CF1080C0B0F04BF090164
:10DDE0000CF1040C8B0F04BF89000CF1020CCB0F5B
:10DDF00004BF49000CF1010CCCF12003A0EB0C0096
:10DE000022FA03F302FA0CF241EA030100F10100E5
:10DE1000704720F07F4C80EA030023F07F47ACEB93
:10DE2000070303F57C5300F0004003F1FF032DE9E5
:10DE300080494FEA154B09B44FEA144325EA0B4ECB
:10DE400024EA03480FF2042606EB132749083E781C
:10DE50005FEA320203FB0667C7F5000707FB06F619
:10DE60004FEA54374FEAD64606F1020607FB066C26
:10DE7000CCF1005C4FEA1C472CEA074C07FB06F488
:10DE80000CFB06F504EB15464FEA961634BF00204E
:10DE90004FF000404FEAD13706FB07FC4FEA1C4C1D
:10DEA0000CFB0BF7D21B03FB0CF761EB07010CFB20
:10DEB0000EF7B0EB074072EB17420CFB08F734BFCC
:10DEC000A2EB0742B2EB074261EB17414FEA0C4469
:10DED0004FEA910706FB07FC4FEA1C4C0CFB0BF7C3
:10DEE000B0EBC74072EB573203FB0CF734BFA2EB29
:10DEF000C742B2EBC74261EB57310CFB0EF7B0EBF8
:10DF0000C70072EB57720CFB08F734BFA2EBC702D5
:10DF1000B2EBC70261EB5771039F4FEA816141EA9F
:10DF2000921104EBCC044FEAD1374FEA826206FB30
:10DF300007FC42EA90124FEA80604FEA1C4C0CFB4F
:10DF40000BF7D21B03FB0CF761EB07010CFB0EF781
:10DF5000B0EB074072EB17420CFB08F734BFA2EBA3
:10DF60000742B2EB074261EB17414FEA8C554FEA8B
:10DF7000910704EB9C2406FB07FC4FEA1C4C0CFBAE
:10DF80000BF7B0EBC74072EB573203FB0CF734BF13
:10DF9000A2EBC742B2EBC74261EB57310CFB0EF765
:10DFA000B0EBC70072EB57720CFB08F734BFA2EB63
:10DFB000C702B2EBC70261EB577115EB4C254FEA74
:10DFC000816141EA92114FEA82624FEAD13742EA17
:10DFD000901206FB07FC44F100044FEA80604FEA10
:10DFE0001C4C0CFB0BF7D21B03FB0CF761EB07017E
:10DFF0000CFB0EF7B0EB074072EB17420CFB08F777
:10E0000034BFA2EB0742B2EB074261EB174115EBBD
:10E010001C154FEA813141EA92414FEA823242EACD
:10E0200090424FEA80304FEA0C7644F1000448EA0F
:10E0300003434EEA0B484FF0000EB2EB080C71EBB5
:10E04000030724BF624639464EEB0E0E4FF0000B1D
:10E050000018524149414BEB0B0BB2EB080C71EB32
:10E0600003077BF1000B24BF624639464EEB0E0ED0
:10E070004FF0000B0018524149414BEB0B0BB2EB38
:10E08000080C71EB03077BF1000B24BF6246394695
:10E090004EEB0E0E51EA020718BF46F0010616EBD2
:10E0A0000E7655F1000254F1000103D5BDE8890157
:10E0B000BDE80088BDE88901BDE80048B6195241B5
:10E0C00041EB0101A3F10103704780807F7E7D7CDD
:10E0D0007B7A7978777676757473727171706F6EFA
:10E0E0006E6D6C6C6B6A6A696868676666656464A5
:10E0F000636362616160605F5F5E5E5D5D5C5C5B2F
:10E100005B5A5A595958585757565655555554549D
:10E11000535352525251515050504F4F4F4E4E4DFB
:10E120004D4D4C4C4C4B4B4B4A4A4A494949484847
:10E130004847474747464646454545444444444387
:10E1400043434342424242414141002B26D477009F
:10E1500021D01CB54FEA370703B44FF010004FF041
:10E1600010014FF000000FBCBDE810400BF1010B97
:10E17000BBF1010F08BF5FEA170722BF12F10102CE
:10E1800011F101014FF0004143F1000300F00040A4
:10E1900043EA00007047F9D35708DAE746EA064633
:10E1A00013F1400F4FEA16461FDD13F1200FDFBFBA
:10E1B00016430A46002120335B42C8D0C3F1200732
:10E1C00046EA064602FA07F74FEA164646EA070607
:10E1D000C3F1200722FA03F201FA07F721FA03F14B
:10E1E0004FF0000342EA0702B1E746EA020646EAB8
:10E1F00006464FEA164646EA0106BCBF46EA064610
:10E20000360C4FF000034FF000024FF000019EE784
:10E210002DE9C048934630B491E8380007C831EA88
:10E22000400C48BF34EA430C03D5FFF7F2FDFFF77B
:10E230008CFFF0BCBDE800882DE9C048934630B49F
:10E2400091E8380007C810F0804F08BF13F0804FE6
:10E2500003D100F005F8FFF778FFF0BCBDE80088B7
:10E2600020F07F4780EA030023F07F4C07EB0C038C
:10E27000A3F57C5300F00040A3F1FE0392F0000FE1
:10E2800000F0B38095F0000F00F077802DE9014990
:10E290004FEA11404FEA144621EA004800FB06FC11
:10E2A00024EA064708FB06F607FB08F800FB07F719
:10E2B00018EB06484CEB164C4FEA124B18EB07488C
:10E2C0004FEA15464CEB174022EA0B4E0BFB06FCBF
:10E2D00025EA06470EFB06F607FB0EFE0BFB07F7CB
:10E2E0001EEB064E4CEB164C4FF000061EEB074E95
:10E2F0004CEB174B18EB0B0840F1000018EB0E0B22
:10E3000058EB000840F100008F1A4FF000013CBFAD
:10E31000C943661B14BFB5EB040C00213CBFC943C5
:10E32000F61B4FEA17444EEA8E0E27EA04454FEAE1
:10E330001C4704FB07622CEA074C05FB07F70CFBA4
:10E3400005F604FB0CFC16EB074642EB174216EBF6
:10E350000C4642EB1C421BEB060658EB0202414105
:10E3600046EA9E0601D5BDE80189B619524141EB46
:10E370000101A3F10103BDE801894FEA14454FEA09
:10E38000114724EA054621EA074C05FB07F406FB82
:10E3900007F70CFB06F105FB0CFC11EB074144EB06
:10E3A00017444FEA124711EB0C4144EB1C4422EA9C
:10E3B000074C05FB07F206FB07F70CFB06F605FB0F
:10E3C0000CFC16EB074642EB174216EB0C4642EBF1
:10E3D0001C456A1854F1000148BF7047B6195241F4
:10E3E00041EB0101A3F10103704795F0000F37D015
:10E3F0004FEA11424FEA144721EA024624EA074C49
:10E4000002FB07F106FB07F70CFB06F402FB0CFC12
:10E4100014EB074441EB17414FEA154714EB0C444A
:10E4200041EB1C4125EA074C02FB07F506FB07F709
:10E430000CFB06F602FB0CFC16EB074645EB1745FA
:10E4400016EB0C4645EB1C42121951F1000148BF76
:10E450007047B619524141EB0101A3F10103704726
:10E460004FEA14454FEA114724EA054621EA074CD2
:10E4700005FB07F106FB07F70CFB06F24FF0000661
:10E4800005FB0CFC12EB074241EB174112EB0C426F
:10E4900051EB1C4148BF7047921841EB0101A3F1B9
:10E4A00001037047CA430260704721B1826842F09D
:10E4B0000102826003E0826822F0010282607047FC
:10E4C000014600208A6812F0040F01D0012000E00C
:10E4D000002070470146C86C80B270470246002099
:10E4E00013680B4201D0012000E000207047014674
:10E4F00000208A6812F0080F01D0012000E00020FF
:10E500007047000030B502460020002350680F4CD1
:10E5100020400D790C6844EA05242043506090683F
:10E520000B4C2040D1E902542C434D7944EA450478
:10E5300020439060D06A20F470000C7C641EE4B22A
:10E54000234340EA0350D06230BD0000FFFEF0FFDD
:10E55000FDF7F1FFF0B504460D4600200021092D1E
:10E5600011DDE068A5F10A0606EB4607072606FA64
:10E5700007F18843A5F10A0606EB460603FA06F101
:10E580000843E0600CE0206905EB4507072606FA22
:10E5900007F1884305EB450603FA06F108432061BD
:10E5A000072A0FDA606B561E06EB86071F2606FA4F
:10E5B00007F18843561E06EB860605FA06F1084366
:10E5C000606322E00D2A0FDA206BD61F06EB860768
:10E5D0001F2606FA07F18843D61F06EB860605FAC2
:10E5E00006F10843206310E0E06AA2F10D0606EB95
:10E5F00086071F2606FA07F18843A2F10D0606EBEF
:10E60000860605FA06F10843E062F0BD816841F034
:10E6100008018160704721B1826842F4A0028260E3
:10E6200003E0826822F4A00282607047816841F0B2
:10E6300004018160704700002DE9F05F07460C4639
:10E6400016462549206808F067F8804608F018F853
:10E650000004000C0BD1384608F04AF881463146D8
:10E6600008F05AF8804607F0EFFF05462EE0A08834
:10E6700010F4004F15D0A188C1F30E0008F020F867
:10E680008246384608F034F88346216808F044F89A
:10E690008146514608F00CF9804607F0D5FF054643
:10E6A00014E0A188C1F30E0008F00AF8824638464B
:10E6B00008F01EF88346216808F02EF8814651467E
:10E6C00007F09EFE804607F0BFFF0546002D00DAEA
:10E6D0000025A8B2BDE8F09F00007A4400B587B0DD
:10E6E00001214FF4057004F06DF901208DF81A0036
:10E6F00000208DF81B000F20ADF8180006A91D485A
:10E7000000F0C2FE0E20ADF8180006A91A4800F06D
:10E71000BBFE4FF4004004F039F9002001900120C5
:10E720008DF8080000208DF809004FF46020039058
:10E730000020049001208DF8140001A90F48FFF774
:10E74000E1FE01210D48FFF7B0FE0C48FFF75EFF28
:10E7500000BF0A48FFF7CBFE0028FAD10748FFF7B1
:10E7600065FF00BF0548FFF7ABFE0028FAD107B0F0
:10E7700000BD0000001001400008014000240140DD
:10E7800008B50848006828B969460D2002F072FDF6
:10E79000044908606A4600210248006802F0B8FD9A
:10E7A00008BD00001000002010B50248006802F00B
:10E7B000D7FE10BD1000002008E00548006880F07A
:10E7C000200003490860C82003F08EFAF5E7000036
:10E7D0000C0C014004E002F0CFFB012003F084FAAE
:10E7E000F9E7142004F0EEFC04F000FD00211020F5
:10E7F00004F0EAFD0021112004F0E6FD00211220C2
:10E8000004F0E2FD0021132004F0DEFD08E004F036
:10E8100053FF04F077FA00F053F8012003F064FA94
:10E82000F5E7000011E000F095F80849087100F0E4
:10E8300040FC012806D105484079012802D1022078
:10E8400004F0F2FB012003F04FFAECE70400002093
:10E8500008B5002002F07AFF1549086026E004F0B0
:10E8600005FF13496A460868002102F099FF114824
:10E87000807811281AD110490E4804F093FE01281F
:10E880000FD10E490C4801F0CFF90C48008840B177
:10E8900009490A4803F0F4FF07480188C01C00F04A
:10E8A0004FFC00200349088010208870D7E7000043
:10E8B00000000020D42A0020EE120020EA0E0020E2
:10E8C0002DE9FF5F0A21084600F0BEFE824640F6B1
:10E8D0002A2082452DDA504607F055FC8046164A1C
:10E8E000164B07F063FC06460022154B07F096FA1C
:10E8F000044607F061FA834607F056FD02460B46D0
:10E90000CDE900010FA102A8FEF7EAF802A802F083
:10E91000C7FA4FF47A7004F055FC02F0CFF80A20E1
:10E9200004F050FC01200A49087004F017FF04F0BD
:10E9300063FBBDE8FF9F0000A4703D0AD723104091
:10E9400000408F40B5E7D4B43A252E31665600001A
:10E950000A00002010B500F0BFFC0A2801DA0120EF
:10E9600010BD0020FCE700BFFEE710B500210A2023
:10E9700000F0FCFE044643F69820844201DD0120AD
:10E9800010BD0020FCE770B50646002000F030FF07
:10E9900005463580B5F5FA7F07DD642003F0A4F95C
:10E9A000B5F5FA7F02DD012400E00024204670BDA9
:10E9B00010B52B482B49486012212A4801812A486A
:10E9C0002849C860292127480182284825494861EB
:10E9D00004212448018326482249C8610E21214888
:10E9E000018424481F4948620E211E4801850520E4
:10E9F00004F098F840F008042146052004F094FE45
:10EA0000052004F0DFFB052004F08CF820F008045A
:10EA10002146052004F088FE052004F0D3FB0021E8
:10EA2000082004F081FE0E210C2004F07DFE0E2152
:10EA30000D2004F079FE02210E2004F075FE1F2146
:10EA4000092004F071FE0721084604F06DFE402104
:10EA5000052004F069FE0321062004F065FE10BDC8
:10EA60009AB00108A82A0020ACB001087AB00108C9
:10EA70007EB001088CB001082DE9FC41092004F0AA
:10EA800051F8054615F0020F14D00021082004F0BB
:10EA90004BFE0E210C2004F047FE0E210D2004F049
:10EAA00043FE02210E2004F03FFE1221092004F053
:10EAB0003BFEF8E115F0010F73D00A2004F032F8A4
:10EAC000064606F00F0009281ED006DC002869D093
:10EAD000022807D0082866D184E10A2805D00C282E
:10EAE000F9D11FE000F0FCFABAE10E2004F01AF8A8
:10EAF00020F00300801C80F0400739460E2004F00F
:10EB000013FE00F06FFBABE10D2004F00BF820F0DA
:10EB10000F0040F00E0080F0400739460D2004F051
:10EB200003FE9DE10020E14908700B2003F0FAFF8D
:10EB30000446082C73D16A462146282003F0D0FFF2
:10EB40009DF80600DA4908709DF8070018B90846D4
:10EB500000787F2802DD7F20D549087000249DF8C9
:10EB6000000010F0200F0ED09DF80100FE2809D102
:10EB70000021202004F0D8FDCD480078012802DBD8
:10EB8000012400E000BF9DF8000010F0600F6FD17D
:10EB90009DF80100C7490870084600780B2868D224
:10EBA00002E063E156E15AE1DFE800F0DB8DECECD6
:10EBB000EC7806EC7D88D1009DF80300012806D092
:10EBC00002280BD0032810D0222840D13AE0BA48BE
:10EBD0004068BA490860B848047A3CE0B648C06862
:10EBE000B6490860B448047C35E09DF80200B8B12D
:10EBF000012804D002280AD022281DD117E0AE48EF
:10EC0000C069AE490860AC4890F8204018E0AA48B6
:10EC1000406AAA490860A84890F8284010E0BAE085
:10EC2000A5484069A5490860A348047E08E0A448B7
:10EC3000A2490860262403E001209C49087000BF17
:10EC400000BF08E09E489D490860262403E001209B
:10EC50009649087000BF00BF95480078A04201DDCA
:10EC60009348047092480078082803DB082003E0EA
:10EC70008DE087E08E48007804469048214602687F
:10EC8000202004F02FFD8A480078001B8849087076
:10EC90008A48006820448949086077E09DF80200AE
:10ECA0008349087072E087480178202004F03CFD19
:10ECB0007F480078012800DB012467E09DF802000E
:10ECC0008049087062E09DF8000000F01F000228F3
:10ECD00039D19DF80400012826D002280ED08128C1
:10ECE00016D082282AD10E2003F01CFF20F003004A
:10ECF000871C39460E2004F017FD23E00E2003F098
:10ED000011FF20F0300739460E2004F00DFD19E008
:10ED10000D2003F007FF20F00F0040F00E073946EA
:10ED20000D2004F001FD0DE00D2003F0FBFE20F0AE
:10ED3000300739460D2004F0F7FC03E001205B4961
:10ED4000087000BF02E00120584908701EE0002151
:10ED5000202004F0E9FC56480078012800DB01245B
:10ED600014E00021202004F0DFFC0021212004F029
:10ED7000DBFC4F480078022801DB022401E04C480C
:10ED8000047803E001204949087000BF06E0012033
:10ED90004649087002E00120444908704348007861
:10EDA00020B13F210C2004F0BFFC1AE0082C0DDC40
:10EDB0000C2003F0B7FE20F0300064F3030040F0B5
:10EDC000400739460C2004F0AFFC0AE00C2003F0A9
:10EDD000A9FE20F03F0040F08E0739460C2004F0D9
:10EDE000A3FC3DE033480078052826D006282AD128
:10EDF0002F480078082801DB082001E02C48007823
:10EE000004462E4821460268202004F06BFC284866
:10EE10000078001B264908702848006820442749CC
:10EE200008600C2003F07EFE64F3030080F04007CE
:10EE300039460C2004F078FC0AE01D4801780820CF
:10EE400004F072FC00BF0E210C2004F06DFC00BF2A
:10EE500000BF05E00E210C2004F066FC00E000BFBE
:10EE600000BF1121092004F05FFC1CE015F0040F25
:10EE70000DD01421092004F057FC052003F052FEA8
:10EE800040F001073946052004F04EFC0BE015F078
:10EE9000080F04D01821092004F046FC03E01F21CC
:10EEA000092004F041FCBDE8FC810000290000209D
:10EEB0002B0000202A000020A82A00202C0000207F
:10EEC000D5B001082800002010B501E0FFF7D4FDFF
:10EED0004021034800F0AAFB0028F7D010BD000035
:10EEE0000010014000B587B00121082003F06AFD41
:10EEF0000121880303F056FD10208DF81B0003202C
:10EF00008DF81A004FF48050ADF8180006A91C487F
:10EF100000F0BAFA18208DF81B004FF46040ADF8ED
:10EF2000180006A9164800F0AFFA4FF480511448B3
:10EF300000F087FB0020ADF804004FF48270ADF8BC
:10EF400006000020ADF808000220ADF80A000120FC
:10EF5000ADF80C004002ADF80E001020ADF8100026
:10EF60000020ADF812000720ADF8140001A90548F3
:10EF700003F0AAFE0121034803F08CFE07B000BD98
:10EF8000000C01400038004010B5044600BF0221CB
:10EF90000A4803F08BFE0028F9D02146074803F009
:10EFA00091FE00BF0121054803F080FE0028F9D042
:10EFB000024803F084FEC0B210BD000000380040DB
:10EFC00070B505460C464FF480510C4800F037FBF5
:10EFD0002846FFF7D9FF8020FFF7D6FF02E0002088
:10EFE000FFF7D2FF2000A4F10101CCB2F7D14FF41A
:10EFF0008051024800F025FB70BD0000000C01406C
:10F000001FB50121142003F0DDFC0121084603F0A7
:10F01000D9FC03208DF80E0048208DF80F00402009
:10F02000ADF80C0003A9204800F02EFA4FF4006060
:10F03000ADF80C0048208DF80F0003A91A4800F025
:10F0400023FA10208DF80F0003208DF80E004FF4E6
:10F050008070ADF80C0003A9144800F015FA0621E1
:10F06000022000F0F1F94020019000208DF8080006
:10F0700010208DF8090001208DF80A0001A800F089
:10F08000E1F817208DF8000001208DF80100002024
:10F090008DF8020001208DF80300684601F028FF7A
:10F0A000FFF720FF1FBD00000010014000080140D5
:10F0B000704770B500F010F905464FF4FA7002F091
:10F0C00013FE00F009F90646701B01D4014600E06A
:10F0D00041428CB2172C01DD012070BD0020FCE7FD
:10F0E00010B50B2003F01EFD044613480088204491
:10F0F000B0F5806F02DD00200F4908800E480188BE
:10F10000C01C0A182146C02003F0EAFC0A48008807
:10F11000204409490880084603F09EFE012809D1D1
:10F120000649086802F0B4FB20B1002002490880BB
:10F130001020887010BD0000D42A0020000000209C
:10F140002DE9F04706460C460025002747E0002041
:10F1500023490870A54202DB0120BDE8F08705F1D4
:10F160004000A04201DC40270BE02046E11704EB01
:10F1700091618911A4EB8111CFB240210846FFF7BC
:10F180001FFF72193946402004F0ACFA40210B20D1
:10F1900004F0CAFA0E2003F0C5FC20F0030080F052
:10F1A000800949460E2004F0BFFAE819C5B24FF0B5
:10F1B000000801E00120D0E7094800780128F9D0D3
:10F1C00009E008F101001FFA80F847F2305080454D
:10F1D00001DD0020C1E7024800780028F1D0B6E741
:10F1E00030000020012001490870704730000020E5
:10F1F00010B501F0E5FF402000F010F820B14020EC
:10F2000000F006F8FFF760FE01F0ECFF10BD000013
:10F2100001490860704700001404014001460020C5
:10F220000022074B1B6803EA0102054B14331B68DD
:10F230000B4202D00AB1012000E00020704700001C
:10F2400000040140002123498279002A3AD00A466D
:10F25000126803689A430B461A600A1D1268036815
:10F260009A430B1D1A60027911440A6803681A4315
:10F270000A60184A0832126803689A43154B08332B
:10F280001A601A1D126803689A43124B0C331A60F5
:10F290004279102A0ED11A1F126803681A430D4BC7
:10F2A00008331A601A1D126803681A43094B0C339D
:10F2B0001A600DE00749427911440A6803681A434D
:10F2C0000A6005E0027911440A6803689A430A60FB
:10F2D000704700000004014030B58BB000250024C9
:10F2E00008E000210A2000F041FA06A921F81400E4
:10F2F000601CC4B20A2CF4DB0A2201A906A804F09F
:10F3000017F9022406E001A830F81400284485B259
:10F31000601CC4B2082CF6DB062095FBF0F085B229
:10F3200028460BB030BD00000149C860704700009E
:10F330000020024030B5044604254FF4302000F090
:10F340006FF80546042D17D10C48006940F0020003
:10F350000A49086108464461006940F040000861BC
:10F360004FF4302000F05CF805460448006941F68F
:10F37000FD71084001490861284630BD0020024067
:10F3800004200B49C96811F0010F01D001200EE0E3
:10F390000749C96811F0040F01D0022007E00449B1
:10F3A000C96811F0100F01D0032000E0042070475D
:10F3B000002002400348006940F0800001490861D4
:10F3C000704700000020024070B504460D46042638
:10F3D000F00200F025F80646042E11D10948006914
:10F3E00040F00100074908612580F00200F018F89C
:10F3F00006460448006941F6FE710840014908616B
:10F40000304670BD0020024002480349486003486E
:10F41000486070472301674500200240AB89EFCD6B
:10F4200000B502460423FFF7ABFF034603E0FFF7F6
:10F43000A7FF0346521E012B01D1002AF7D102B9C2
:10F440000523184600BD000030B500228B071C0FB5
:10F450000F2303FA04F20B4B8C1053F82430934320
:10F46000084C8D1044F8253023468C1053F8243076
:10F470008C07240F00FA04F42343024C8D1044F847
:10F48000253030BD080001402DE9F041024600253D
:10F490000026002000230024002791F803C00CF070
:10F4A0000F0591F803C01CF0100F03D091F802C0B3
:10F4B0004CEA050591F800C0BCF1000F31D014688A
:10F4C00000202BE04FF0010C0CFA00F3B1F800C063
:10F4D0000CEA03069E4220D183004FF00F0C0CFA79
:10F4E00003F7BC4305FA03FC4CEA040491F803C09B
:10F4F000BCF1280F06D14FF0010C0CFA00FCC2F849
:10F5000014C00AE091F803C0BCF1480F05D14FF0D8
:10F51000010C0CFA00FCC2F810C0401C0828D1D322
:10F520001460B1F800C0BCF1FF0F34DD5468002056
:10F530002EE000F1080C4FF0010808FA0CF3B1F8C6
:10F5400000C00CEA03069E4221D183004FF00F0C4D
:10F550000CFA03F7BC4305FA03FC4CEA040491F8E7
:10F5600003C0BCF1280F05D100F1080C08FA0CF813
:10F57000C2F8148091F803C0BCF1480F07D100F124
:10F58000080C4FF0010808FA0CF8C2F81080401C73
:10F590000828CED35460BDE8F0810000F0B50A46DB
:10F5A000002300240021002500F00046B6F1004FA2
:10F5B00002D11D4EF16901E01B4E7168C0F3034595
:10F5C00083B200F44016B6F5401F08D121F07061F7
:10F5D000154E766826F07066134F7E6012E000F4D8
:10F5E0008016B6F5801F06D1032606FA05F4A1435E
:10F5F00041F0706106E0460D360103FA06F6B143AC
:10F6000041F0706122B1460D360103FA06F631432E
:10F6100000F00046B6F1004F02D1034EF16101E067
:10F62000014E7160F0BD0000000001400246002064
:10F6300093680B4201D0012000E000207047416137
:10F640007047016170470000F0B58BB007460C466B
:10F65000002614B900200BB0F0BD0A2C00DD0A24EE
:10F660000723012239462B48FEF774FF002528E0C6
:10F6700001212848FEF7CFFF00BF10212548FEF7E3
:10F680002DFF0028F9D001212248FEF7C4FF00BF5A
:10F6900010212048FEF722FF0028F9D01D48FEF770
:10F6A00019FF06A921F8150006A830F81500304406
:10F6B00086B2601EA84202D0012003F075FD681CCE
:10F6C000C5B2A542D4DB00211248FEF7A4FF1021E9
:10F6D0001048FEF7E7FE052C16DD0026224601A99C
:10F6E00006A803F025FF022506E001A830F8150062
:10F6F000304486B2681CC5B2A01EA842F5DC201FAB
:10F7000096FBF0F086B202E096FBF4F086B230464B
:10F71000A1E70000002401402DE9F041FFF730F897
:10F720000A210846FFF790FF0446204606F02BFD0D
:10F730000546064A064B06F039FD074606F0F6FC7C
:10F7400084B2FFF731F82046BDE8F081A4703D0A8D
:10F75000D72310400246002004E0135C03B903E005
:10F76000431C98B28842F8DB00BF704770B506466C
:10F770000C46FFF705F84FF480711948FFF75FFF5B
:10F780000A2003F003FD31460220FFF75DFF054626
:10F7900004B1258040F61750854206DA114A124915
:10F7A0002846FEF749FF054615E04FF480710C48E6
:10F7B000FFF747FF0A2003F0E9FC31460120FFF77D
:10F7C00043FF054604B12580084A07491031284601
:10F7D000FEF732FF0546FEF7E7FF284670BD000042
:10F7E00000100140C3F5883F041700203333AB40BD
:10F7F000F0B58BB007460026FEF7C2FF4021314826
:10F80000FFF71FFF4FF400712F48FFF718FF02208A
:10F8100003F0D8FC002430E0052003F0B7FC4FF4DF
:10F8200080712948FFF70BFF04210220FFF70CFF2E
:10F83000054640F61750854206DAA8B2234A244905
:10F84000FEF7FAFE054610E04FF480711E48FFF700
:10F85000F8FE04210120FFF7F7FE054628461D4A61
:10F860001B491031FEF7E8FE0546002D00DA0025A1
:10F8700006A921F81450601CC4B20A2CCCDB40212C
:10F880001048FFF7DCFE4FF400710F48FFF7D9FE78
:10F890000A2201A906A803F04BFE022405E001A8F4
:10F8A00030F814000644601CC4B2082CF7DB0620B4
:10F8B00096FBF0F6FEF778FF07B13E80B0B20BB0D2
:10F8C000F0BD00000008014000100140C3F5883F72
:10F8D000041700203333AB402DE9F0418AB00446D1
:10F8E0000F4600260CB10A2C00DD0A24002513E087
:10F8F00000F03CF9B0F1000801DB404601E0C8F13E
:10F90000000005A921F81500681CA04202DA0120B8
:10F9100003F058FC681CC5B2A542E9DB052C14DDD8
:10F920002246694605A803F003FE022505E03DF8DE
:10F930001500304486B2681CC5B2A01EA842F6DC91
:10F94000201F96FBF0F086B20DE0002506E005A82A
:10F9500030F81500304486B2681CC5B2A542F6DB0B
:10F9600096FBF4F086B207B13E8030B200F00CF89E
:10F97000B0F1000801DB404601E0C8F1000080B2B0
:10F980000AB0BDE8F08100002DE9F04781464FF054
:10F99000000AB9F1000F04DAC9F100001FFA80FA79
:10F9A00001E01FFA89FA2C4908682C4906F0B4FED8
:10F9B000054606F065FE0004000C0CD1504606F02A
:10F9C000E2FB0746264A274B06F0F0FB054606F009
:10F9D0007DFB044635E02048808810F4004F18D0A5
:10F9E0001D498988C1F30E0006F06AFE074650469D
:10F9F00006F07EFE804618480168404606F08CFE00
:10FA00000646394606F054FF054606F01DFE04B2D0
:10FA100017E011498988C1F30E0006F051FE074630
:10FA2000504606F065FE80460B480168404606F0E9
:10FA300073FE0646394606F0E3FC054606F004FE72
:10FA400004B2002C00DA0024B9F1000F00DA64429D
:10FA500020B2BDE8F0870000F416002000007A44D0
:10FA6000F853E3A59B041040F0B504461E46FF235F
:10FA7000FF2500272312E5B209E012F8010B80EA06
:10FA800005070948C05D80EA03050848C35D3000EA
:10FA9000A6F1010C1FFA8CF6EFD109B10B704D7075
:10FAA00005EB032080B2F0BDC8910108C89201089F
:10FAB0002DE9F04F85B006460F4615469846DDF80D
:10FAC00038B04FF0FF394FF0000A002421E0285DE4
:10FAD000B0421CD10AF1010000F0FF0A574515D1D0
:10FAE00014216846FDF7C5FAA4EB0900421E09F18E
:10FAF000010029186846FDF723FA5A4607A168460F
:10FB0000FDF708F9012005B0BDE8F08FA146601CA3
:10FB100084B24445DBDB0020F5E7000025756C640A
:10FB20000000000030B5002303800F4B1C780588CF
:10FB30006B1C0380C31C5C550C1205886B1C038076
:10FB4000C31C5C5505886B1C0380C31C5955140AE3
:10FB500005886B1C0380C31C5C5505886B1C0380E7
:10FB6000C31C5A5530BD0000A80E002070B50026F9
:10FB7000FEF706FE0A210320FFF766FD04460A2170
:10FB80000C20FFF761FD0546281B06B2FEF70CFEB0
:10FB9000304670BD08B50121142002F013FF032088
:10FBA0008DF8020010208DF803004001ADF8000030
:10FBB00069461B48FFF768FC4FF400711848FFF7CF
:10FBC00040FD4020ADF8000069461648FFF75CFC98
:10FBD00040211448FFF735FD8020ADF8000069464C
:10FBE0000F48FFF751FC80210D48FFF728FD4FF427
:10FBF0008070ADF8000069460948FFF745FC4FF4F6
:10FC000080710748FFF71DFD0120ADF8000069462F
:10FC10000448FFF739FC01210248FFF710FD08BD39
:10FC200000100140000801402DE9F04FA1B0054649
:10FC30000C464FF0000A002740F204412046FDF731
:10FC4000F6F9288805286EDBE878FE4909788842AD
:10FC500002D0E878002866D16979287901EB002084
:10FC60001FFA80FAE979A87901EB002087B2BAF18E
:10FC7000070F7DD008DCBAF1070F7AD2DFE80AF06F
:10FC80001932549ABBFCED00BAF10B0F72D009DCAB
:10FC9000BAF1080F6FD0BAF1090F6DD0BAF10A0F9F
:10FCA00067D184E1BAF10C0F67D0BAF1F00FF7D148
:10FCB000F8E3A7F57F40FF3813D13A465146204676
:10FCC000FFF730FF2288E11C5018DFA1FDF714F97F
:10FCD0002088133020800D212288501C2080E01CB9
:10FCE000815432E2A7F57F40FF381BD13A46514696
:10FCF0002046FFF717FF2021D248401CFFF72AFDBE
:10FD000006462288E11C50183246CE49491CFDF7B0
:10FD1000D7F92088304420800D212288501C208073
:10FD2000E01C8154DDE7F5E3A7F57F40FF3840D1C3
:10FD30003A4651462046FFF7F5FE2888801F81B2DB
:10FD400005F10800FFF706FD0646202E25D82021E4
:10FD5000BC48401CFDF76BF9002E06DD324605F16C
:10FD60000801B848401CFDF7EBF803F0F7FC05E08C
:10FD7000C2E0F2E307E2E1E0FEE0CCE330B13121A2
:10FD80002288501C2080E01C81540CE03221228803
:10FD9000501C2080E01C815405E033212288501C37
:10FDA0002080E01C81540D212288501C2080E01C02
:10FDB000815496E7A7F57F40FF381BD13A4651465C
:10FDC0002046FFF7AFFE20219E482130FFF7C2FCFE
:10FDD00006462288E11C501832469A492131FDF727
:10FDE0006FF92088304420800D212288501C20800B
:10FDF000E01C8154ECE3A7F57F40FF383BD13A4645
:10FE000051462046FFF78EFE2888801F81B205F1FB
:10FE10000800FFF79FFC0646202E20D820218948A5
:10FE20002130FDF704F9002E06DD324605F1080108
:10FE300084482130FDF784F803F090FC30B1312183
:10FE40002288501C2080E01C81540EE03221228840
:10FE5000501C2080E01C815407E02FE00CE033218F
:10FE60002288501C2080E01C81540D212288501CC7
:10FE70002080E01C8154ABE3A7F57F40FF381CD104
:10FE80003A4651462046FFF74DFE122001F0D6FEBD
:10FE900040217248FFF7D3FB4FF400717048FFF721
:10FEA000CEFB31212288501C2080E01C81540D2182
:10FEB0002288501C2080E01C815489E3A7F57F40F4
:10FEC000FF3818D13A4651462046FFF72BFE122044
:10FED00001F0B4FE4FF400716148FFF7B2FB31212D
:10FEE0002288501C2080E01C81540D212288501C47
:10FEF0002080E01C81546BE3A7F57F40FF381CD1C4
:10FF00003A4651462046FFF70DFE122001F096FEBC
:10FF100040215248FFF795FB4FF400715048FFF71E
:10FF20008EFB31212288501C2080E01C81540D2141
:10FF30002288501C2080E01C815449E3A7F57F40B3
:10FF4000FF3818D13A4651462046FFF7EBFD122004
:10FF500001F074FE20A90A20FFF708FC064622885B
:10FF6000E11C5018BDF8803032463EA1FCF7B8FDC8
:10FF70002188084420802BE3A7F57F40FF3815D166
:10FF80003A4651462046FFF7CDFD20A90A20FFF74B
:10FF9000A3FC06462288E11C5018BDF8803032468A
:10FFA00030A1FCF79DFD21880844208010E3A7F5CF
:10FFB0007F40FF387ED13A4651462046FFF7B2FDDA
:10FFC0001FA800902888401F83B205F10802012174
:10FFD0000D20FFF76DFD60B932212288501C208072
:10FFE000E01C81540D212288501C2080E01C81548B
:10FFF000EEE21F9800F0FF08B8F1000F3FD11B4957
:020000040801F1
:1000000008681B4906F088FB834606F039FB86B278
:100010001648808820901548C08800F5FA601FFABD
:1000200080F91248007A8DF818001048407A8DF84F
:1000300019000E48807A8DF81A000C48C07A8DF8A5
:100040001B0017E0A80E0020414C5F53575F56314C
:100050002E305F323032303038333100000801400A
:100060000010014025750D25750D0000F4160020C7
:1000700000007A44FE48007B8DF81C0066E0B8F171
:10008000010F28D1FA490869FA4906F045FB834671
:1000900006F0F6FA86B2F648808A2090F448C088C6
:1000A00000F5FA601FFA80F9F148007E8DF818001B
:1000B000EF4800E066E0407E8DF81900EC48807E55
:1000C0008DF81A00EA48C07E8DF81B00E848007FD2
:1000D0008DF81C003AE0B8F1020F2BD1E449086A10
:1000E000E44906F019FB834606F0CAFA86B2E048F6
:1000F000808C2090DE48C08C00F5FA601FFA80F9F1
:10010000DB4890F828008DF81800D94890F82900AD
:100110008DF81900D64890F82A008DF81A00D448B6
:1001200090F82B008DF81B00D14890F82C008DF82A
:100130001C000BE00D212288501C2080E01C815403
:100140002288501C2080E01C815441E29DF81C0054
:100150009DF81B109DF81A209DF81930CDE9023248
:10016000CDE904109DF81800CDE900902288E11C2B
:100170005018BDF880303246BFA1FCF7B1FC218891
:100180000844208024E2A7F57F40FF3870D13A462A
:1001900051462046FFF7C6FC1FA800902888401F44
:1001A00083B205F1080201210D20FFF781FC60B93F
:1001B00032212288501C2080E01C81540D2122888D
:1001C000501C2080E01C815402E21F9800F0FF08C0
:1001D0001FA800902888401F83B205F10802022161
:1001E0000D20FFF765FC60B932212288501C208069
:1001F000E01C81540D212288501C2080E01C815479
:10020000E6E11F9886B21FA800902888401F83B29D
:1002100005F1080203210D20FFF74AFC60B93221E5
:100220002288501C2080E01C81540D212288501C03
:100230002080E01C8154CBE11F9880B220901FA841
:1002400000902888401F83B205F1080204210D2088
:10025000FFF72EFC68B932212288501C2080E01C58
:1002600081540D212288501C2080E01C8154AFE174
:100270004FE11F98A0F5FA60C0B28DF818001FA8D2
:1002800000902888401F83B205F1080205210D2047
:10029000FFF70EFC60B932212288501C2080E01C40
:1002A00081540D212288501C2080E01C81548FE154
:1002B0001F98C0B28DF819001FA800902888401F11
:1002C00083B205F1080206210D20FFF7F1FB60B9AA
:1002D00032212288501C2080E01C81540D2122886C
:1002E000501C2080E01C815472E11F98C0B28DF830
:1002F0001A001FA800902888401F83B205F1080249
:1003000007210D20FFF7D4FB60B932212288501C51
:100310002080E01C81540D212288501C2080E01C8C
:10032000815455E11F98C0B28DF81B001FA80090A2
:100330002888401F83B205F1080208210D20FFF72D
:10034000B7FB60B932212288501C2080E01C815408
:100350000D212288501C2080E01C815438E11F9818
:10036000C0B28DF81C001FA800902888401F83B2DF
:1003700005F1080209210D20FFF79AFB60B932212F
:100380002288501C2080E01C81540D212288501CA2
:100390002080E01C81541BE11F98C0B28DF81D0025
:1003A000B8F1000F27D1304605F0EDFE00223C4B9E
:1003B000CDE9020105F032FDCDE9040105F0FCFCB8
:1003C0002B490860BDF8800088809DF81800C8801F
:1003D0009DF8190008729DF81A0048729DF81B00DC
:1003E00088729DF81C00C8729DF81D0008731220C9
:1003F00001F036FB77E0B8F1010F28D1304605F067
:10040000C2FE0022264BCDE9020105F007FDCDE931
:10041000040105F0D1FC16490861BDF880101448AC
:1004200081829DF81810C1829DF8191001769DF8FF
:100430001A1041769DF81B1081769DF81C10C1762C
:100440009DF81D100177122001F00AFB4BE0B8F176
:10045000020F48D1304605F096FE0022104BCDE940
:10046000020105F0DBFCCDE9040105F0A5FC1AE072
:10047000F416002000007A4425750D25750D2530F1
:1004800034640D253032640D253032640D25303250
:10049000640D253032640D253032640D00000000FB
:1004A00000408F408AE04E490862BDF880104C48F9
:1004B00081849DF81810C1849DF8191080F82810C7
:1004C0009DF81A1080F829109DF81B1080F82A104A
:1004D0009DF81C1080F82B109DF81D1080F82C1032
:1004E000122001F0BDFA03F039F930B93221228827
:1004F000501C2080E01C815405E031212288501CD2
:100500002080E01C81540D212288501C2080E01C9A
:1005100081545DE061E0A7F57F40FF384DD13A4658
:1005200051462046FFF7FEFA1FA800902888401F7A
:1005300083B205F1080201210D20FFF7B9FA68B96D
:1005400032212288501C2080E01C81540D212288F9
:10055000501C2080E01C81543AE038E01F9800F0E5
:10056000FF08B8F1000F04D100201D490860888001
:1005700017E0B8F1010F06D10020194908610021E8
:10058000174881820DE0B8F1020F06D1002014490E
:10059000086200211248818403E030211048FCF7F2
:1005A00068FD31212288501C2080E01C81540D21DF
:1005B0002288501C2080E01C815409E0A7F57F4070
:1005C000FF3803D102F0B8FB02F016FD00E000BFD7
:1005D00000BFE87808B90020208021B0BDE8F08F86
:1005E000F416002000BFFEE710B5044601E002F05B
:1005F000F5FD2000A4F10104F9D110BD10B50620CD
:10060000FFF7F2FF002411E04FF480710948FFF773
:1006100016F80620FFF7E8FF4FF480710548FFF752
:1006200010F80620FFF7E0FF601CC4B2092CEBDBDA
:1006300010BD0000000C014008B50121082002F0A7
:10064000C1F903208DF8020014208DF803004FF447
:100650008070ADF8000069460A48FEF715FF4FF4B8
:100660000070ADF8000069460648FEF70DFF4FF434
:1006700080710448FEF7E5FF4FF480710148FEF7F2
:10068000E0FF08BD000C014070B5044608250320BA
:10069000FFF7AAFF22E04FF480711648FEF7CFFF64
:1006A0000320FFF7A1FF14F0800F05D04FF4007175
:1006B0001048FEF7C6FF04E04FF400710D48FEF746
:1006C000BEFF6006040E0120FFF78EFF4FF480711D
:1006D0000848FEF7B6FF0620FFF786FF2800A5F1C1
:1006E0000101CDB2D7D14FF480710248FEF7A7FFC8
:1006F00070BD0000000C014010B50320FFF774FF2F
:100700004FF400711A48FEF79CFF4FF480711848AF
:10071000FEF797FF0620FFF767FF4FF400711448BC
:10072000FEF784FF48B9FFF769FF4FF400711048E6
:10073000FEF77CFF08B9002010BD4FF400710C4893
:10074000FEF77DFF0320FFF74FFF4FF400710848CD
:10075000FEF76CFF08B10020EEE74FF4807104480B
:10076000FEF76DFF0320FFF73FFF0120E4E70000E5
:10077000000C014010B50320FFF736FF4FF48071E5
:100780000F48FEF75CFF0320FFF72EFF4FF40071C8
:100790000B48FEF754FF0320FFF726FF4FF480714C
:1007A0000748FEF74EFF0620FFF71EFF4FF40071CB
:1007B0000348FEF746FF0320FFF716FF10BD0000B9
:1007C000000C014010B50320FFF70EFF4FF48071BD
:1007D0001448FEF734FF0320FFF706FF4FF40071C3
:1007E0001048FEF72EFF0320FFF7FEFE4FF4807146
:1007F0000C48FEF726FF0320FFF7F6FE4FF40071CA
:100800000848FEF713FF30B14FF480710548FEF73A
:1008100016FF002010BD4FF480710248FEF70FFF55
:100820000120F7E7000C014070B506460C4615465E
:10083000FFF762FF08B9002070BD05F0FE00FFF76A
:1008400023FFFFF7BFFF18B9FFF794FF0020F3E77E
:10085000E0B2FFF719FFFFF7B5FF18B9FFF78AFFFE
:100860000020E9E73046FFF70FFFFFF7ABFF18B9AD
:10087000FFF780FF0020DFE7FFF77CFF0A20FFF78C
:10088000B3FE0120D8E72DE9F04105460E46174694
:100890009846FFF731FF10B90020BDE8F08105F060
:1008A000FE00FFF7F1FEFFF78DFF18B9FFF762FFBB
:1008B0000020F2E7F0B2FFF7E7FEFFF783FF18B979
:1008C000FFF758FF0020E8E700240AE0385DFFF753
:1008D000DBFEFFF777FF18B9FFF74CFF0020DCE7DE
:1008E000641C4445F2D3FFF745FF0120D5E7000023
:1008F0004CF6CC40014908607047000000300040D1
:100900004AF6AA2001490860704700000030004004
:10091000014948607047000000300040014988608C
:100920007047000000300040014908607047000037
:100930000030004008B501210D2002F043F80121EC
:10094000042002F03FF801211248FEF727FE0320A1
:100950008DF8020010208DF80300A020ADF80000F3
:1009600069460D48FEF790FD20210B48FEF769FE11
:1009700080210948FEF765FE4FF40040ADF8000005
:1009800069460648FEF780FD4FF400410348FEF734
:1009900058FE08BD00023000000C01400008014074
:1009A00010B500200EE0002108E0002200EB40031B
:1009B000064C04EB43135A544A1CD1B26029F4DBB1
:1009C000421CD0B20428EEDB10BD0000242700201A
:1009D00010B500240DE02146002000F02FFA04EBB2
:1009E0004401054A02EB4110602100F073FA601CDB
:1009F000C4B2042CEFDB10BD242700202DE9F04702
:100A0000064688464FF000090024B8F1000F29D0AF
:100A10002248007910B101280AD104E0204FDFF804
:100A20008490152507E0204FDFF88090042502E030
:100A30000020BDE8F08700BF0DE007EB4401022273
:100A40003046FCF72DFA20B91948407904FB00998B
:100A500003E0601C84B2AC42EFDB00BFAC421ADBA7
:100A60000020E6E70D48007910B1012810D107E019
:100A70000F488178307820380E4A01FB002909E0C0
:100A80000B488178307820380B4A01FB002901E0BF
:100A90000020CEE700BF4846CBE700002200002040
:100AA000289A0108529A010852AF01085AAF01086A
:100AB0001C00002028940108529D010870B50024F4
:100AC00015E004F1B001C8B200F0F4F9002000F024
:100AD000F1F9102000F0EEF9002504E0002000F00C
:100AE000F1F9681CC5B2802DF8DB601CC4B2082C7B
:100AF000E7DB70BD2DE9FF4F81B0804689460020BD
:100B0000824605460646DDE90301FFF777FF044606
:100B100014B905B0BDE8F08F049820B12348C77818
:100B200090F804B003E02148077890F801B014F879
:100B3000010B0090002634E000252EE0CAF10701E9
:100B4000012088400099084209D009EB0602D1B281
:100B500008EB0502D0B2012200F02CF80CE014489A
:100B60004079012808D109EB0602D1B208EB050251
:100B7000D0B2002200F01EF80AF1010000F0FF0AD6
:100B8000BAF1070F02DC681CB84204DB4FF0000A20
:100B900014F8010B0090681CC5B2BD42CEDB701C7E
:100BA000C6B25E45C8DB00BFB3E700001C000020F2
:100BB00022000020F0B503461446602B00DBF0BD98
:100BC000202900DBFBE7FCB10846CD1701EB55758A
:100BD000ED1005EB45051D4E06EB4515ED5C0A468F
:100BE000CE1701EB5676F610A1EBC6070126BE40E4
:100BF0003543CE1701EB5676F61006EB4606134F3B
:100C000007EB4616F5541EE0CD1701EB5575ED10B8
:100C100005EB45050D4E06EB4515ED5C0A46CE1776
:100C200001EB5676F610A1EBC6070126BE40B54390
:100C30000846CE1701EB5676F61006EB4606034F34
:100C400007EB4616F55400BFB9E700002427002043
:100C50002DE9F04707468846154600243E46C14622
:100C60001CE0285D10F0800F0CD02A1901234946A2
:100C70003046FFF73FFF0C48C078304486B2A01CD6
:100C800084B20BE02A19002349463046FFF732FFB1
:100C900005480078304486B2601C84B2285D002884
:100CA000DFD1BDE8F08700001C00002070B50446CD
:100CB00006490979C1F1200000EBD071C1F34F055D
:100CC0002146284600F004F870BD00001C000020FA
:100CD0002DE9F04107460D460026002410E0A85DEE
:100CE00010F0800F06D01048C078204484B2B01CA9
:100CF00086B205E00C480078204484B2701C86B2AD
:100D0000A85D0028EBD1602C01DB002405E0C4F1D4
:100D1000600000EBD071C1F34F042A4639462046EB
:100D2000FFF796FFBDE8F0811C00002010B5AE2053
:100D300000F0C0F808B9002010BD002000F0BAF89B
:100D4000102000F0B7F8402000F0B4F8B02000F018
:100D5000B1F8812000F0AEF8452000F0ABF8A120FA
:100D600000F0A8F8C02000F0A5F8A62000F0A2F836
:100D7000A82000F09FF81F2000F09CF8D32000F07E
:100D800099F8002000F096F8D52000F093F8802024
:100D900000F090F8D92000F08DF8222000F08AF8B9
:100DA000DA2000F087F8122000F084F8DB2000F051
:100DB00081F8202000F07EF88D2000F07BF81420D0
:100DC00000F078F8AF2000F075F8FFF777FEFFF736
:100DD000E7FD002000F006F8012000F029F80120CE
:100DE000AAE7000010490871097911B1012918D149
:100DF0000AE008210D4A1170102151709170D170D4
:100E00001171202151710CE00C21084A1170182138
:100E10005170302191701821D17011714821517198
:100E200000BF00BF70470000220000201C0000200F
:100E300001494871704700002200002070B5044647
:100E40000D4605F1B001C8B200F034F8102141EAB6
:100E5000141000F02FF804F00F0000F02BF870BD14
:100E600070B505460E460D4800792021A1EB4000E3
:100E7000032190FBF1F084B2FFF792FD2946204652
:100E8000FFF726FF0549097901EB440188B2314695
:100E9000FFF71EFFFFF79CFD70BD00001C00002047
:100EA00010B50446FFF77CFD2046FFF7FFFEFFF775
:100EB0008FFD10BD10B50446782200212046FFF7B3
:100EC000B3FC10BD10B50446782240212046FFF740
:100ED000ABFC10BD70B504460D462B4622464021A2
:100EE0007820FFF7D0FC70BD00BFFEE77047000020
:100EF00070B5002100230F22C4780CB3164C24686F
:100F000004F4E064C4F5E064210AC1F10403CA40BA
:100F1000447804FA03F184781440214309010F4C0A
:100F20000678A155047804F01F050124AC4005782B
:100F30006D114FF0E02606EB8505C5F8004109E08C
:100F4000047804F01F050124AC40054D06787611A5
:100F500045F8264070BD00000CED00E000E400E024
:100F600080E100E0024A0A400243024B1A607047E7
:100F700080FFFF1F08ED00E02DE9F04788B05148E1
:100F8000407800F00700012826D001204D49487024
:100F90004DA14FA0FFF764FF4FF47A7000F0A4FE5C
:100FA000FEF7BAFB0746384605F0A2FB82464B49DE
:100FB00005F088FA044605F0F7F905462A460B467F
:100FC00047A104A8FBF78CFD04A8FFF769FF4FF4C5
:100FD0007A7000F089FE72E0FDF7C7FC01281CD191
:100FE00040214248FEF72BFB4FF400714048FEF7CA
:100FF00026FB002002F018F83EA0FFF751FF4FF447
:101000007A7000F071FE40213848FEF71AFB4FF469
:1010100000713748FEF715FB51E007A8FDF7B3FC58
:10102000012815D1022001F0FFFFBDF81C0005F0DA
:101030005FFB064605F0B8F9044622460B4630A190
:1010400001A8FBF74DFD01A930A0FFF709FF36E02D
:10105000012001F0E9FF00210A20FEF73DFC814656
:10106000484605F045FB82461C4905F02BFA06462A
:1010700005F09AF9044622460B4627A101A8FBF782
:101080002FFD01A8FFF70CFF4FF47A7000F02CFE43
:10109000FEF722F98046404605F02AFB064605F099
:1010A00083F9044622460B461DA104A8FBF718FD50
:1010B00004A8FFF7F5FE4FF47A7000F015FE08B0B3
:1010C000BDE8F0870400002056312E3000000000FB
:1010D000F6EFB3CCB5E7D7D30000000000007A44A8
:1010E000B5E7D4B43A252E31665600000008014019
:1010F00000100140D7DCCFDFB6CCC2B70000000043
:101100003078303120252E3066754100C2A9B5E710
:10111000C1F7B4F300000000252E31665600000030
:10112000252E3066754100002DE9F04105460E463A
:10113000144600271148007818B112202070BDE82D
:10114000F0812878012808D0022807D0032802D08F
:10115000042804D100E000BF00BF00BF02E001206E
:101160002070ECE700BFFBF769FC07466E6138466C
:10117000FBF768FC0020207000BFE0E75D00002066
:1011800010B500F015F801F0B5F801F0DDF801F048
:10119000FDF801F07FF801F08DF901F0B7F901F0E9
:1011A0002FF901F055F900F071FE00F007F810BDBD
:1011B0000020014908807047460000207047000069
:1011C00006480078012808D105480078FF2804D295
:1011D00003480078401C0249087070476A000020EC
:1011E0005D00002010B500241A480078012830D195
:1011F000FBF724FC04461848007820B11648007814
:10120000401E1549087014480078F8B91348007852
:10121000E0B901F0DDF912481249097850F82100CF
:10122000114908600F4800781049097888420DD0AC
:101230000D480068406B401C0B49096848630C4826
:101240000068401C0A490860FBF714FC2046FBF7C5
:10125000F9FB10BD6A0000205D0000205E00002048
:10126000C833002060000020780000205F000020CC
:10127000480000202DE9F04105460E460027204891
:10128000007820B1102030700020BDE8F081FBF71D
:10129000D5FB07461B4850F8250030B13846FBF710
:1012A000D1FB282030700020EFE70120154941F8DC
:1012B0002500154804684CB9002041F8250038463F
:1012C000FBF7C0FB042030702046DEE70E480068C4
:1012D00040680D4908603846FBF7B4FB04202070D5
:1012E000FF2040EA052020810020606007A06061A7
:1012F000204600F0C1FF002030702046C5E7000006
:101300005D000020C83300204C0000203F0000009A
:101310002DE9F74F82B00546174600200190287846
:10132000042804D00120387005B0BDE8F08F86484D
:10133000007810B102203870F6E78448007810B1C8
:101340000D203870F0E7FBF779FB019028894FEA10
:101350002029287AFF281FD1288900F47F4028817E
:1013600028897B49096891F82E100843288178481C
:10137000006868607648006890F82E00484505DCF3
:101380000198FBF75FFB7820387004E00198FBF7C9
:1013900059FB00203870C7E795F808B06C6894F8DE
:1013A0002E0048457EDD6A48006890F82E005845BA
:1013B0007DDA94F83080674810F8080094F831100E
:1013C000084216D0634810F8080094F8311088439A
:1013D000604901F80800084610F8080030B994F890
:1013E00032105D48007888435B4908704FF0010A6D
:1013F00019E0E669AEB194F8308006F10B0010F800
:10140000080094F83110884306F10B0101F8080038
:10141000084610F8080020B9B07A94F832108843D2
:10142000B0724FF0000A04F82E9F2078C010A07010
:10143000207800F007006070A178012088402071BA
:10144000617801208840E070A4F12E04BAF1010F08
:1014500013D104F13004A0783F49097840EA010033
:101460003D49087020783B49085C617840EA0100FA
:1014700014F83019374A505416E0E669A6B1B07A2C
:1014800004F13004A17840EA0100B072217806F13D
:101490000B00405C617840EA010014F8302906F145
:1014A0000B0100E003E088542C4840F8294028480C
:1014B000006890F82C0040F010002549096881F878
:1014C0002C004FF000002249096881F82D002049C6
:1014D000039809688862284600F090FE0198FBF79F
:1014E000B1FA01F03BF8FBF7A9FA0190184800683F
:1014F00090F82D0020B1012809D0022806D102E081
:10150000002038700BE00E20387008E000BF29463C
:101510000F48006800F03EFE0A20387000BF00BF90
:1015200000200B49096881F82C000949096881F8F5
:101530002D0007490968C8610549096808620198D2
:10154000FBF780FA00BFEFE65D0000205E000020A0
:10155000700000206200002061000020C8330020DD
:101560002DE9F041044600272C48007810B10520F1
:10157000BDE8F0812078042801D00120F8E7FBF7CE
:101580005DFA074620890612257A254960680968B0
:10159000884204D03846FBF755FA6420E8E7204833
:1015A000006890F82E00B04204D129461C4800681B
:1015B00000F03AF801201B4941F82600A07A08B350
:1015C000002310221946204600F09AFD0546208986
:1015D00000F47F402081208928432081114850F861
:1015E00025006060B54206DC3846FBF72BFA00F0B8
:1015F000B5FF7820BCE73846FBF724FA00F0AEFFD1
:101600000020B5E7208940F0FF00208100206060C5
:101610003846FBF717FA0020AAE700005D0000201B
:1016200070000020C833002030B590F830201B4BEC
:101630009B5C90F83140A343184CA35423469B5C19
:1016400033B990F83240164B1B78A343144C2370E7
:1016500000F82E1F134B1970C1F3C203837001F001
:101660000703437084780123A34003714478012366
:10167000A340C37003790A4C24782343084C237099
:101680008378064CE35CC47823438478A0F12E0071
:10169000024D2B55044B43F8210030BD6200002061
:1016A000610000205F000020C833002010B5002436
:1016B0000B480078012811D1FBF7C0F9044609480E
:1016C000007840B908480078FF2804D2064800781E
:1016D000401C054908702046FBF7B4F910BD000016
:1016E0006A0000205D0000205E00002010B500248C
:1016F00013480078012821D1FBF7A0F904461148CE
:101700000078C0B10F480078401E0E4908700846A6
:10171000007860B90C48007828B92046FBF792F9A8
:1017200000F01CFF0AE02046FBF78CF906E020469B
:10173000FBF788F902E02046FBF784F910BD0000B2
:101740006A0000205E0000205D00002070B50546A4
:1017500000261048007808B1002070BDFBF76EF934
:1017600006460D480468006820B10B4800684068D0
:10177000094908603046FBF765F94CB10320207039
:1017800025810020606005A06061204600F074FDA6
:101790002046E2E75D0000204C0000203F000000F2
:1017A0002DE9F04105460E46144600272878032807
:1017B00003D001202070BDE8F0813248007810B1DC
:1017C00002202070F7E73048007810B10D2020701B
:1017D000F1E7FBF733F90746288940B12889401E15
:1017E00028813846FBF72EF900202070E3E72748D0
:1017F000006890F82C0040F001002449096881F845
:101800002C0000202149096881F82D001F4800683C
:101810008662284600F0F2FC3846FBF713F900F028
:101820009DFEFBF70BF907461848006890F82D005D
:1018300020B1012809D0022806D102E00020207042
:101840000BE00E20207008E000BF29460F4800681A
:1018500000F0A0FC0A20207000BF00BF00200B4950
:10186000096881F82C000949096881F82D000749A9
:101870000968C8610549096808623846FBF7E2F85B
:1018800000BF98E75D0000205E000020700000208F
:1018900070B5044600252078032801D0012070BDD2
:1018A000FBF7CCF80546A07A60B100230122194667
:1018B000204600F025FC2846FBF7C4F800F04EFE59
:1018C0000020ECE720894FF6FF71884207D220897B
:1018D000401C20812846FBF7B5F80020DFE72846AA
:1018E000FBF7B0F83320DAE710B50B48007890B971
:1018F00000F06EFE09480078094908700948074958
:10190000097850F82100084908600846006807492E
:101910000860FBF79AF810BD6A0000206000002004
:101920005F000020C83300207800002070000020F5
:10193000704700002DE9F04F85B081468A469346F6
:101940001C46DDE90F78129D00200390FBF776F826
:1019500003902348007830B10398FBF773F83C20DC
:1019600005B0BDE8F08F1F4850F8240088BB012067
:101970001C4941F824000398FBF764F82A464146C5
:10198000384600F04FFF2B465A465146484600F075
:1019900007F904901198CDE9008002953A46204657
:1019A0000E9B049900F02AFE064636B90E480078D0
:1019B00001280CD100F0D2FD09E0FBF73FF80390BD
:1019C0000020084941F824000398FBF73BF8304613
:1019D000C6E7FFE70398FBF735F82820C0E70000CB
:1019E0005D000020C83300206A0000207047704767
:1019F0002DE9F04106460F4614464FF00008154801
:101A0000007818B112202070BDE8F081FBF716F8BD
:101A10008046FF2E03D11048006890F82E600F48D2
:101A200050F826502DB94046FBF70CF843202070A3
:101A3000EAE7012D05D14046FBF704F8432020706A
:101A4000E2E7AF644046FAF7FDFF0020207000BFD8
:101A5000DAE700005D00002070000020C83300209D
:101A600070B505460026FAF7E9FF0646244850F807
:101A7000254024B93046FAF7E5FF462070BD012C19
:101A800004D13046FAF7DEFF4320F7E794F82C0044
:101A900010F0080F2FD014F82C0F00F0F700207072
:101AA00014F82C0910BBA06AE0B904F13004A07846
:101AB0001449097840EA0100124908702078124957
:101AC000085C617840EA010014F830190E4A50545D
:101AD0003046FAF7B7FF0D480078012809D100F029
:101AE0003DFD06E03046FAF7ADFF02E03046FAF77A
:101AF000A9FF0020C2E73046FAF7A4FF4420BDE763
:101B0000C833002061000020620000206A0000202D
:101B1000704700002DE9F04707460D464FF0000AD8
:101B2000002028606860FAF789FF8246FF2F03D102
:101B30001948006890F82E70184850F827402CB9C2
:101B40005046FAF77FFF4320BDE8F087012C04D10F
:101B50005046FAF777FF4320F6E7207C10F0010F9C
:101B600004D15046FAF76EFF4520EDE70026D4F881
:101B70000C90D4F808805046FAF764FF00E0761C19
:101B800058F8041B0029FAD0B0002860A9EB060021
:101B9000800068600020D7E770000020C833002074
:101BA00070B5044610464FF080750560051F284645
:101BB0002C606FF00106051F28462E604FF012368C
:101BC000051F28462E604FF00336051F28462E605D
:101BD0004FF00236051F28462E607610051F284656
:101BE0002E60051F284629604FF01136051F284634
:101BF0002E604FF01036051F28462E604FF0093634
:101C0000051F28462E604FF00836051F28462E6017
:101C10004FF00736051F28462E604FF00636051F89
:101C200028462E604FF00536051F28462E604FF0DF
:101C30000436051F28462E6070BD00002DE9F041D6
:101C400005464FF00008FAF7F9FE8046FF2D05D152
:101C50002048006890F82E50012608E01D480068D2
:101C600090F82E00A84201D1012600E000261A4873
:101C700050F825402CB94046FAF7E4FE4820BDE86C
:101C8000F081012C04D14046FAF7DCFE4320F6E750
:101C900094F830701148C05D94F8311088430F49B2
:101CA000C8550846C05D30B994F832100C48007829
:101CB00088430B49087094F82C0040F0080084F821
:101CC0002C004046FAF7BEFE012E01D100F046FC82
:101CD0000020D4E770000020C833002062000020FC
:101CE000610000207047000070B5054600261748C7
:101CF000007800B170BD1648007800B1FAE71DB356
:101D0000FAF79CFE06461348006890F830401248E7
:101D1000005D1049096891F8311088430E49085553
:101D20000846005D40B90B48006890F832100B4837
:101D30000078884309490870064800688562304683
:101D4000FAF780FE00F00AFC00BFD3E75D00002038
:101D50005E00002070000020620000206100002072
:101D600070B5002600F076F8FAF768FE06463348AC
:101D70000068401C314908603046FAF763FE30487D
:101D80000078012857D12F48007820B1012804D0CD
:101D9000022809D103E001250BE0002509E0012517
:101DA00001202849087004E0012500202549087019
:101DB00000BF00BF05B970BD2348046837E0FAF7DB
:101DC0003DFE0646A06A70B3A06A401EA062A06AEB
:101DD00048BB94F82C0010F0370F09D014F82C0FE2
:101DE00000F0C800207001206070A4F12C0402E013
:101DF000002084F82D0094F82C0010F0080F12D168
:101E000004F13004A0781149097840EA01000F4933
:101E1000087020780E49085C617840EA010014F8E7
:101E200030190B4A505464693046FAF70BFE94F8A7
:101E30002E003F28C3D100BFBDE700008C0000206A
:101E40006A000020800000207C000020610000204B
:101E50006200002010B507480088401C0549088032
:101E600008460088642803D30020088000F004F8A6
:101E700010BD00004600002010B503480068FFF7C1
:101E800007FD0446204610BD9C000020F8B54FF425
:101E90002071284800F004FB4021274800F000FB97
:101EA000002514E0681C86B205EB8500214901EB92
:101EB000C00406EB860001EBC00764202070002000
:101EC00084F82500E7601DA02062681C85B20F2DF4
:101ED000E8D305EB8500174901EBC00464202070AE
:101EE000002084F82500E06014A02062002014493E
:101EF0000860144908801020134908800D481349D0
:101F000008600120FFF722FC114908600020FFF75C
:101F10001DFC104908606A460FA10D480068FFF7D4
:101F200003F96A4611A10B480068FFF7FDF800F0BD
:101F300027F8F8BD803C0020004100203F00000051
:101F4000940000209200002090000020A0000020BB
:101F5000980000209C00002075432F4F532D4949C5
:101F600020546D724C6F636B0000000075432F4F5F
:101F7000532D494920546D725369676E616C00009E
:101F800000B587B00320002180220A4BCDE9013241
:101F9000CDE903104FF6FD703D23074A0090074836
:101FA000FFF7C8FC06AA06A13D20FFF721FD07B0F8
:101FB00000BD0000003F0020FC4000203D20010843
:101FC00075432F4F532D494920546D720000000076
:101FD00070B50B46032580F82550012B05D1154E11
:101FE000C5693668354445610CE085692DB9114EE7
:101FF000C56936683544456104E00E4E856936682A
:1020000035444561057D05F007040B4D05EBC40122
:102010000D682DB908600025C56001258D8006E09A
:102020000A680860C26010618D886D1C8D80002573
:10203000056170BD940000200041002008B500BF7C
:1020400000BF6A4600211A480068FFF7A9FBFFF7A6
:102050002DFB18480068401C1649086008460078A7
:1020600000F00708144800EBC8073C681AE0E6686F
:10207000104960690968884213D1204600F01EF8B3
:1020800094F82400022804D101212046FFF7A0FF84
:1020900002E0022084F82500656815B12046A16899
:1020A000A8473446002CE2D1FFF720FBC9E7000027
:1020B0009C000020940000200041002030B5057DE8
:1020C00005F007040D4D05EBC4031D68854205D1DD
:1020D000C168196039B100250D6104E00169C26869
:1020E000CA6002B11161012580F825500025C56044
:1020F00005619D886D1E9D8030BD0000004100205F
:102100002DE9F04F05460F4690469946A87A1D499D
:102110000E5C05F10B00805D11F800B00BEBC60002
:1021200000F0FF0A184850F82A40002004F1240467
:1021300060602760207A20EA0800207284F8099005
:10214000207AA4F1240410F0080F0DD194F8320085
:102150000E49097808430D4908700D48805D94F8D0
:10216000311008430A4988552946204600F012F8E4
:10217000206A20B12046216A00F021F8E56150462E
:10218000BDE8F08FFBB00108C833002061000020DB
:102190006200002010B590F8302001F10B039B5C29
:1021A00090F83140A34301F10B04A35423469B5CF8
:1021B00023B98B7A90F83240A3438B7210BDF0B5EF
:1021C000024612F8304F95785678A2F130020B464D
:1021D00018680FE000F10B073F5DB74300F10B0CEF
:1021E0000CF8047067463F5D17B9877AAF43877272
:1021F0001B1D18680028EDD1F0BD000010B51B4A6A
:102200001268D061194A126892F8303000F10B025E
:10221000D25C164B1B6893F831301A43134B1B6882
:1022200093F8304000F10B031A55827A0F4B1B686C
:1022300093F832301A4382720C4A126892F83010C6
:102240000B4A525C094B1B6893F831309A43084B98
:102250005A541A46525C42B9044A126892F8323013
:10226000044A12789A43034B1A7010BD7000002084
:102270006200002061000020014600228A720020D6
:1022800005E0002301F10B021354421CD0B20828D0
:10229000F7D3704770B5F021134800F001F900241E
:1022A00011E0601C85B204EB44000F4901EBC00350
:1022B00005EB450001EBC006002018705E600BA026
:1022C0005861601C84B2092CEBD304EB440006492E
