:020000040800F2
:10C80000709600209DCA000825FA0008C5F60008A9
:10C8100021FA0008F9DB0008593F01080000000078
:10C820000000000000000000000000000D180108DA
:10C8300049DC0008000000003BCA00084924010848
:10C84000B7CA0008B7CA0008B7CA0008B7CA0008C4
:10C85000B7CA0008B7CA0008B7CA0008B7CA0008B4
:10C86000B7CA0008B7CA0008B7CA0008B7CA0008A4
:10C87000B7CA0008B7CA0008B7CA0008B7CA000894
:10C88000B7CA0008B7CA0008B7CA0008B7CA000884
:10C89000B7CA0008B7CA0008B7CA0008D5EC000834
:10C8A000B7CA0008B7CA0008B7CA0008B7CA000864
:10C8B00065250108C5260108E9260108B7CA000850
:10C8C000B7CA0008B7CA0008B7CA0008B7CA000844
:10C8D000B7CA0008E12C0108B7CA0008AD2D01084D
:10C8E000B7CA0008B7CA0008B7CA0008B7CA000824
:10C8F000B7CA0008B7CA0008B7CA0008B7CA000814
:10C90000B7CA0008B7CA0008B7CA0008B7CA000803
:10C91000B7CA0008B7CA0008B7CA0008B7CA0008F3
:10C92000B7CA0008B7CA0008B7CA0008B7CA0008E3
:10C9300000F002F800F051F80AA090E8000C8244E0
:10C940008344AAF10107DA4501D100F046F8AFF2BD
:10C95000090EBAE80F0013F0010F18BFFB1A43F0DD
:10C9600001031847B8090100D8090100103A24BF93
:10C9700078C878C1FAD8520724BF30C830C144BF44
:10C9800004680C6070470000002300240025002686
:10C99000103A28BF78C1FBD8520728BF30C148BF22
:10C9A0000B607047642900F00181752900F0FE805A
:10C9B000782900F03781732900F0AF840020704798
:10C9C0001FB500F0EDFE0400002000210CF066FD14
:10C9D000401C60601FBD10B510BD00F0A9FE1146DF
:10C9E000FFF7EEFF0CF05EFB00F0D0FE03B4FFF7A4
:10C9F000F2FF03BC00F018FFEFF3108072B670472F
:10CA000080F3108870471D484FF0FF01017000202F
:10CA100080F309881A48012101701A484FF08051AB
:10CA2000016062B6FEE717484FF080510160704721
:10CA300014484FF080510160704772B6EFF30980DF
:10CA400028B1203880E8F00F0F490968086000B568
:10CA50000E4880475DF804EB0D480E490A780270D5
:10CA600009480D490A680260106890E8F00F20300C
:10CA700080F309884EF0040E62B6704722ED00E0A4
:10CA80006E00002004ED00E074000020D1050108D4
:10CA900063000020640000207C00002009488047DB
:10CAA00009480047FEE7FEE7FEE7FEE7FEE7FEE790
:10CAB000FEE7FEE7FEE7FEE704480549054A064BA8
:10CAC000704700000525010831C900087066002084
:10CAD0007096002070760020707600200FB41CB590
:10CAE000084B06AA7B4469460090059800F0EBFBD2
:10CAF00004460020694600F0F9FB20461CBC5DF8A6
:10CB000014FB00000508000070B504468569006844
:10CB1000C10601D5302600E02026C00708D070BD30
:10CB2000D4E9012130469047206A00F101002062DB
:10CB30006D1EF5D570BD70B5044685690078C007D7
:10CB400008D170BDD4E9012120209047206A00F16E
:10CB5000010020626D1EF5D570BD70B50C4605460E
:10CB6000012A05D02878800600D5EA69002302E072
:10CB7000012305E05B1C934202D2E05C0028F9D15E
:10CB8000A869E618C01AA861286A184428622846CD
:10CB9000FFF7BAFF04E0D5E9012114F8010B904733
:10CBA000B442F8D32846FFF7C6FF70BD2DE9F04127
:10CBB0000646002410687529314616A511D0AFF33A
:10CBC0000080002803DAC0F1000013A507E03168F7
:10CBD0008A0701D511A502E0490704D510A5012453
:10CBE00001E0AFF3008000210A2306F1240707E0EB
:10CBF000B0FBF3F203FB1200303078541046491CAE
:10CC00000028F5D123462A463046BDE8F04100F021
:10CC1000F8BA0000000000002D0000002B0000000A
:10CC20002000000070B504460D4621461068AFF3A1
:10CC300000802188090502D5104A7A4402E00F4A93
:10CC40007A440E32002104F1240307E000F00F06BD
:10CC50004FEA1010965D5E5401F101010028F5D1F4
:10CC600003462078000704D5702D02D009B1113297
:10CC700002232046BDE8704000F0C3BAA2060100BE
:10CC80002DE9F05F894604464FF0000ADFF828B12D
:10CC9000FB44C0F820A02046E168884700287CD0EB
:10CCA000252806D0D4E901219047206A401C206243
:10CCB000F1E700255F462046E168884720280646C0
:10CCC00008DB312E06D207EB060010F8200C08B165
:10CCD0000543F0E7A80701D525F00405C4F81CA01A
:10CCE0000027C4F818A02A2E09D0304608F02EFBE1
:10CCF00038B304EB8708303EC8F8186019E059F8DB
:10CD0000041B204604EB87029161E1688847012FEC
:10CD1000064618D1E069002820DA25F020051DE03C
:10CD2000D8F8180000EB800006EB40003038C8F857
:10CD300018002046E1688847064608F007FB0028EF
:10CD4000EED1012F0AD02E2E08D12046E168884767
:10CD50007F1C0646022F45F02005C4DBA069002891
:10CD600003DA404245F00105A061E80701D025F053
:10CD7000100596B1A6F14100192802D8203645F4D5
:10CD800000654A463146204625604D46FFF70AFEBB
:10CD900060B1012807D0ED1D00E009E025F0070093
:10CDA00000F1080977E705F1040974E7304679E7EF
:10CDB000206ABDE8F09F0000740601000FB400B5C2
:10CDC0008DB010A9099000910B904FF0FF300A90A0
:10CDD00000200C90064878440690064878446A463D
:10CDE00007900F9909A800F0B1FA0DB05DF814FB97
:10CDF00093050000AB0500002DE9FF5F1D464FF0D5
:10CE0000FF3B91464FF000085F46D5E90146A9690E
:10CE100001987F1C8847296A824688470028F6D1F6
:10CE20001AF101000CD0002E24F4C06419DD600654
:10CE300014D5BAF12B0F09D0BAF12D0F0ED103E0A2
:10CE4000584604B0BDE8F09F44F48064A969019895
:10CE50007F1C8847761E8246002E02DDBAF1300F15
:10CE600003D0B9F1000F26D032E0A969761E0198EF
:10CE70007F1C44F400748847002E824605DDBAF119
:10CE8000780F06D0BAF1580F03D0B9F1000F10D0C7
:10CE90001EE0B9F1000F02D0B9F1100F18D1A96945
:10CEA000761E01987F1C24F4007488478246102067
:10CEB00002E0082000E00A20814609E0A96908FB99
:10CEC0000908761E01987F1C44F400748847824646
:10CED000002E05DD4946504600F023FA0028EDDA21
:10CEE000E96901988847A00502D46FF00100A8E71E
:10CEF000E00727D1600614D5600502D5C8F100000F
:10CF000000E04046296801F104022A600968220510
:10CF100001D5087016E0220701D5088012E00860EC
:10CF200010E0286800F1040129600068210502D59D
:10CF300080F8008006E0210702D5A0F8008001E01B
:10CF4000C0F8008038467CE740EA010310B59B0733
:10CF50000FD1042A0DD310C808C9121F9C42F8D063
:10CF600020BA19BA884201D9012010BD4FF0FF3014
:10CF700010BD1AB1D30703D0521C07E0002010BD2A
:10CF800010F8013B11F8014B1B1B07D110F8013BB6
:10CF900011F8014B1B1B01D1921EF1D1184610BD97
:10CFA00040EA0103024630B59B0710D14FF001342F
:10CFB00000E008C208C91D1B9D4315EAC41FF8D034
:10CFC00013F0FF0102F8011B0DD01B0AF8E711F85E
:10CFD000013B002B02F8013B05D011F8013B002B6F
:10CFE00002F8013BF3D130BD10B5431C02E010F84C
:10CFF000011B71B18107FAD14FF0013202C88C1ABE
:10D000008C4314EAC211F9D0C01A0A0603D0C01E1C
:10D0100010BDC01A10BD0A0401D0801E10BD090247
:10D02000FCD0401E10BD032A40F2308010F0030CEB
:10D0300000F0158011F8013BBCF1020F624498BF6B
:10D0400011F801CB00F8013B38BF11F8013BA2F108
:10D05000040298BF00F801CB38BF00F8013B11F083
:10D06000030300F02580083AC0F0088051F8043B23
:10D07000083A51F804CBA0E80810F5E7121D5CBF90
:10D0800051F8043B40F8043BAFF30080D20724BFC3
:10D0900011F8013B11F801CB48BF11F8012B24BF57
:10D0A00000F8013B00F801CB48BF00F8012B7047A6
:10D0B00010B5203AC0F00B80B1E81850203AA0E833
:10D0C0001850B1E81850A0E81850BFF4F5AF5FEA67
:10D0D000027C24BFB1E81850A0E8185044BF18C91A
:10D0E00018C0BDE810405FEA827C24BF51F8043BC1
:10D0F00040F8043B08BF7047D20728BF31F8023B15
:10D1000048BF11F8012B28BF20F8023B48BF00F8A8
:10D11000012B70474FF000020429C0F0128010F07C
:10D12000030C00F01B80CCF1040CBCF1020F18BF03
:10D1300000F8012BA8BF20F8022BA1EB0C0100F096
:10D140000DB85FEAC17C24BF00F8012B00F8012B69
:10D1500048BF00F8012B70474FF0000200B513469E
:10D1600094469646203922BFA0E80C50A0E80C5007
:10D17000B1F12001BFF4F7AF090728BFA0E80C50B8
:10D1800048BF0CC05DF804EB890028BF40F8042BB1
:10D1900008BF704748BF20F8022B11F0804F18BF1E
:10D1A00000F8012B704710B5044610F0030F08BFBC
:10D1B00011F0030F40F015804FF0013E121FC0F236
:10D1C0000E8051F8043BA3EB0E0C2CEA030C1CEA76
:10D1D000CE1C08BF40F8043BF0D0A1F1040102F1DD
:10D1E0000402521E08DB11F8013B002B00F8013B42
:10D1F000F7D11146FFF78EFF204610BD70477047EC
:10D2000070472DE9F0470D4699469246044600F1D5
:10D2100024080168880604D5E06921F01001216026
:10D2200000E00120A84202DDA0EB050700E0002796
:10D23000A16907EB050202EB0900A1EB0000A06168
:10D240002078C00602D42046FFF75EFC002608E0E6
:10D25000D4E901211AF806009047206A401C761C88
:10D2600020624E45F4DB2078C0060AD52046FFF741
:10D270004BFC06E0D4E9012130209047206A401C95
:10D280002062381EA7F10107F4DC07E0D4E9012190
:10D2900018F805009047206A401C2062281EA5F15E
:10D2A0000105F3DC2046FFF746FC2078000602D596
:10D2B0000220BDE8F0870120FBE7000001694A1C5D
:10D2C00002610878704700B58FB0CDE901310021C7
:10D2D000059105497944CDE9031011466846FFF7E9
:10D2E000CFFC0FB000BD0000E5FFFFFF0A6802F8A9
:10D2F000010B0A60704710B5436913B1AFF30080AA
:10D3000001E0FFF72AFC012010BD127800F1240192
:10D310000A7000224A700122EDE711684FF0FF32D7
:10D32000E9E73A2800D2303820F02002412A01D320
:10D33000A2F13700884201D34FF0FF307047000060
:10D34000026811441378016018467047D16005499E
:10D3500079445161044979441162002111611146F7
:10D3600000F02EB8EDFFFFFF53000000426842B10D
:10D37000016811F8013B23B1521EC0E900121846A2
:10D3800070470121C160881E704742685AB1C36866
:10D39000016843B983688B4205D0491E521CC0E91D
:10D3A0000012002070474FF0FF30704710B5044660
:10D3B00000F0E4F90068005D00F0010010BD00001D
:10D3C0002DE9F34F4FF0000A0C4656468DB0012070
:10D3D0000C9001F10C000B9062690B9801219047B1
:10D3E00005002DD0252D2CD0216A8847C0B1626957
:10D3F0000B9801219047216A88470028F7D162697C
:10D40000411E0B98904700E0761CA1690D98884753
:10D41000216A88470028F7D1E1690D988847DBE742
:10D42000A1690D988847A842074601D1761CD3E729
:10D43000E1690D9888477F1C02D1BAF1000F6FD0C7
:10D440006AE162690B9800273D46394690472A28D1
:10D4500004D162690B98012190470125DFF8CC8245
:10D4600062690B9801219047A0F130010A290AD284
:10D470004745E5DC07EB870100EB4107303FDFD490
:10D4800045F01005ECE7E90601D46FF000476C2881
:10D490000AD04C2814D0682815D06A280DD07428DA
:10D4A0001CD07A281AD01DE062690B9801219047A0
:10D4B0006C2802D045F0040514E045F002050DE0AB
:10D4C00045F020050AE062690B9801219047682821
:10D4D00002D045F0080505E045F4006562690B9847
:10D4E00001219047C4E9015765283DD019DC58282F
:10D4F00079D00CDC452837D004DC252826D04128FB
:10D500009ED131E046282FD0472899D12CE05B28C6
:10D510007FD0612828D063287BD0642890D159E03F
:10D52000F5E06F2847D008DC66281DD067281BD09F
:10D53000692821D06E2816D127E0702844D073289E
:10D5400067D0752846D078280DD14CE0A1690D9898
:10D550008847252805463FF469AFE1690D9888475B
:10D560006D1C3FF46AAFD7E00D9923466A466FF011
:10D570000100AFF30080C4E045F0400023464FF0C7
:10D5800000026060A80735D43DE0206800F1040186
:10D5900021600068290501D506701DE7290701D51E
:10D5A000068019E7A90704D54FEAE671C0E90061D2
:10D5B00012E7066010E745F0400023464FF00802EE
:10D5C0006060A80716D41EE040F60E0125EA0100AF
:10D5D000606016E045F0400023464FF00A026060AC
:10D5E000A80707D40FE045F040006060A80708D501
:10D5F000234610220D996FF00100AFF3008080E008
:10D6000007E0102223460D996FF00100FFF7F4FBAD
:10D6100077E04FF0000963284F46C8464B46CB469B
:10D6200002D05B2806D038E0E80601D40120A060D3
:10D63000012732E06269D4F80CB00B9801219047C1
:10D640005E2807D14FF0010949466269D4F80CB051
:10D650000B989047216939B900210B4603AA42F87B
:10D660002130491C0829FADBD8B3216949B308F1F4
:10D67000010862690B98012190475D28F4D1B9F146
:10D68000000F09D0002003A951F82020D24341F80F
:10D690002020401C0828F7DB03AB206900282079F4
:10D6A0004FEA40701ED05B462246CDF80080CDE99F
:10D6B00001970D9900286FF0010020DAAFF3008088
:10D6C0001FE0C11700EBD16203A9531122F01F0222
:10D6D00001EB8301821A0B680120904003430B6029
:10D6E000C7E719E00D99224600286FF00100009766
:10D6F00002DAAFF3008004E0AFF3008001E0AFF3A3
:10D70000008000280ADA401C06D10C9820B14FF0A6
:10D71000FF300FB0BDE8F08F5046FAE7E90701D1BE
:10D720000AF1010A064400200C9055E6CCCCCC0C42
:10D73000754600F031F8AE4605006946534620F0C4
:10D740000700854618B020B5FFF7B6F9BDE82040C0
:10D750004FF000064FF000074FF000084FF0000BAD
:10D7600021F00701AC46ACE8C009ACE8C009ACE860
:10D77000C009ACE8C0098D467047000010B500F044
:10D780000FF8001D10BD00BF15BD00000446AFF32B
:10D7900000802046FFF72AF9004870470C660020F9
:10D7A000004870472C6600204FF0013C50F8042BD5
:10D7B00051F8043B9A4221D1A2EB0C03934313EAA4
:10D7C000CC1317D150F8042B51F8043B9A4215D1D1
:10D7D000A2EB0C03934313EACC130BD150F8042BA8
:10D7E00051F8043B9A4209D1A2EB0C03934313EA8C
:10D7F000CC13DBD04FF00000704700BFD01A01BA45
:10D80000B1FA81F101F0180122FA01F0CB40C1F127
:10D810002001DBB2C0B2C01A2CFA01F3D11A914335
:10D8200011EAC311E6D1704701491820ABBEFEE7EB
:10D83000260002007047CA430260704721B1826827
:10D8400042F00102826003E0826822F001028260FD
:10D850007047014600208A6812F0040F01D00120B1
:10D8600000E0002070470146C86C80B27047024655
:10D87000002013680B4201D0012000E00020704717
:10D88000014600208A6812F0080F01D0012000E054
:10D890000020704730B502460020002350680F4C2E
:10D8A00020400D790C6844EA0524204350609068BC
:10D8B0000B4C2040D1E902542C434D7944EA4504F5
:10D8C00020439060D06A20F470000C7C641EE4B2A7
:10D8D000234340EA0350D06230BD0000FFFEF0FF5A
:10D8E000FDF7F1FFF0B504460D4600200021092D9B
:10D8F00011DDE068A5F10A0606EB4607072606FAE1
:10D9000007F18843A5F10A0606EB460603FA06F17D
:10D910000843E0600CE0206905EB4507072606FA9E
:10D9200007F1884305EB450603FA06F10843206139
:10D93000072A0FDA606B561E06EB86071F2606FACB
:10D9400007F18843561E06EB860605FA06F10843E2
:10D95000606322E00D2A0FDA206BD61F06EB8607E4
:10D960001F2606FA07F18843D61F06EB860605FA3E
:10D9700006F10843206310E0E06AA2F10D0606EB11
:10D9800086071F2606FA07F18843A2F10D0606EB6B
:10D99000860605FA06F10843E062F0BD816841F0B1
:10D9A00008018160704721B1826842F4A002826060
:10D9B00003E0826822F4A00282607047816841F02F
:10D9C000040181607047000000B587B001214FF469
:10D9D000047003F00FFD01208DF81A0000208DF86F
:10D9E0001B000420ADF8180006A9244801F0F8FA3D
:10D9F0000820ADF8180006A9204801F0F1FA01202E
:10DA0000ADF8180006A91D4801F0EAFA0220ADF8A9
:10DA1000180006A9194801F0E3FA4FF4004003F09A
:10DA2000BDFC0020019001208DF8080000208DF839
:10DA300009004FF4602003900020049001208DF82D
:10DA4000140001A90E48FFF725FF01210C48FFF73C
:10DA5000F5FE0B48FFF7A2FF00BF0948FFF710FFD4
:10DA60000028FAD10648FFF7A9FF00BF0448FFF7D6
:10DA7000F0FE0028FAD107B000BD00000010014000
:10DA80000024014008B50848006828B96946072005
:10DA900002F0BEF8044908606A46002102480068A6
:10DAA00002F004F908BD00002800002010B502486B
:10DAB000006802F023FA10BD2800002004F0CCFC1E
:10DAC00001F002FE18BB01213A4801F066FB022179
:10DAD000384801F062FB4FF40041364801F05DFB2D
:10DAE00014E034480C30006880F0010031490C31FA
:10DAF00008600846006880F0020008600846006878
:10DB000080F400400860642004F0E8FCE9E70021AC
:10DB1000192004F085FF0021172004F081FF002068
:10DB2000254908801020887042E0012002F052FD53
:10DB30002148008800283BDD1F488078102837D115
:10DB400002F0B4FD1D490968401A052830D911209A
:10DB5000194988700022114619A006F0E5FA164806
:10DB600001880222C01C06F0DFFA1949124806F0AB
:10DB70005DF817480088002810DD0022114615A026
:10DB800006F0D2FA124801880222C01C06F0CCFA34
:10DB90000F480188C01C06F087F804E000221146F7
:10DBA00010A006F0C1FA00200349088010208870F8
:10DBB000BBE70000000801409C3700200C0000205B
:10DBC000D6F7B4AEBFDACAD5B5BDCAFDBEDD3A00E0
:10DBD000A03B0020D6F7B4AEBFDACFECD3A6CAFD87
:10DBE000BEDD3A00D6F7B4AEBFDAB2BBCFECD3A6F7
:10DBF000CAFDBEDD0000000000BFFEE710B5024612
:10DC00004FF0FF3008E012F8013BC4B26340054C0E
:10DC100054F8233083EA10200B00A1F10101F2D166
:10DC2000C04310BDE0CD010810B502F00DFA182177
:10DC30000448FFF791FAF0200249088002F024FA24
:10DC400010BD00007C2F00207047000010B5044676
:10DC50000C48407808B9002010BD01F089F923462E
:10DC600009A20BA10D48FEF739FF0C480AF0EBFDA5
:10DC700018B101F08DF90020EEE701F089F90120DB
:10DC8000EAE7000014000020303A4C4F4700000043
:10DC900025732F25642E7478740000001C05002065
:10DCA000F8B505460027032600BF06F045FC3220E4
:10DCB00002F090FC06F040FC322002F08BFC287948
:10DCC00006F002FC002301221946184602F0BEFCB1
:10DCD0006946686807F000FA04460CB9172708E09F
:10DCE0000421BDF8000007F060F808B9182700E02B
:10DCF00000271CB9701EC0B20600D6D13846F8BD48
:10DD0000F8B50446D4E9010107F0E8F80646012E0B
:10DD100001D11A20F8BD0EB13220FBE7207906F0C0
:10DD2000EFFB207906F0ECFBFA2002F053FC41F205
:10DD3000883006F013F96946606807F0CDF90546AA
:10DD40000DB91B20E6E70521BDF8000007F02DF80E
:10DD500008B91C20DEE70020DCE77CB504460D4650
:10DD6000E0B28DF80000200A8DF80100200C8DF83B
:10DD70000200200E8DF80300E8B28DF80400280A96
:10DD80008DF80500280C8DF80600280E8DF8070088
:10DD90000721684601F0B2FAC043C6B29DF80700F9
:10DDA000B04201D101207CBD0020FCE710B500206D
:10DDB00001F0B4FA044602F047F90B48048202F07D
:10DDC00063F90948008A09498988884201DD0120F0
:10DDD00010BD0548008A05494988884201DA0220B9
:10DDE000F6E70020F4E700007C2F0020602F0020E1
:10DDF000014607484069884201D214207047044810
:10DE00000069884201D91320F8E70020F6E70000F6
:10DE1000602F002010B5002001F080FA044602F0C7
:10DE200013F90B48848202F02FF90948808A0949C6
:10DE30004989884201DD212010BD0548808A0549B5
:10DE40000989884201DA2020F6E70020F4E7000083
:10DE50007C2F0020602F002010B5002001F05EFA1A
:10DE6000044602F0F1F80B48C48202F00DF90948AB
:10DE7000C08A09494989884201DD112010BD054841
:10DE8000C08A05490989884201DA1020F6E7002096
:10DE9000F4E700007C2F0020602F00201FB5012137
:10DEA0001D2003F0A7FA4FF40040ADF80C0003204A
:10DEB0008DF80E0010208DF80F0003A9354801F0F1
:10DEC0008FF84FF48040ADF80C0003208DF80E0061
:10DED00010208DF80F0003A92E4801F081F84FF4AF
:10DEE00000412C4801F059F94FF48041294801F0D4
:10DEF00054F90821022001F053F84FF48070ADF876
:10DF00000C0003208DF80E0004208DF80F0003A9EB
:10DF1000214801F065F84FF48070019000208DF8E1
:10DF200008000C208DF8090000208DF80A0001A8D7
:10DF300000F026FF17208DF8000000208DF801006A
:10DF40008DF8020001208DF80300684601F06CFD99
:10DF50004FF40070ADF80C0003208DF80E00102077
:10DF60008DF80F0003A90C4801F03AF84FF48070C7
:10DF7000ADF80C0003A9094801F032F84FF4007124
:10DF8000054801F008F94FF48071044801F003F9E5
:10DF90001FBD0000000C01400010014000080140BE
:10DFA0002DE9F04100240221684801F0F4F84FF413
:10DFB0000071674801F0EFF84FF40041654801F047
:10DFC000ECF84FF48041634801F0E7F8FFF72CFECE
:10DFD00007F0E3F807F0E1F832230022114610467B
:10DFE00002F034FB06F0A8FA06F0A6FA322300226B
:10DFF0001146104602F02AFB002C32D15648007E12
:10E0000010F0010F2DD0002500265348B0F80680EF
:10E01000642008FB00F802F049FB07461AE00A23D7
:10E0200000221146104602F011FBFFF7BFFE044626
:10E030001CB9681CC5B2002607E0022C03D1701C75
:10E04000C6B2002501E000250026032D01DA032ECB
:10E0500000DB05E002F02AFB07EB08018842DED373
:10E0600000BF002C52D13C48007E10F0010F4DD073
:10E0700038480C30006880F4004036490C310860A4
:10E080000846006880F4804008600A230022114698
:10E09000104602F0DBFA002500262F48B0F8068073
:10E0A000642008FB00F802F001FB07461AE00A238F
:10E0B00000221146104602F0C9FA00F051F8044659
:10E0C0001CB9681CC5B2002607E0102C03D1701CD7
:10E0D000C6B2002501E000250026032D01DA032E3B
:10E0E00000DB05E002F0E2FA07EB08018842DED32C
:10E0F00000BF18480C30006880F4004015490C310E
:10E1000008600846006880F4804008609CB91348A5
:10E1100006F0C7FF08B9042407E01049091F486842
:10E12000083106F093FF00B9042424B901F0AAF9DC
:10E130000A49091FC8600948001F04801CB1022158
:10E14000024801F02AF8BDE8F08100000008014013
:10E1500000100140000C0140602F0020802F0020A3
:10E1600010B5002001F0DAF8044601F06DFF0B480D
:10E17000448201F089FF0948408A09498988884218
:10E1800001DD112010BD0548408A054949888842B3
:10E1900001DA1020F6E70020F4E700007C2F0020D1
:10E1A000602F00202DE9F04F87B04FF000090026C6
:10E1B0000020029000BFC24890F84E0105287DDB88
:10E1C000C048002101608180817105218D3804F0F3
:10E1D000BBFCB0F5B47F03DB002007B0BDE8F08FD7
:10E1E000B748B0F85011B0F852010144B448B0F843
:10E1F00054010144B248B0F856010144B048B0F8A7
:10E20000580108440521B0FBF1F01FFA80FB584685
:10E210000BF0DCFB02460B46CDE900010020AA49C9
:10E220000BF038FA074688460022A84B384641468C
:10E230000BF07CF9CDE900010BF084FB06464CF2B3
:10E240005030864202D3A248864201D90020C4E75A
:10E25000A04806604FF000094FF0010A0025002495
:10E26000A9E098498D3931F814100BEBDB72B1EB52
:10E27000620F01DC0020B0E792498D3931F81400BB
:10E28000594600F0F9FF0390002004908CE014F050
:10E29000010F01D145EA0A054FF6FF7000EA4A0A6C
:10E2A0001AF4806F7CD0C5F300200690C5F340219E
:10E2B0000591DDE90510884207D000E0EEE0E8B204
:10E2C00001F0E6F80599884201D0002085E749462B
:10E2D000481C00F0FF097B484554794890F8DC0160
:10E2E00048455ADC764890F8DD0100F03F001528DB
:10E2F00001D0002071E77848007800284BD07048A2
:10E3000090F8DD0100F07F00552842D16C4890F86C
:10E31000DE01FF283DD16A4890F8DF0198BB6848CC
:10E3200090F8E001802834D100200290002406E01B
:10E330006448015D029808440290601C84B20B2C72
:10E34000F6DB02980BF042FB02460B46CDE90001DA
:10E350004FF0004061490BF09DF9074688460022C6
:10E360005A4B384641460BF0E1F8CDE900010BF07D
:10E37000E9FA06464CF25030864202D354488642AF
:10E3800003D9002029E704E00AE05548066001208F
:10E3900023E7002021E701201FE700254FF0010AB5
:10E3A0000498401C80B20490DDE903108842FFF617
:10E3B0006EAF601C84B2424890F84E01A0423FF715
:10E3C00050AF3F4890F8DC01484576DD3C4890F876
:10E3D000DC1109F1010081426FD11AF4007F6CD089
:10E3E000C5F3002006900698002866D0E8B201F038
:10E3F0004FF8002861D14946481C00F0FF09314818
:10E4000045542F4890F8DD0100F03F00152801D059
:10E410000020E2E630480078F0B3294890F8DD01AA
:10E4200000F07F00552844D1254890F8DE01FF28F0
:10E430003FD1234890F8DF0178BB214890F8E001F4
:10E44000802836D100200290002406E01D48015D9E
:10E45000029808440290601C84B20B2CF6DB0298F0
:10E460000BF0B4FA02460B46CDE900014FF0004034
:10E470001A490BF00FF9074688460022134B38461D
:10E4800041460BF053F8CDE900010BF05BFA06466C
:10E490004CF25030864202E00DE00AE00DE002D37B
:10E4A0000B48864201D9002097E60D4806600120FE
:10E4B00093E6002091E601208FE600208DE6000023
:10E4C000BC3F002099410020882AA1410000E03F84
:10E4D000C0D401002C000020300000208162F441F3
:10E4E000340000207CB5054601A9062006F046FD53
:10E4F00008B934207CBD032101A800F0FFFEC04311
:10E50000C4B29DF80700A04210D19DF8050010B9D3
:10E510009DF8060008B12E20ECE79DF8040010F0ED
:10E52000100F01D13A20E5E70020E3E76946062015
:10E5300006F024FD08B93420DCE70422694601A86E
:10E54000FEF702FD08B13920D4E73820D2E70000F9
:10E550002DE9F04700240221F74800F01CFE4FF49B
:10E560000071F64800F017FE4FF40041F44800F047
:10E5700014FE4FF48041F24800F00FFEFFF754FB09
:10E58000642300221146104602F060F806F005FEF2
:10E5900006F003FE322300221146104602F056F820
:10E5A00005F0CAFF05F0C8FF3223002211461046CD
:10E5B00002F04CF8002C32D1E248007E10F0010F3E
:10E5C0002DD000250026DF48B0F80690642009FB16
:10E5D00000F902F06BF880461AE00A230022114687
:10E5E000104602F033F8FFF7E1FB04461CB9681C43
:10E5F000C5B2002607E0022C03D1701CC6B200256C
:10E6000001E000250026032D01DA032E00DB05E0E2
:10E6100002F04CF808EB09018842DED300BF002C61
:10E6200052D1C848007E10F0010F4DD0C4480C30C4
:10E63000006880F40040C2490C3108600846006858
:10E6400080F4804008600A2300221146104601F041
:10E65000FDFF00250026BB48B0F80690642009FBAA
:10E6600000F902F023F880461AE00A23002211463E
:10E67000104601F0EBFFFFF773FD04461CB9681C60
:10E68000C5B2002607E0102C03D1701CC6B20025CD
:10E6900001E000250026032D01DA032E00DB05E052
:10E6A00002F004F808EB09018842DED300BFA44859
:10E6B0000C30006880F40040A1490C310860084625
:10E6C000006880F48040086034BB01F0EFFF8046B2
:10E6D0001AE0002000F032FF074641F294118F4209
:10E6E00005DB41F27C50874201DC002413E041F25B
:10E6F0009410874201DA242400E025240A23002212
:10E700001146104601F0A2FF01F0D0FF41F288311E
:10E7100041448842DDD300BF9CB98B4806F0C1FC60
:10E7200008B9042407E08849091F4868083106F041
:10E730008DFC00B9042424B900F0A4FE8249091F0D
:10E74000C8607CB9804A121F9168506806F0C6FB09
:10E7500010B1012803D100E003E01A2401E03224C3
:10E7600000BF00BF2CB97849091FC868FFF740FBFC
:10E7700004464CB9744A121F9168506806F05FFB5A
:10E78000034600F071F904464CB96E48007E10F063
:10E79000020F04D06C48001FFFF782FA0446002CD9
:10E7A0007DD16848007E10F0040F78D06649091FBB
:10E7B0004868552106F090FD00B9192424B9624833
:10E7C000001FFFF79DFA0446002C63D15D48007ED0
:10E7D00010F0080F5ED04FF40071584800F0DDFCD7
:10E7E0000A2003F07BFE6CBB002500265548B0F8DC
:10E7F0000C90642009FB00F901F058FF80461AE0F4
:10E80000322300221146104601F020FFFFF702FBE1
:10E8100004461CB9681CC5B2002607E0202C03D1B1
:10E820000025701CC6B201E000250026032D01DA88
:10E83000032E00DB05E001F039FF08EB09018842F7
:10E84000DED300BF34BB01F031FF80461AE0002068
:10E8500000F074FE074642F60410874205DB42F6DC
:10E860005050874201DC002413E042F60410874236
:10E8700001DA262400E027240A230022114610464C
:10E8800001F0E4FE01F012FF41F288314144884278
:10E89000DDD300BF002C7DD12A48007E00E090E04F
:10E8A00010F0080F76D04FF40071244800F075FC8A
:10E8B00023480C30006880F4004021490C31086086
:10E8C0000846006880F4804008600A2003F006FED5
:10E8D0006CBB002500261B48B0F80C90642009FB97
:10E8E00000F901F0E3FE80461AE0322300221146CF
:10E8F000104601F0ABFEFFF7AFFA04461CB9681CE6
:10E90000C5B2002607E0102C03D10025701CC6B24A
:10E9100001E000250026032D01DA032E00DB05E0CF
:10E9200001F0C4FE08EB09018842DED300BF84BBBE
:10E9300001F0BCFE804624E00008014000100140C8
:10E94000000C0140602F0020802F0020002000F0EC
:10E95000F5FD074642F60410874205DB42F65050AB
:10E96000874201DC002413E042F60410874201DCF8
:10E97000262400E027240A2300221146104601F035
:10E9800065FE01F093FE41F2883141448842DDD3B7
:10E9900000BF00E00AE01748006880F40040154915
:10E9A00008600846006880F4804008604FF40071F9
:10E9B000114800F0F0FB322300221146104601F00E
:10E9C00045FE1CB90D4800F00FF9044605F0B4FDF2
:10E9D000322300221146104601F038FE05F0ACFD4E
:10E9E000064804801CB10221054800F0D6FBBDE8B2
:10E9F000F08700000C0C0140001001407C2F00202B
:10EA0000000801401FB50121084602F0D3FC4FF475
:10EA1000E06001F043F81C208DF80C0000208DF818
:10EA20000D0001208DF80E0000208DF80F0003A8C6
:10EA300000F0FAFF4FF0804003F08AFE4FF6FF70BF
:10EA4000ADF804000720ADF800000020ADF8060086
:10EA5000ADF8020069464FF0804003F08FFF0121BE
:10EA6000880703F063FE1FBD014601F00700054A59
:10EA7000527802F00702904201D100207047152021
:10EA8000FCE70000602F002070B5002402215248EE
:10EA900000F081FB4FF40071504800F07CFB4FF414
:10EAA00000414F4800F079FB4FF480414C4800F0A2
:10EAB00074FBFFF7B9F806F070FB06F06EFB32232B
:10EAC00000221146104601F0C1FD05F035FD05F0AC
:10EAD00033FD322300221146104601F0B7FD41F20A
:10EAE000883005F03BFA34BB01F0E0FD06461AE041
:10EAF000002000F023FD054641F294118D4205DB14
:10EB000041F27C50854201DC002413E041F2941074
:10EB1000854201DA242400E025240A23002211463C
:10EB2000104601F093FD01F0C1FD41F288313144FE
:10EB30008842DDD300BF002000F0F0FB29490882A5
:10EB40000846008A4882BCB9081D06F0AAFA38B9FE
:10EB5000FFF72CF90446022C00D108E0042406E05B
:10EB600020494868083106F071FA00B904241CB93C
:10EB700000F088FC1B49C86024B91A49C868FFF72F
:10EB800037F9044644B9174A9168506806F057F9B6
:10EB90000346FFF769FF04461CB91248FFF7A2FCC1
:10EBA00004461CB90F4806F057F804461CB90D4836
:10EBB00005F0A0FD04463CB90A4A9168506800225D
:10EBC00005F0D6FD00B93B24064804801CB10221A3
:10EBD000014800F0E2FA70BD000801400010014059
:10EBE000000C01407C2F00202DE9FC410646002747
:10EBF00001A9062006F0C2F910B93420BDE8FC8155
:10EC0000032101A800F07AFBC043C5B29DF80700BC
:10EC1000A84228D19DF8050010B99DF8060008B15A
:10EC20002E20EBE72A48007810B101281AD10CE019
:10EC30009DF8040010F0080F06D19DF8040040F084
:10EC400008008DF8040001270CE09DF8040010F086
:10EC5000100F06D19DF8040040F010008DF804005C
:10EC6000012700BF10E06946062006F087F908B9C1
:10EC70003420C3E70422694601A8FEF765F908B10C
:10EC80003920BBE73820B9E7FFB1032101A800F024
:10EC900035FBC043C0B28DF807004FF003080BE00E
:10ECA00001AA0621304606F06DF804462B2C01D14E
:10ECB0002046A3E704B906E05FEA0800A8F10101D5
:10ECC00001F0FF08ECD100BF00BF002096E7000074
:10ECD000602F002010B500F041FF4FF4807000F06D
:10ECE0003BF860B34FF4807000F030F801218807E2
:10ECF00003F022FD1348007838B90121880703F09A
:10ED00001BFD01200F49087019E00F4890F84E01D3
:10ED1000462814DA4FF0804003F00EFE01460A4800
:10ED200090F84E41601C084A82F84E0102F5A87026
:10ED300020F8141000214FF0804003F01CFE00F07A
:10ED40001FFF10BD00000020BC3F002001490860EB
:10ED50007047000014040140014600200022074BC8
:10ED60001B6803EA0102054B14331B680B4202D0F7
:10ED70000AB1012000E000207047000000040140BB
:10ED8000002123498279002A3AD00A461268036892
:10ED90009A430B461A600A1D126803689A430B1DBA
:10EDA0001A60027911440A6803681A430A60184A13
:10EDB0000832126803689A43154B08331A601A1D0B
:10EDC000126803689A43124B0C331A604279102A76
:10EDD0000ED11A1F126803681A430D4B08331A60CC
:10EDE0001A1D126803681A43094B0C331A600DE0B0
:10EDF0000749427911440A6803681A430A6005E02A
:10EE0000027911440A6803689A430A607047000057
:10EE1000000401407CB506460C4615463046FFF717
:10EE200095FF009600208DF804008DF805408DF8C0
:10EE300006506846FFF7A4FF7CBD00000149C8608A
:10EE4000704700000020024030B5044604254FF40E
:10EE5000302000F06FF80546042D17D10C480069EA
:10EE600040F002000A49086108464461006940F028
:10EE7000400008614FF4302000F05CF8054604487B
:10EE8000006941F6FD71084001490861284630BD1E
:10EE90000020024004200B49C96811F0010F01D085
:10EEA00001200EE00749C96811F0040F01D00220CB
:10EEB00007E00449C96811F0100F01D0032000E0F9
:10EEC00004207047002002400348006940F08000A1
:10EED00001490861704700000020024070B50446F7
:10EEE0000D460426F00200F025F80646042E11D146
:10EEF0000948006940F00100074908612580F002D7
:10EF000000F018F806460448006941F6FE71084012
:10EF100001490861304670BD0020024002480349A3
:10EF2000486003484860704723016745002002405D
:10EF3000AB89EFCD00B502460423FFF7ABFF0346D4
:10EF400003E0FFF7A7FF0346521E012B01D1002A61
:10EF5000F7D102B90523184600BD000008B569467F
:10EF60000B2000F055FE0149086008BD0400002098
:10EF700008B50648006808B9FFF7F0FF6A460021A7
:10EF80000248006800F092FE08BD00000400002066
:10EF900010B50248006800F0B1FF10BD0400002069
:10EFA00030B500228B071C0F0F2303FA04F20B4B22
:10EFB0008C1053F824309343084C8D1044F82530BE
:10EFC00023468C1053F824308C07240F00FA04F4E5
:10EFD0002343024C8D1044F8253030BD0800014019
:10EFE0002DE9F041024600250026002000230024E0
:10EFF000002791F803C00CF00F0591F803C01CF036
:10F00000100F03D091F802C04CEA050591F800C03A
:10F01000BCF1000F31D0146800202BE04FF0010C40
:10F020000CFA00F3B1F800C00CEA03069E4220D1AE
:10F0300083004FF00F0C0CFA03F7BC4305FA03FCF6
:10F040004CEA040491F803C0BCF1280F06D14FF03C
:10F05000010C0CFA00FCC2F814C00AE091F803C0DD
:10F06000BCF1480F05D14FF0010C0CFA00FCC2F8BE
:10F0700010C0401C0828D1D31460B1F800C0BCF106
:10F08000FF0F34DD546800202EE000F1080C4FF033
:10F09000010808FA0CF3B1F800C00CEA03069E421E
:10F0A00021D183004FF00F0C0CFA03F7BC4305FA93
:10F0B00003FC4CEA040491F803C0BCF1280F05D10D
:10F0C00000F1080C08FA0CF8C2F8148091F803C09B
:10F0D000BCF1480F07D100F1080C4FF0010808FA05
:10F0E0000CF8C2F81080401C0828CED35460BDE84C
:10F0F000F0810000F0B50A4600230024002100251D
:10F1000000F00046B6F1004F02D11D4EF16901E05A
:10F110001B4E7168C0F3034583B200F44016B6F588
:10F12000401F08D121F07061154E766826F0706698
:10F13000134F7E6012E000F48016B6F5801F06D1F2
:10F14000032606FA05F4A14341F0706106E0460D7E
:10F15000360103FA06F6B14341F0706122B1460D63
:10F16000360103FA06F6314300F00046B6F1004FCF
:10F1700002D1034EF16101E0014E7160F0BD00006B
:10F18000000001400246002093680B4201D001209C
:10F1900000E0002070474161704701617047000046
:10F1A000F0B58BB007460C460026FEF76BFC14B991
:10F1B00000200BB0F0BD0A2C00DD0A240023012240
:10F1C00039462C48FEF78EFB002528E0012129480E
:10F1D000FEF7E9FB00BF10212648FEF748FB002898
:10F1E000F9D001212348FEF7DEFB00BF10212148A2
:10F1F000FEF73DFB0028F9D01E48FEF734FB06A9B8
:10F2000021F8150006A830F81500304486B2601EBB
:10F21000A84202D0012003F053F9681CC5B2A542F0
:10F22000D4DB00211348FEF7BEFB10211148FEF786
:10F2300002FB052C16DD0026224601A906A803F0D4
:10F240009EFC022506E001A830F81500304486B285
:10F25000681CC5B2A01EA842F5DC201F96FBF0F08A
:10F2600086B202E096FBF4F086B2FEF71FFC304651
:10F270009FE700000024014010B502460020002353
:10F28000B2FBF1F4E0B2B2FBF1F401FB1423B1EBF9
:10F29000430F01D2441CE0B210BD0246002004E03E
:10F2A000135C03B903E0431C98B28842F8DB00BF4B
:10F2B00070470000F0B504461E46FF23FF250027D7
:10F2C0002312E5B209E012F8010B80EA05070948AC
:10F2D000C05D80EA03050848C35D3000A6F1010C5B
:10F2E0001FFA8CF6EFD109B10B704D7005EB0320BE
:10F2F00080B2F0BDB8A20108B8A3010810B502465B
:10F30000002004E013784340034CE05C521C0B00E7
:10F31000A1F10101F6D110BDE0CC01082DE9FC47B7
:10F32000824600BF0A210C20FFF73AFF06460AF08A
:10F330004DFB04460D46BAF1000F05D02046294684
:10F340000AF000FBAAF800002D4908682D490AF0D0
:10F350004FFE06460AF000FE0004000C08D12A4ABF
:10F360002A4B204629460AF081FB04460D4637E029
:10F370002348808810F4004F19D021498988C1F3AF
:10F380000E000AF00CFB06460F461D4908680AF0FD
:10F3900055FD22462B46CDE900010AF067FB804669
:10F3A00032463B460AF060FC04460D4618E014491C
:10F3B0008988C1F30E000AF0F2FA804689461049A6
:10F3C00008680AF03BFD064622462B460AF04EFB33
:10F3D00042464B46CDE900010AF0A8F804460D4626
:10F3E00000221346204629460AF004FB02D20020E0
:10F3F000BDE8FC87204629460AF0A4FA80B2F7E768
:10F40000A43F002000007A444D158C4AEA04F83FDE
:10F410002DE9F04F85B006460F4615469846DDF8B3
:10F4200038B04FF0FF394FF0000A002421E0285D8A
:10F43000B0421CD10AF1010000F0FF0A574515D176
:10F4400014216846FDF788FEA4EB0900421E09F16D
:10F45000010029186846FDF7E6FD5A4607A16846EF
:10F46000FDF7ACFC012005B0BDE8F08FA146601CA3
:10F4700084B24445DBDB0020F5E7000025756C64B1
:10F480000000000001480068704700002C000020C8
:10F4900001460023002207E011F0010F01D0581CA3
:10F4A000C3B24910501CC2B2082AF5DB03F00100B8
:10F4B0007047000030B5002303800F4B1C7805888F
:10F4C0006B1C0380C31C5C550C1205886B1C0380ED
:10F4D000C31C5C5505886B1C0380C31C5955140A5A
:10F4E00005886B1C0380C31C5C5505886B1C03805E
:10F4F000C31C5A5530BD00001C07002070B50546DE
:10F5000018E0002411E00C48005D18B90A480555C0
:10F51000204670BD0849085D03F0F2FA18B90648A4
:10F5200005552046F5E7601CC4B2032CEBDB012037
:10F5300001F050F8E5E700001C0000202DE9F04F35
:10F540008DB006460025002417E0012002F0C6FF1A
:10F5500001210D20FFF724FE824601210A20FFF73A
:10F560001FFE8146BAEB090001D4014600E041428A
:10F5700007AA22F81410601CC4B20A2CE5DB0A2288
:10F5800002A907A803F0FBFA022406E002A830F85B
:10F590001400284485B2601CC4B2082CF6DB062097
:10F5A00095FBF0F085B206B1358029498868294974
:10F5B0000AF01EFD07460AF0CFFC0004000C0DD136
:10F5C00028460AF003FA244A244BCDE900010AF048
:10F5D0004DFA07460AF0B6F985B235E01C48808935
:10F5E00010F4004F18D01A498989C1F30E000AF0AF
:10F5F000D3FC019028460AF0E7FC83461448816852
:10F6000058460AF0F5FC804601990AF0BDFD074610
:10F610000AF0A2FC85B217E00D498989C1F30E00FA
:10F620000AF0BAFC019028460AF0CEFC834608484E
:10F63000816858460AF0DCFC804601990AF02AFCF1
:10F6400007460AF089FC85B228460DB0BDE8F08F68
:10F65000A43F002000007A44774A07EBFF1C1040CB
:10F6600070B5044600250F48407808B9002070BDE9
:10F67000FFF77EFC23460CA20DA11048FDF72EFAE1
:10F6800000220E490E4808F03BFE18B1FFF780FC3F
:10F690000020ECE70A48C56808F003FCFFF778FC97
:10F6A0002846E4E714000020303A4C4F47000000A1
:10F6B00025732F25642E7478740000001C0500202B
:10F6C000F802002000BFFEE77CB500F063F82E4989
:10F6D000487008464078002854D002F0E3F950B949
:10F6E000C82300221146104600F0B0FF02F0DAF9FC
:10F6F00008B900207CBD012224A1254808F0D2FDD4
:10F7000038B1012221A1224808F0CCFD08B1002027
:10F71000F0E701AA69461DA008F0D3FB044634B9FE
:10F720000198807800994843B0F5205F01D200200D
:10F73000E0E700F0E9F8144988708878FFF790FF57
:10F74000B0F1C86F19D910488078401C0E498870F4
:10F7500008468078322801DB002088700A498878C2
:10F76000FEF774FA08488578681CC5B2322D00DBB4
:10F7700000252846FEF76AFA00BF04220021084649
:10F7800004F0D2FC0120B5E714000020303A00005C
:10F79000C800002070B51448FDF726FCC5B2042D42
:10F7A00020DD281FC5B200241AE00F48005D5F2845
:10F7B00014D10D48611C405C56280FD10A48E11C49
:10F7C000405C2E280AD10849621C8818042207A12F
:10F7D000FDF7BAFB002801DB012070BD601CC4B23C
:10F7E000AC42E2DD0020F8E73D07002056312E3420
:10F7F000000000004CF6CC40014908607047000052
:10F80000003000404AF6AA20014908607047000015
:10F81000003000400149486070470000003000405F
:10F8200001498860704700000030004001490860CD
:10F8300070470000003000404FF4FA75002604F0D5
:10F84000B7FB21E004F0B0FB012000F0C3FE00F0A4
:10F850002DFF04460D480068201A40F6B831884252
:10F8600004D30B480068201A884201D2642501E0C5
:10F870004FF4FA757019A04206D20648006880F06D
:10F880000100044908602646DCE70000080000206B
:10F890000C0000200C08014008B50121052001F0F2
:10F8A000A9FD01211648FFF725FC01211548FFF7A6
:10F8B00072FC02211348FFF76EFC4FF4004111481F
:10F8C000FFF769FC03208DF8020010208DF803007B
:10F8D0000120ADF8000069460A48FFF781FB0220CD
:10F8E000ADF8000069460748FFF77AFB4FF4004087
:10F8F000ADF8000069460348FFF772FB08BD000041
:10F9000000023000000801402DE9F041A8B04FF09E
:10F910000008FFF72DFB39A102A808F0A0FD07465B
:10F92000002F60D100BF09A902A808F009FF07460F
:10F9300017B99DF82D0000B954E09DF82D002E2830
:10F9400000D1F0E70DF12D059DF82C0010F0100FFF
:10F9500047D12846FDF748FB84B2042C37DD072C3D
:10F9600035DA2919081F042226A1FDF7EDFA30B176
:10F970002919081F042225A1FDF7E6FA38BB002645
:10F9800007E0A85D302802DBA85D392800DD03E030
:10F99000761C201FB042F4DC00BF201FB04215D1FE
:10F9A0000020019064210FA8FDF7D6FB221F2946F5
:10F9B0000FA8FDF738FB01AA16A10FA8FDF7FEF965
:10F9C0000198404501DDDDF80480ACE700BF2B461F
:10F9D0000AA211A10FA8FDF781F80FA808F033FFC4
:10F9E0000746A0E702E005A008F0ABFBFFF7D0FA5E
:10F9F00008F0FF0028B0BDE8F0810000303A4C4F1D
:10FA0000470000002E545854000000002E747874F3
:10FA1000000000002564000025732F2573000000FE
:10FA200000BFFEE77047000070B5002100230F22E1
:10FA3000C4780CB3164C246804F4E064C4F5E064A4
:10FA4000210AC1F10403CA40447804FA03F184781E
:10FA50001440214309010F4C0678A155047804F0A5
:10FA60001F050124AC4005786D114FF0E02606EB30
:10FA70008505C5F8004109E0047804F01F0501245C
:10FA8000AC40054D0678761145F8264070BD000063
:10FA90000CED00E000E400E080E100E002490143F9
:10FAA000024A1160704700000000FA050CED00E00A
:10FAB000024A0A400243024B1A60704780FFFF1F50
:10FAC00008ED00E02DE9F04105460E4614460027FA
:10FAD0001148007818B112202070BDE8F081287814
:10FAE000012808D0022807D0032802D0042804D116
:10FAF00000E000BF00BF00BF02E001202070ECE783
:10FB000000BFFCF779FF07466E613846FCF778FFC7
:10FB10000020207000BFE0E76100002010B500F079
:10FB200015F801F09BF801F0C3F801F0E3F801F0DB
:10FB300065F801F073F901F09DF901F015F901F094
:10FB40003BF900F057FE00F007F810BD0020014916
:10FB50000880704748000020704700000648007881
:10FB6000012808D105480078FF2804D2034800780E
:10FB7000401C0249087070476E00002061000020A0
:10FB800010B500241A480078012830D1FCF734FF62
:10FB900004461848007820B116480078401E1549E0
:10FBA000087014480078F8B913480078E0B901F0FB
:10FBB000C3F912481249097850F821001149086028
:10FBC0000F4800781049097888420DD00D48006828
:10FBD000406B401C0B49096848630C480068401C96
:10FBE0000A490860FCF724FF2046FCF709FF10BD16
:10FBF0006E00002061000020620000209458002068
:10FC0000640000207C000020630000204C000020E5
:10FC10002DE9F04105460E4600272048007820B126
:10FC2000102030700020BDE8F081FCF7E5FE0746AB
:10FC30001B4850F8250030B13846FCF7E1FE28207B
:10FC400030700020EFE70120154941F825001548E4
:10FC500004684CB9002041F825003846FCF7D0FE76
:10FC6000042030702046DEE70E48006840680D49E9
:10FC700008603846FCF7C4FE04202070FF2040EAEC
:10FC8000052020810020606007A06061204600F010
:10FC9000A7FF002030702046C5E70000610000206B
:10FCA00094580020500000203F0000002DE9F74F3D
:10FCB00082B005461746002001902878042804D019
:10FCC0000120387005B0BDE8F08F8648007810B18B
:10FCD00002203870F6E78448007810B10D203870A3
:10FCE000F0E7FCF789FE019028894FEA2029287A5D
:10FCF000FF281FD1288900F47F40288128897B496B
:10FD0000096891F82E1008432881784800686860D7
:10FD10007648006890F82E00484505DC0198FCF70D
:10FD20006FFE7820387004E00198FCF769FE00202F
:10FD30003870C7E795F808B06C6894F82E0048450D
:10FD40007EDD6A48006890F82E0058457DDA94F808
:10FD50003080674810F8080094F83110084216D037
:10FD6000634810F8080094F831108843604901F89E
:10FD70000800084610F8080030B994F832105D48C1
:10FD8000007888435B4908704FF0010A19E0E66982
:10FD9000AEB194F8308006F10B0010F8080094F82A
:10FDA0003110884306F10B0101F80800084610F8ED
:10FDB000080020B9B07A94F832108843B0724FF03E
:10FDC000000A04F82E9F2078C010A070207800F060
:10FDD00007006070A17801208840207161780120BF
:10FDE0008840E070A4F12E04BAF1010F13D104F1A0
:10FDF0003004A0783F49097840EA01003D49087085
:10FE000020783B49085C617840EA010014F8301919
:10FE1000374A505416E0E669A6B1B07A04F13004CE
:10FE2000A17840EA0100B072217806F10B00405C35
:10FE3000617840EA010014F8302906F10B0100E076
:10FE400003E088542C4840F829402848006890F87E
:10FE50002C0040F010002549096881F82C004FF073
:10FE600000002249096881F82D002049039809689B
:10FE70008862284600F076FE0198FCF7C1FD01F08B
:10FE800021F8FCF7B9FD01901848006890F82D00A2
:10FE900020B1012809D0022806D102E000203870E4
:10FEA0000BE00E20387008E000BF29460F480068BC
:10FEB00000F024FE0A20387000BF00BF00200B496C
:10FEC000096881F82C000949096881F82D00074963
:10FED0000968C8610549096808620198FCF790FD46
:10FEE00000BFEFE6610000206200002074000020E7
:10FEF0006600002065000020945800202DE9F041A4
:10FF0000044600272C48007810B10520BDE8F08198
:10FF10002078042801D00120F8E7FCF76DFD0746A2
:10FF200020890612257A254960680968884204D02C
:10FF30003846FCF765FD6420E8E72048006890F843
:10FF40002E00B04204D129461C48006800F03AF85F
:10FF500001201B4941F82600A07A08B30023102293
:10FF60001946204600F080FD0546208900F47F40B8
:10FF70002081208928432081114850F825006060A5
:10FF8000B54206DC3846FCF73BFD00F09BFF7820CD
:10FF9000BCE73846FCF734FD00F094FF0020B5E7DD
:10FFA000208940F0FF002081002060603846FCF787
:10FFB00027FD0020AAE70000610000207400002057
:10FFC0009458002030B590F830201B4B9B5C90F883
:10FFD0003140A343184CA35423469B5C33B990F89B
:10FFE0003240164B1B78A343144C237000F82E1F8D
:10FFF000134B1970C1F3C203837001F00703437000
:020000040801F1
:1000000084780123A340037144780123A340C37083
:1000100003790A4C24782343084C23708378064CD8
:10002000E35CC47823438478A0F12E00024D2B5565
:10003000044B43F8210030BD66000020650000201D
:10004000630000209458002010B500240B4800786D
:10005000012811D1FCF7D0FC04460948007840B9CA
:1000600008480078FF2804D206480078401C05495B
:1000700008702046FCF7C4FC10BD00006E00002094
:10008000610000206200002010B5002413480078B1
:10009000012821D1FCF7B0FC044611480078C0B11A
:1000A0000F480078401E0E4908700846007860B975
:1000B0000C48007828B92046FCF7A2FC00F002FFAB
:1000C0000AE02046FCF79CFC06E02046FCF798FC82
:1000D00002E02046FCF794FC10BD00006E000020FA
:1000E000620000206100002070B50546002610481F
:1000F000007808B1002070BDFCF77EFC06460D4874
:100100000468006820B10B4800684068094908602D
:100110003046FCF775FC4CB103202070258100208F
:10012000606005A06061204600F05AFD2046E2E7CD
:1001300061000020500000203F0000002DE9F04148
:1001400005460E46144600272878032803D00120D0
:100150002070BDE8F0813248007810B10220207094
:10016000F7E73048007810B10D202070F1E7FCF778
:1001700043FC0746288940B12889401E288138461B
:10018000FCF73EFC00202070E3E72748006890F869
:100190002C0040F001002449096881F82C0000205F
:1001A0002149096881F82D001F48006886622846A9
:1001B00000F0D8FC3846FCF723FC00F083FEFCF787
:1001C0001BFC07461848006890F82D0020B1012854
:1001D00009D0022806D102E0002020700BE00E209A
:1001E000207008E000BF29460F48006800F086FC38
:1001F0000A20207000BF00BF00200B49096881F869
:100200002C000949096881F82D0007490968C8616F
:100210000549096808623846FCF7F2FB00BF98E719
:1002200061000020620000207400002070B50446C8
:1002300000252078032801D0012070BDFCF7DCFBED
:100240000546A07A60B1002301221946204600F03D
:100250000BFC2846FCF7D4FB00F034FE0020ECE752
:1002600020894FF6FF71884207D22089401C2081E7
:100270002846FCF7C5FB0020DFE72846FCF7C0FB5B
:100280003320DAE710B50B48007890B900F054FE3F
:10029000094800780949087009480749097850F861
:1002A0002100084908600846006807490860FCF713
:1002B000AAFB10BD6E000020640000206300002037
:1002C000945800207C00002074000020704700003B
:1002D0002DE9F04F85B081468A4693461C46DDE9FC
:1002E0000F78129D00200390FCF786FB03902348B3
:1002F000007830B10398FCF783FB3C2005B0BDE8E3
:10030000F08F1F4850F8240088BB01201C4941F899
:1003100024000398FCF774FB2A464146384600F057
:1003200035FF2B465A465146484600F0AFF8049038
:100330001198CDE9008002953A4620460E9B04991B
:1003400000F010FE064636B90E48007801280CD1A0
:1003500000F0B8FD09E0FCF74FFB039000200849CE
:1003600041F824000398FCF74BFB3046C6E7FFE753
:100370000398FCF745FB2820C0E70000610000203F
:10038000945800206E000020704770472DE9F0411E
:1003900006460F4614464FF000081548007818B17D
:1003A00012202070BDE8F081FCF726FB8046FF2E6E
:1003B00003D11048006890F82E600F4850F826507E
:1003C0002DB94046FCF71CFB43202070EAE7012DC5
:1003D00005D14046FCF714FB43202070E2E7AF64F0
:1003E0004046FCF70DFB0020207000BFDAE700005C
:1003F0006100002074000020945800207047000025
:100400002DE9F04707460D464FF0000A002028600E
:100410006860FCF7F1FA8246FF2F03D119480068A3
:1004200090F82E70184850F827402CB95046FCF729
:10043000E7FA4320BDE8F087012C04D15046FCF7D1
:10044000DFFA4320F6E7207C10F0010F04D150467C
:10045000FCF7D6FA4520EDE70026D4F80C90D4F846
:1004600008805046FCF7CCFA00E0761C58F8041BD4
:100470000029FAD0B0002860A9EB0600800068606F
:100480000020D7E7740000209458002070B504467F
:1004900010464FF080750560051F28462C606FF0F0
:1004A0000106051F28462E604FF01236051F28460C
:1004B0002E604FF00336051F28462E604FF002369F
:1004C000051F28462E607610051F28462E60051F42
:1004D000284629604FF01136051F28462E604FF040
:1004E0001036051F28462E604FF00936051F284696
:1004F0002E604FF00836051F28462E604FF0073655
:10050000051F28462E604FF00636051F28462E6030
:100510004FF00536051F28462E604FF00436051FA4
:1005200028462E6070BD00002DE9F04105464FF0D1
:100530000008FCF761FA8046FF2D05D120480068CD
:1005400090F82E50012608E01D48006890F82E0013
:10055000A84201D1012600E000261A4850F82540A3
:100560002CB94046FCF74CFA4820BDE8F081012C3C
:1005700004D14046FCF744FA4320F6E794F8307083
:100580001148C05D94F8311088430F49C85508469A
:10059000C05D30B994F832100C48007888430B499C
:1005A000087094F82C0040F0080084F82C004046B5
:1005B000FCF726FA012E01D100F084FC0020D4E7DC
:1005C0007400002094580020660000206500002080
:1005D0007047000070B5054600261748007800B146
:1005E00070BD1648007800B1FAE71DB3FCF704FAB5
:1005F00006461348006890F830401248005D1049E4
:10060000096891F8311088430E4908550846005D85
:1006100040B90B48006890F832100B4800788843C6
:10062000094908700648006885623046FCF7E8F919
:1006300000F048FC00BFD3E761000020620000200A
:100640007400002066000020650000202DE9F041C4
:1006500005460E4617461C461248007810B1552034
:10066000BDE8F0811048007808B13220F8E74FF477
:100670007A7060434FF47A71B0FBF1F14FF461602E
:100680006843C6EB061200EB8200384400EB4002E0
:10069000C2EBC01001EBC0084046FFF79BFF0020F3
:1006A000DEE70000610000206200002070B5002538
:1006B000FCF7A2F90546034804682846FCF7A0F9B0
:1006C000204670BD9000002070B5002600F076F83E
:1006D000FCF792F9064633480068401C314908602F
:1006E0003046FCF78DF930480078012857D12F4863
:1006F000007820B1012804D0022809D103E00125A7
:100700000BE0002509E0012501202849087004E0DC
:10071000012500202549087000BF00BF05B970BD44
:100720002348046837E0FCF767F90646A06A70B30F
:10073000A06A401EA062A06A48BB94F82C0010F08A
:10074000370F09D014F82C0F00F0C80020700120DA
:100750006070A4F12C0402E0002084F82D0094F8CD
:100760002C0010F0080F12D104F13004A0781149C8
:10077000097840EA01000F49087020780E49085CAA
:10078000617840EA010014F830190B4A505464694A
:100790003046FCF735F994F82E003F28C3D100BF4E
:1007A000BDE70000900000206E00002084000020C3
:1007B00080000020650000206600002010B507487A
:1007C0000088401C0549088008460088642803D337
:1007D0000020088000F004F810BD00004800002050
:1007E00010B503480068FFF721FD0446204610BD00
:1007F000A0000020F8B54FF42071284800F004FB59
:100800004021274800F000FB002514E0681C86B258
:1008100005EB8500214901EBC00406EB860001EBE6
:10082000C00764202070002084F82500E7601DA028
:100830002062681C85B20F2DE8D305EB85001749AF
:1008400001EBC00464202070002084F82500E060E3
:1008500014A0206200201449086014490880102068
:10086000134908800D48134908600120FFF73CFC3C
:10087000114908600020FFF737FC104908606A46FC
:100880000FA10D480068FFF71DF96A4611A10B483A
:100890000068FFF717F900F027F8F8BD4C61002059
:1008A000CC6500203F00000098000020960000204A
:1008B00094000020A40000209C000020A000002044
:1008C00075432F4F532D494920546D724C6F636B04
:1008D0000000000075432F4F532D494920546D727D
:1008E0005369676E616C000000B587B0032000217A
:1008F00080220A4BCDE90132CDE903104FF6FD709D
:100900003D23074A00900748FFF7E2FC06AA06A12C
:100910003D20FFF73BFD07B000BD0000CC63002089
:10092000C8650020A509010875432F4F532D49497B
:1009300020546D720000000070B50B46032580F84E
:100940002550012B05D1154EC569366835444561E2
:100950000CE085692DB9114EC5693668354445618D
:1009600004E00E4E8569366835444561057D05F025
:1009700007040B4D05EBC4010D682DB90860002577
:10098000C56001258D8006E00A680860C2601061BC
:100990008D886D1C8D800025056170BD980000203C
:1009A000CC65002008B500BF00BF6A4600211A4888
:1009B0000068FFF7C3FBFFF747FB18480068401CBF
:1009C000164908600846007800F00708144800EB54
:1009D000C8073C681AE0E6681049606909688842FF
:1009E00013D1204600F01EF894F82400022804D108
:1009F00001212046FFF7A0FF02E0022084F8250035
:100A0000656815B12046A168A8473446002CE2D19C
:100A1000FFF73AFBC9E70000A00000209800002083
:100A2000CC65002030B5057D05F007040D4D05EBC4
:100A3000C4031D68854205D1C168196039B100251C
:100A40000D6104E00169C268CA6002B1116101254B
:100A500080F825500025C56005619D886D1E9D802C
:100A600030BD0000CC6500202DE9F04F05460F4653
:100A700090469946A87A1D490E5C05F10B00805DF1
:100A800011F800B00BEBC60000F0FF0A184850F850
:100A90002A40002004F1240460602760207A20EAC4
:100AA0000800207284F80990207AA4F1240410F040
:100AB000080F0DD194F832000E49097808430D490A
:100AC00008700D48805D94F8311008430A49885534
:100AD0002946204600F012F8206A20B12046216AFB
:100AE00000F021F8E5615046BDE8F08FE0D1010843
:100AF00094580020650000206600002010B590F892
:100B0000302001F10B039B5C90F83140A34301F1CD
:100B10000B04A35423469B5C23B98B7A90F8324094
:100B2000A3438B7210BDF0B5024612F8304F957892
:100B30005678A2F130020B4618680FE000F10B075F
:100B40003F5DB74300F10B0C0CF8047067463F5D46
:100B500017B9877AAF4387721B1D18680028EDD13B
:100B6000F0BD000010B51B4A1268D061194A126826
:100B700092F8303000F10B02D25C164B1B6893F8F0
:100B800031301A43134B1B6893F8304000F10B03CC
:100B90001A55827A0F4B1B6893F832301A438272CF
:100BA0000C4A126892F830100B4A525C094B1B68D1
:100BB00093F831309A43084B5A541A46525C42B962
:100BC000044A126892F83230044A12789A43034B6E
:100BD0001A7010BD7400002066000020650000201F
:100BE000014600228A72002005E0002301F10B0279
:100BF0001354421CD0B20828F7D3704770B5F021C7
:100C0000134800F001F9002411E0601C85B204EBE8
:100C100044000F4901EBC00305EB450001EBC006A2
:100C2000002018705E600BA05861601C84B2092C13
:100C3000EBD304EB4400064901EBC003002018701D
:100C4000586004A0586108460349086070BD000060
:100C5000A45300203F0000005000002000200A495B
:100C600008600A4908700A4908700A4908700A4968
:100C700008700A4908600A4908600A4908600A4978
:100C800008600A4908707047900000206100002049
:100C9000620000206F0000206E0000204C00002049
:100CA000700000205C000020580000206000002040
:100CB00000210A4A1170002004E00021084A115462
:100CC000411CC8B20828F8D30021064A1170064A10
:100CD0001170064A1160064A1160704765000020D5
:100CE0006600002063000020640000207C000020DB
:100CF0007400002070B54FF4DC61164800F084F8F1
:100D00004FF48071144800F07FF800230FE0581C66
:100D1000C5B203EB83000F4901EB001405EB85001E
:100D200001EB001666610DA0A064581CC3B2152B20
:100D3000EDD303EB8300074901EB00140020606151
:100D400006A0A06400200649086002480549086022
:100D500070BD000094590020945800203F0000000E
:100D6000800000207800002000B587B0032000211B
:100D700080220A4BCDE90132CDE903104FF6FF7016
:100D80003F23074A00900748FFF7A2FA06AA06A1E8
:100D90003F20FFF7FBFA07B000BD0000945600208B
:100DA00090580020A110010875432F4F532D494939
:100DB0002049646C6500000000B587B00320002165
:100DC00080220A4BCDE90132CDE903104FF6FE70C7
:100DD0003E23074A00900748FFF77AFA06AA06A1C1
:100DE0003E20FFF7D3FA07B000BD00009454002066
:100DF00090560020C910010875432F4F532D4949C3
:100E0000205374617400000004E0002200F8012BFC
:100E10004A1E91B20029F8D17047000070B57821C0
:100E20001148FFF7F1FF00240EE004EB44000E49E7
:100E300001EBC005601C00EB400001EBC0006860E6
:100E40000AA06861601C84B2042CEED304EB440059
:100E5000054901EBC0050020686004A068610846F0
:100E60000349086070BD0000746000203F0000006E
:100E7000880000202DE9F04160211048FFF7C4FFF1
:100E800000240DE0601C86B204EB44000B4901EB2A
:100E9000C00506EB460001EBC0072F60601C84B262
:100EA000032CEFD304EB4400044901EBC005002000
:100EB0002860084602490860BDE8F081EC60002027
:100EC0008C00002010B50024FBF796FD0446134863
:100ED0000078F8B912480078E0B900F02DF8114810
:100EE0001149097850F82100104908600E4800782F
:100EF0000F49097888420DD00C480068406B401CAF
:100F00000A49096848630B480068401C09490860A1
:100F1000FBF789FD2046FBF773FD10BD6100002043
:100F20006200002094580020640000207C00002013
:100F3000630000204C0000200649074A1278885CB4
:100F40000649095C034A515C01EBC001044A117077
:100F500070470000E0D10108650000206600002015
:100F6000640000202DE9F84F05460F46904699464B
:100F7000DDE90AAB00200090FBF73EFD0090414800
:100F80000468002C79D054F8140F3E49086000988A
:100F9000FBF736FD44F8147CA576002020766076B9
:100FA000606144F810BC44F808AC44F80C8C0C9810
:100FB00024F8040C24F8029C0020E077E810207745
:100FC00005F00700E076217F01208840A077E17ED0
:100FD0000120884060770020A060E06020612062EE
:100FE000A0626062E062206327A06063A4F1140441
:100FF0004FF0000606E0002104F14C0040F82610F6
:10100000701CC6B2002EF6D02046FFF75FF92046CE
:10101000FFF7BAF9FBF7F0FC00901C4840F82540B8
:101020001B48006860610020A0611948006810B189
:101030001748006884611648046004F13004A07801
:101040001449097840EA01001249087020781249D1
:10105000085C617840EA010014F830190E4A5054D7
:101060000E48007800F101000C4908700098FBF769
:10107000C7FC0020BDE8F88FFFE70098FBF7C0FC35
:101080004220F7E7780000203F000000945800203D
:101090008000002065000020660000206F00002016
:1010A000002400BF00BFFBF7A7FC0446054800680A
:1010B000401C044908602046FBF7A2FCFFF765F9D5
:1010C000F1E7000070000020002400BF02E0C8200B
:1010D000FFF780FA194800780028F8D0184800680F
:1010E0006421B0FBF1F0164908600846006828B991
:1010F000002014490870FF20FFF716FA00BFFBF725
:101100007BFC0446104800681049086000200E4926
:1011100008602046FBF774FC0C4800680849096821
:10112000B0FBF1F0C0F1640006490870FFF766F902
:1011300000F00EF86420FFF74DFAE0E760000020B1
:101140005800002054000020700000205C000020A7
:101150007CB5002514E069462846FFF751F906469C
:1011600066B9094850F8254044B1012C06D0D4E9AD
:10117000020100EB8100206401986064681CC5B224
:101180003F2DE8D97CBD00009458002012F0010FDB
:1011900008D012F0020F05D002E0491E002308C05B
:1011A0000029FAD1704700007CB50446002509E00B
:1011B000605D302802DB605D392801DD00207CBDE8
:1011C000681CC5B2072DF3DBE079302802DBE0793B
:1011D00039280DDDE079412802DBE0795A2807DD66
:1011E000E079612802DBE0797A2801DD0020E6E77A
:1011F000082509E0605D302802DB605D392801DDEB
:101200000020DCE7681CC5B20D2DF3DB0020009048
:101210002088ADF8000001AA18A16846FBF7CEFDB2
:10122000019810B101984A2801D90020C7E7002091
:101230000090B4F80300ADF8000001AA0FA16846C1
:10124000FBF7BCFD019810B101980C2801D90020D2
:10125000B5E700200090B4F80500ADF8000001AA41
:1012600006A16846FBF7AAFD019810B101981F2856
:1012700001D90020A3E70120A1E7000025640000B8
:101280002DE9F04104460F46208805284BDB2088D5
:10129000801CB0F5FF7F46DC2088401F86B2228884
:1012A000C2F580611346E21C9818FBF733FF06F184
:1012B0001200C11700EB11710911052202EB011197
:1012C000218032122088801EE11C0A542088401E92
:1012D0000E542188481FC11700EB1171C1F30F187C
:1012E00000250EE0052000EB0513E01C1A18052070
:1012F00000EB0513E01C19180D4805F051F8681CA7
:1013000085B24545EEDB2388E01C1918E21C4FF638
:10131000FF70FDF7CFFF2088801C208039462046D3
:1013200000F028FF01E000203880BDE8F0810000D7
:10133000A041002010B5802202A1074806F052F813
:1013400010BD000030313233343536373839616200
:101350006364656600000000A041002008B50848ED
:10136000006828B969460920FEF752FC0449086064
:101370006A46002102480068FEF798FC08BD00009C
:101380001800002010B50448006818B10248006831
:10139000FEF7B4FD10BD000018000020014600203B
:1013A000034A506820F440400843506070470000F2
:1013B0000010024029B1064AD2690243044BDA61A7
:1013C00004E0034AD2698243014BDA6170470000AE
:1013D0000010024029B1064A12690243044B1A6107
:1013E00004E0034A12698243014B1A61704700000E
:1013F0000010024029B1064A92690243044B9A61E7
:1014000004E0034A92698243014B9A6170470000ED
:101410000010024029B1064AD2680243044BDA6048
:1014200004E0034AD2688243014BDA60704700004F
:101430000010024030B500210022002400232D4D71
:101440006D6805F00C0121B1042905D0082923D1CC
:1014500005E0294D056022E0284D05601FE0254D7F
:101460006D6805F47012234D6D6805F48034022513
:1014700005EB92421CB9224D554305600BE01D4D12
:101480006D6815F4003F03D01E4D5543056002E022
:101490001A4D5543056002E0174D056000BF00BFBF
:1014A000144D6D6805F0F0010909174D6B5C056876
:1014B000DD4045600F4D6D6805F4E061090A124D8D
:1014C0006B5C4568DD4085600A4D6D6805F46051D0
:1014D000C90A0D4D6B5C4568DD40C560054D6D6802
:1014E00005F44041890B094D6B5CC568B5FBF3F50C
:1014F000056130BD0010024000127A00001BB700E9
:1015000000093D00808D5B00A8000020B80000208D
:1015100000B599B0264A2021264800F053F8244A05
:10152000203220212348223000F04CF86A46642102
:101530002048443000F046F850B900201E490860A9
:101540008880886000211C4881810161818204E0DB
:10155000182269461848FBF7ABFD6A466421154816
:10156000AA3000F02FF8D8B901201449087048704B
:101570004FF47A7048804FF4486088801E20C880FD
:101580004FF47A70088140F648504881962088814F
:101590004EF6602008610A4848610320886104E033
:1015A0001C2269460548FBF783FD19B000BD000009
:1015B0001D07002000F80308A43F0020602F002032
:1015C000289A01002DE9F84306460D469046284624
:1015D00005EBD0714910B5EB41012DD11948864278
:1015E0002AD370191849884226D8002409E036F811
:1015F000147008F81470380A08EB44014870601C35
:1016000084B205EBD571B4EB610FF0DB36F81470E2
:101610002B46424669464FF6FF70FDF74BFE9DF89C
:101620000000F9B2884207D19DF80100B0EB172FF6
:1016300002D10120BDE8F88329464046FBF76AFD48
:101640000020F7E700F80308000004082DE9F04344
:101650008BB005460C46A979687901EB00201FFA8A
:1016600080F8297AE87901EB002087B2B8F1110FF0
:101670007ED10D2F7DD14FF000090026FCF790FCA4
:1016800040480688072200213FA002F04DFD0220BD
:1016900020802288E91CE01CFBF7C5FC7806010EBF
:1016A0002288501C2080E01C815400212288501C7C
:1016B0002080E01C815410212288501C2080E01CD6
:1016C000815400200790089009900A90039004909C
:1016D000059006903EBB2B484068019029488068E1
:1016E0000290284A9168506807AA03F041F838B977
:1016F0004FF6FF7600200790089009900A9011E0BD
:1017000003A907A803F0A6FB38B94FF6FF7600201F
:10171000039004900590069004E0082101A8FCF7CE
:101720006DFA814600BF310A2288501C2080E01CDF
:1017300081542288501C2080E01C86542288E11CA1
:1017400050184A4613A1FBF7C9F9208808302080B9
:1017500000212288501C2080E01C81542288E11C3A
:1017600050180D2203A9FBF75EFC20880D3001E024
:1017700003E001E0208000BF00BF00BF0BB0BDE868
:10178000F08300007C2F0020B2E9D1AFBDE1B9FBAE
:101790003A000000253038580000000021B10288CE
:1017A00042F04002028004E002884FF6BF731A4004
:1017B000028070470246002013890B4201D00120AD
:1017C00000E000207047014688897047818170479A
:1017D00010B50022028802F441520B884C88234342
:1017E0008C882343CC8823430C8923434C8923438F
:1017F0008C892343CC8923431A430280838B4FF285
:10180000FF74234083830B8A038210BD704700005E
:101810002DE9F04387B007460C464FF000092646F5
:10182000052F14D1307820B1012805D002280AD123
:1018300005E04FF0010909E04FF0010906E0012041
:101840007070814602E04FF0000900BF21E10F2FC8
:1018500076D2DFE807F00812595F757575757575F2
:10186000BFC5D6E7FF0040218C48FDF794FC00F08F
:10187000DBFA08B14FF0010903E1012305AA0021B9
:10188000492000F02DFA9DF81400E0BB102101A8BA
:1018900000F0AEF9B8B39DF804000121B1EBA01F30
:1018A0000CD19DF80D009DF80C1000EB0120401CA0
:1018B0001FFA80F84FEA8820206022E09DF8090096
:1018C00000F00F009DF80E1000EBD1109DF80D10E8
:1018D00001F0030100EB4100851C9DF80C00801114
:1018E0009DF80B1000EB81009DF80A1001F0030138
:1018F00000EB812000F10108A5F1090008FA00F0D1
:1019000020604FF00109BCE04FF4007020604FF000
:101910000109B6E06248007810F0040F21D00223DC
:1019200005AA0021CD2000F0DBF99DF81400E8BBEA
:10193000102101A800F05CF901284AD1302505E00A
:101940009CE0FF2000F026FD681EC5B2002DF8D1F6
:101950009DF80E0001111020884020604FF0010911
:1019600037E0012305AA0021492000F0B9F99DF8CC
:101970001400D8B9102101A800F03AF9012828D1A3
:101980004748007810F0020F11D09DF80E00800635
:10199000400E9DF80F1000EBD110401C9DF8111067
:1019A0000122C2EBA1118840206010E011E09DF8F7
:1019B0000F008007C00E9DF80F1000EB5110401C67
:1019C0009DF80E10C1F38401491C484320604FF07C
:1019D000010956E03248007830704FF0010950E0BC
:1019E000012305AA0021492000F07AF99DF814008E
:1019F00030B9102101A800F0FBF8012800D1814680
:101A00003FE0012305AA00214A2000F069F99DF872
:101A1000140030B9102101A800F0EAF8012800D123
:101A200081462EE0012305AA00217A2000F058F912
:101A30009DF8140068B9042507E00BE0FF2000F0D2
:101A4000A9FC06F8010B681EC5B2002DF6D14FF0B7
:101A5000010916E0012305AA0021CD2000F040F97C
:101A60009DF8140048B9FF2000F094FC4021304656
:101A700000F0BEF8012800D1814602E04FF00009D5
:101A800000BF00BF40210548FDF787FBFF2000F0A5
:101A900081FC484607B0BDE8F0830000000C01401F
:101AA000400000202DE9FC410025002600F05CFCF0
:101AB0000746382000F08AFC40214A48FDF76DFBBC
:101AC000002403E0FF2000F065FC641C0F2CF9D318
:101AD00000F052FCC0084449086040214148FDF72D
:101AE0005AFB01236A460021402000F0F9F89DF8D6
:101AF0000000012861D105236A464FF4D5714820C2
:101B000000F0EEF89DF80000012829D19DF80300AF
:101B1000012852D19DF80400AA284ED13248046809
:101B200000BF01236A469907E92000F0D9F89DF823
:101B3000000010B1601E0400F3D1002C3DD005233D
:101B40006A4600217A2000F0CBF89DF8010010F0E1
:101B5000400F01D00C2000E00420054601262CE0B7
:101B600002252148046800BF01236A460021E920BC
:101B700000F0B6F89DF8000010B1601E0400F3D12B
:101B800074B9012500BF00BF01236A46002141202E
:101B900000F0A6F89DF8000010B1601E0400F3D11B
:101BA00054B101236A465902502000F099F89DF87B
:101BB000000010B9012600E000250C480570402106
:101BC0000848FDF7EAFAFF2000F0E4FB384600F091
:101BD000FDFB00F0D1FBC008034908603046BDE8BA
:101BE000FC810000000C0140440000204000002067
:101BF0002DE9FC4104460E464FF0010813480068E9
:101C0000C70800BFFF2000F0C5FB8DF800009DF85D
:101C10000000FE2802D0781E0700F3D187B100250E
:101C200005E0FF2000F0B6FB04F8010B6D1CB54287
:101C3000F7D3FF2000F0AEFBFF2000F0ABFB01E08C
:101C40004FF000084046BDE8FC8100004400002041
:101C50002DE9FC4107460D46144601261E48007832
:101C600010F0080F00D16D02012C10D101236A463B
:101C70002946512000F034F89DF8000028B961028F
:101C80003846FFF7B5FF06461CE000261AE00123A0
:101C90006A462946522000F023F800BF4FF4007135
:101CA0003846FFF7A5FF064606B904E007F50077BA
:101CB000601E0400F2D100BF01236A4600214C20BF
:101CC00000F00EF840210548FDF767FAFF2000F00C
:101CD00061FB3046BDE8FC8140000020000C014063
:101CE0002DE9F04705460E4614461F4615F0800FB5
:101CF0000CD005F07F053B46224600217720FFF7F8
:101D0000EFFF2078012801DDBDE8F08740212B4856
:101D1000FDF743FA40212948FDF73DFA00F084F829
:101D200010B9FF202070EFE7284600F033FB300E9B
:101D300000F030FBC6F3074000F02CFBC6F3072091
:101D400000F028FBF0B200F025FB402D03D19520D8
:101D500000F020FB08E0482D03D1872000F01AFB9B
:101D600002E0012000F016FB4C2D02D1FF2000F014
:101D700011FB002F20DD4FF0000900BFFF2000F015
:101D800009FB20702078FF280FD04FF0000808E0F2
:101D9000641CFF2000F0FEFA207008F1010000F042
:101DA000FF08781E4045F3DC05E04846411C01F081
:101DB000FF090A28E2DB00BF00BFA5E7000C0140D5
:101DC00070B504460E4600F02FF8012801D000201F
:101DD00070BD304600F0DEFA0546FD2E01D101202F
:101DE000F6E7002500BF14F8010B00F0D3FA14F851
:101DF000010B00F0CFFA681EC0B20500F3D1FF203E
:101E000000F0C8FA0546FF2000F0C4FA0546FF209E
:101E100000F0C0FA054605F01F00052801D1012099
:101E2000D6E70020D4E7000070B50A4800684508EE
:101E3000FF2000F0AFFA00BFFF2000F0ABFA04462D
:101E4000FF2C02D0681E0500F6D10DB1012070BD37
:101E50000020FCE7440000202DE9FC4107460D4628
:101E6000144601262548007810F0080F00D16D02B5
:101E7000012C10D101236A4629465820FFF730FF74
:101E80009DF8000028B9FE213846FFF799FF064665
:101E90002AE0002628E01948007810F0060F05D047
:101EA00001236A462146D720FFF71AFF01236A461D
:101EB00029465920FFF714FF9DF8000098B900BF8C
:101EC000FC213846FFF77CFF064606B904E007F51B
:101ED0000077601E0400F3D100BFFD216846FFF7C4
:101EE0006FFF064600E0002640210548FDF755F942
:101EF000FF2000F04FFA3046BDE8FC814000002092
:101F0000000C01402DE9F04387B004460D46A1794D
:101F1000607901EB002086B2217AE07901EB0020A4
:101F200087B294F80980122E44D10C2F41D1B8F118
:101F3000180F3ED14FF0000901A904F1150003F07C
:101F400045F918B9F2201D49088017E01C49487866
:101F500005AB06AA01A902F099FC18B9F1201749AE
:101F600008800BE017480699016005994160FCF76D
:101F70008BFD08211348FBF741FE81460722002113
:101F800011A002F0D1F82088801E28802A88E11C48
:101F9000E81CFBF748F8094800880112A9720748B5
:101FA0000178E9724A460BA105F10C00FAF796FD9B
:101FB00000BF00BF00BF07B0BDE8F0837C2F00204A
:101FC000602F00201F000020D7A2C2EBBDE1B9FBAB
:101FD0003A00000025303858000000002DE9F0419B
:101FE00005460C46A979687901EB002086B2297A6A
:101FF000E87901EB002087B2102E1FD1012F1CD1F0
:10200000FCF7A6FA072200210EA002F08DF80420AA
:1020100020802288E91CE01CFBF705F80C480088AA
:1020200001122288501C2080E01C8154084801784D
:102030002288501C2080E01C815400E000BF00BFBB
:10204000BDE8F081BCECB2E2BDE1B9FB3A000000B2
:102050007C2F002010B5FCF761FF3420FCF7EEFE6A
:102060000A48FCF7F1FE042801D0002010BD45F21B
:10207000AA510648FCF732FF04480088A0F5AA419F
:10208000AA3901D00020F1E70120EFE700F00308B2
:1020900010B500F001F810BD0CB5002001900090C3
:1020A0003248006840F480303049086000BF2F4853
:1020B000006800F4003000900198401C01900098E6
:1020C00018B90198B0F5A06FF1D12848006810F454
:1020D000003F02D00120009001E000200090009815
:1020E000012842D12248006840F0100020490860D1
:1020F0000846006820F0030008600846006840F0C9
:10210000020008601948406818494860084640685D
:1021100048600846406840F480604860084640686F
:1021200020F47C1048600846406840F488104860FD
:102130000846006840F08070086000BF0B480068E7
:1021400010F0007FFAD00948406820F003000749EA
:1021500048600846406840F00200486000BF0348FD
:10216000406800F00C000828F9D10CBD00100240B6
:102170000020024070B505460C4600260120208054
:102180008102E01CFAF7C6FFC020E07000BF2AE021
:10219000E81C805DC0280CD1DB212288501C2080E7
:1021A000E01C8154DC212288501C2080E01C8154DA
:1021B00017E0E81C805DDB280CD1DB212288501C55
:1021C0002080E01C8154DD212288501C2080E01CEE
:1021D000815406E0E81C815D2288501C2080E01CB0
:1021E0008154701C86B22888B042D1DCC02122887C
:1021F000501C2080E01C815470BDF0B502460024C4
:10220000002500230020088000BF41E02CB9D01C2D
:10221000C05CC0283AD1012438E0012D1AD1D01C6D
:10222000C05CDC2808D0DD280DD1DB260F88781CA7
:102230000880C81CC6550AE0C0260F88781C088094
:10224000C81CC65503E000200880002400BF00BF62
:1022500000251BE0D01CC05CC02803D0DB280CD1BB
:10226000012512E00888022803DB11208870012074
:10227000F0BD00200880002507E0D01CC65C0F8858
:10228000781C0880C81CC65500BF00BF581C83B20C
:1022900010889842BADC0020EAE70000012080F3B1
:1022A000138800BF00BF0748006800F4E0600649DB
:1022B0000843001D03490860BFF3408F00BF00BF03
:1022C000FEE700000CED00E00000FA0500B587B065
