:020000040800F2
:10000000C8240020ED01000841110008C9100008B3
:100010003D110008C5030008F517000800000000A6
:10002000000000000000000000000000BD130008F8
:10003000D90A000800000000030200088116000829
:10004000070200080702000807020008070200086C
:10005000070200080702000807020008070200085C
:10006000070200080702000807020008070200084C
:10007000070200080702000807020008070200083C
:10008000070200080702000807020008070200082C
:10009000070200080702000807020008D10B000849
:1000A000070200080702000807020008070200080C
:1000B00007020008070200080702000807020008FC
:1000C00007020008070200080702000807020008EC
:1000D000070200082D1700080702000807020008A1
:1000E00007020008070200080702000807020008CC
:1000F00007020008070200080702000807020008BC
:1001000007020008070200080702000807020008AB
:10011000070200080702000807020008070200089B
:10012000070200080702000807020008070200088B
:1001300000F002F800F03AF80AA090E8000C8244BF
:100140008344AAF10107DA4501D100F02FF8AFF29C
:10015000090EBAE80F0013F0010F18BFFB1A43F0A5
:10016000010318474469000064690000103A24BF85
:1001700078C878C1FAD8520724BF30C830C144BF0C
:1001800004680C607047000000230024002500264E
:10019000103A28BF78C1FBD8520728BF30C148BFEA
:1001A0000B6070471FB51FBD10B510BD00F0AEF855
:1001B0001146FFF7F7FF03F0E5FE00F0CCF803B4BB
:1001C000FFF7F2FF03BC00F0D1F80000EFF3098065
:1001D000704780F309887047EFF30880704780F319
:1001E0000888704740BA7047C0BA704709488047CE
:1001F00009480047FEE7FEE7FEE7FEE7FEE7FEE709
:10020000FEE7FEE7FEE7FEE704480549054A064B20
:1002100070470000CD16000831010008C81E0020FC
:10022000C8240020C8200020C820002040EA010384
:10023000024630B59B0710D14FF0013400E008C2F0
:1002400008C91D1B9D4315EAC41FF8D013F0FF0118
:1002500002F8011B0DD01B0AF8E711F8013B002B37
:1002600002F8013B05D011F8013B002B02F8013BDD
:10027000F3D130BD4FF000020429C0F0128010F01D
:10028000030C00F01B80CCF1040CBCF1020F18BF72
:1002900000F8012BA8BF20F8022BA1EB0C0100F005
:1002A0000DB85FEAC17C24BF00F8012B00F8012BD8
:1002B00048BF00F8012B70474FF0000200B513460D
:1002C00094469646203922BFA0E80C50A0E80C5076
:1002D000B1F12001BFF4F7AF090728BFA0E80C5027
:1002E00048BF0CC05DF804EB890028BF40F8042B20
:1002F00008BF704748BF20F8022B11F0804F18BF8D
:1003000000F8012B7047704770477047754600F042
:1003100029F8AE4605006946534620F00700854699
:1003200018B020B5FFF770FFBDE820404FF0000681
:100330004FF000074FF000084FF0000B21F00701CD
:10034000AC46ACE8C009ACE8C009ACE8C009ACE810
:10035000C0098D4670470446AFF300802046FFF782
:100360002EFF000000487047641E0020014918203D
:10037000ABBEFEE7260002007047000010B50D4836
:1003800000680D490840B0F1005F12D10B480088A9
:10039000A0F57F41FF390CD172B60648001D0068F8
:1003A0000749086003490868FFF719FF0448006817
:1003B000804710BD00C800080000FE2F00F00308B1
:1003C0000400002000BFFEE710B500202D49487052
:1003D00000F0F6FF2C482D49486012212B4801817E
:1003E0002B482A49C86029212848018229482749E1
:1003F000486104212548018327482449C8610E210A
:10040000224801842548214948620E211F48018560
:10041000052000F081FF40F008042146052001F08E
:1004200069FB052001F03BF9052000F075FF20F085
:1004300008042146052001F05DFB052001F02FF99D
:100440000021082001F056FB0E210C2001F052FB88
:100450000E210D2001F04EFB02210E2001F04AFB7F
:100460001F21092001F046FB0721084601F042FB4D
:100470004021052001F03EFB0321062001F03AFB5C
:1004800010BD0000581E0020446A0008281A0020F1
:10049000566A0008246A0008286A0008366A0008BC
:1004A0002DE9FC41092000F037FF054615F0020F49
:1004B00014D00021082001F01DFB0E210C2001F0BA
:1004C00019FB0E210D2001F015FB02210E2001F079
:1004D00011FB1221092001F00DFBF8E115F0010FCD
:1004E00073D00A2000F018FF064606F00F00092816
:1004F0001ED006DC002869D0022807D0082866D163
:1005000084E10A2805D00C28F9D11FE000F0E6FAB2
:10051000BAE10E2000F000FF20F00300801C80F004
:10052000400739460E2001F0E5FA00F04BFBABE145
:100530000D2000F0F1FE20F00F0040F00E0080F0E2
:10054000400739460D2001F0D5FA9DE10020E14930
:1005500008700B2000F0E0FE0446082C73D16A46B8
:100560002146282000F0B6FE9DF80600DA49087002
:100570009DF8070018B9084600787F2802DD7F2023
:10058000D549087000249DF8000010F0200F0ED00F
:100590009DF80100FE2809D10021202001F0AAFACF
:1005A000CD480078012802DB012400E000BF9DF85F
:1005B000000010F0600F6FD19DF80100C74908706E
:1005C000084600780B2868D202E063E156E15AE160
:1005D000DFE800F0DB8DECECEC7806EC7D88D100F8
:1005E0009DF80300012806D002280BD0032810D064
:1005F000222840D13AE0BA484068BA490860B84871
:10060000047A3CE0B648C068B6490860B448047C47
:1006100035E09DF80200B8B1012804D002280AD0C4
:1006200022281DD117E0AE48C069AE490860AC4829
:1006300090F8204018E0AA48406AAA490860A848F3
:1006400090F8284010E0BAE0A5484069A549086044
:10065000A348047E08E0A448A2490860262403E0D9
:1006600001209C49087000BF00BF08E09E489D49DA
:100670000860262403E001209649087000BF00BFEF
:1006800095480078A04201DD9348047092480078B4
:10069000082803DB082003E08DE087E08E4800781F
:1006A0000446904821460268202001F001FA8A4859
:1006B0000078001B884908708A48006820448949EE
:1006C000086077E09DF802008349087072E087486F
:1006D0000178202001F00EFA7F480078012800DB25
:1006E000012467E09DF802008049087062E09DF8EF
:1006F000000000F01F00022839D19DF804000128F5
:1007000026D002280ED0812816D082282AD10E2089
:1007100000F002FE20F00300871C39460E2001F095
:10072000E9F923E00E2000F0F7FD20F0300739460C
:100730000E2001F0DFF919E00D2000F0EDFD20F0B2
:100740000F0040F00E0739460D2001F0D3F90DE0FF
:100750000D2000F0E1FD20F0300739460D2001F0BA
:10076000C9F903E001205B49087000BF02E00120E5
:10077000584908701EE00021202001F0BBF95648BE
:100780000078012800DB012414E00021202001F082
:10079000B1F90021212001F0ADF94F48007802287D
:1007A00001DB022401E04C48047803E001204949C0
:1007B000087000BF06E001204649087002E00120F1
:1007C000444908704348007820B13F210C2001F0D3
:1007D00091F91AE0082C0DDC0C2000F09DFD20F0B2
:1007E000300064F3030040F0400739460C2001F06C
:1007F00081F90AE00C2000F08FFD20F03F0040F06E
:100800008E0739460C2001F075F93DE03348007839
:10081000052826D006282AD12F480078082801DB91
:10082000082001E02C48007804462E482146026842
:10083000202001F03DF928480078001B2649087067
:10084000284800682044274908600C2000F064FD17
:1008500064F3030080F0400739460C2001F04AF9A8
:100860000AE01D480178082001F044F900BF0E217C
:100870000C2001F03FF900BF00BF05E00E210C2065
:1008800001F038F900E000BF00BF1121092001F09C
:1008900031F91CE015F0040F0DD01421092001F0EE
:1008A00029F9052000F038FD40F001073946052000
:1008B00001F020F90BE015F0080F04D018210920F1
:1008C00001F018F903E01F21092001F013F9BDE838
:1008D000FC81000011000020130000201200002005
:1008E000281A0020140000207F6A00081000002051
:1008F00010B501E0FFF7D4FD4021034800F092FB62
:100900000028F7D010BD00000010014000B587B0EE
:100910000121082000F0CEFC0121880300F0BAFC80
:1009200010208DF81B0003208DF81A004FF4805022
:10093000ADF8180006A91C4800F0A2FA18208DF89E
:100940001B004FF46040ADF8180006A9164800F0EF
:1009500097FA4FF48051144800F06FFB0020ADF877
:1009600004004FF48270ADF806000020ADF80800D6
:100970000220ADF80A000120ADF80C004002ADF8ED
:100980000E001020ADF810000020ADF81200072076
:10099000ADF8140001A9054800F0F2FC012103485C
:1009A00000F0D4FC07B000BD000C0140003800404E
:1009B00010B5044600BF02210A4800F0D3FC00280D
:1009C000F9D02146074800F0D9FC00BF01210548B5
:1009D00000F0C8FC0028F9D0024800F0CCFCC0B2FE
:1009E00010BD00000038004070B505460C464FF4BD
:1009F00080510C4800F01FFB2846FFF7D9FF8020EC
:100A0000FFF7D6FF02E00020FFF7D2FF2000A4F19D
:100A10000101CCB2F7D14FF48051024800F00DFB38
:100A200070BD0000000C01401FB50121142000F032
:100A300041FC0121084600F03DFC03208DF80E002A
:100A400048208DF80F004020ADF80C0003A9204885
:100A500000F016FA4FF40060ADF80C0048208DF855
:100A60000F0003A91A4800F00BFA10208DF80F00B0
:100A700003208DF80E004FF48070ADF80C0003A930
:100A8000144800F0FDF90621022000F0D9F94020B9
:100A9000019000208DF8080010208DF80900012039
:100AA0008DF80A0001A800F0B9F817208DF80000B1
:100AB00001208DF8010000208DF8020001208DF842
:100AC0000300684600F03EFBFFF720FF1FBD00005B
:100AD00000100140000801407047000010B50B20D5
:100AE00000F01AFC04460D4800882044B0F5806FE1
:100AF00002DD00200949088008480188C01C0A1846
:100B00002146C02000F0E6FB044800882044034949
:100B10000880084600F0CCFC10BD0000541A0020EC
:100B20002DE9F04706460C460025002747E0002047
:100B300023490870A54202DB0120BDE8F08705F1DA
:100B40004000A04201DC40270BE02046E11704EB07
:100B500091618911A4EB8111CFB240210846FFF7C2
:100B600043FF72193946402000F0A2FF40210B20BC
:100B700000F0C0FF0E2000F0CFFB20F0030080F05B
:100B8000800949460E2000F0B5FFE819C5B24FF0C4
:100B9000000801E00120D0E7094800780128F9D0D9
:100BA00009E008F101001FFA80F847F23050804553
:100BB00001DD0020C1E7024800780028F1D0B6E747
:100BC000180000200120014908707047180000201B
:100BD00010B5402000F00EF820B1402000F004F8DD
:100BE000FFF786FE10BD0000014908607047000055
:100BF00014040140014600200022074B1B6803EA51
:100C00000102054B14331B680B4202D00AB10120CC
:100C100000E000207047000000040140002123494B
:100C20008279002A3AD00A46126803689A430B4632
:100C30001A600A1D126803689A430B1D1A60027934
:100C400011440A6803681A430A60184A0832126895
:100C500003689A43154B08331A601A1D126803681B
:100C60009A43124B0C331A604279102A0ED11A1F84
:100C7000126803681A430D4B08331A601A1D126874
:100C800003681A43094B0C331A600DE00749427997
:100C900011440A6803681A430A6005E002791144A6
:100CA0000A6803689A430A60704700000004014024
:100CB000F8B504460D460027002604200090114890
:100CC000844202D3B5F54A3F01D90020F8BD00F0B7
:100CD00097F8EF0A342000F017F800260DE04FF4E3
:100CE000006101FB064000F015F800909DF800003F
:100CF000042801D00020E9E7761CBE42EFD3012092
:100D0000E4E7000000C800080149C860704700001F
:100D10000020024030B5044604254FF4302000F096
:100D20007BF80546042D17D10C48006940F00200FD
:100D30000A49086108464461006940F040000861C2
:100D40004FF4302000F068F805460448006941F689
:100D5000FD71084001490861284630BD002002406D
:100D600004200B49C96811F0010F01D001200EE0E9
:100D70000749C96811F0040F01D0022007E00449B7
:100D8000C96811F0100F01D0032000E00420704763
:100D90000020024078B506460C460425002000904D
:100DA000E80200F039F80546042D24D11348006903
:100DB00040F00100114908613480E80200F02CF88D
:100DC0000546042D10D1B01C0090200C009908801D
:100DD000E80200F021F805460848006941F6FE7176
:100DE00008400649086106E00448006941F6FE71C2
:100DF000084002490861284678BD000000200240F2
:100E0000024803494860034848607047230167452A
:100E100000200240AB89EFCD00B502460423FFF766
:100E20009FFF034603E0FFF79BFF0346521E012B83
:100E300001D1002AF7D102B90523184600BD0000F0
:100E400030B500228B071C0F0F2303FA04F20B4B63
:100E50008C1053F824309343084C8D1044F82530FF
:100E600023468C1053F824308C07240F00FA04F426
:100E70002343024C8D1044F8253030BD080001405A
:100E80002DE9F04102460025002600200023002421
:100E9000002791F803C00CF00F0591F803C01CF077
:100EA000100F03D091F802C04CEA050591F800C07C
:100EB000BCF1000F31D0146800202BE04FF0010C82
:100EC0000CFA00F3B1F800C00CEA03069E4220D1F0
:100ED00083004FF00F0C0CFA03F7BC4305FA03FC38
:100EE0004CEA040491F803C0BCF1280F06D14FF07E
:100EF000010C0CFA00FCC2F814C00AE091F803C01F
:100F0000BCF1480F05D14FF0010C0CFA00FCC2F8FF
:100F100010C0401C0828D1D31460B1F800C0BCF147
:100F2000FF0F34DD546800202EE000F1080C4FF074
:100F3000010808FA0CF3B1F800C00CEA03069E425F
:100F400021D183004FF00F0C0CFA03F7BC4305FAD4
:100F500003FC4CEA040491F803C0BCF1280F05D14E
:100F600000F1080C08FA0CF8C2F8148091F803C0DC
:100F7000BCF1480F07D100F1080C4FF0010808FA46
:100F80000CF8C2F81080401C0828CED35460BDE88D
:100F9000F0810000F0B50A4600230024002100255E
:100FA00000F00046B6F1004F02D11D4EF16901E09C
:100FB0001B4E7168C0F3034583B200F44016B6F5CA
:100FC000401F08D121F07061154E766826F07066DA
:100FD000134F7E6012E000F48016B6F5801F06D134
:100FE000032606FA05F4A14341F0706106E0460DC0
:100FF000360103FA06F6B14341F0706122B1460DA5
:10100000360103FA06F6314300F00046B6F1004F10
:1010100002D1034EF16101E0014E7160F0BD0000AC
:10102000000001400246002093680B4201D00120DD
:1010300000E0002070474161704701617047000087
:10104000F0B504461E46FF23FF2500272312E5B214
:1010500009E012F8010B80EA05070948C05D80EA43
:1010600003050848C35D3000A6F1010C1FFA8CF699
:10107000EFD109B10B704D7005EB032080B2F0BDCC
:10108000FC3F0008FC40000830B5002303804124E9
:1010900005886B1C0380C31C5C550C1205886B1CF7
:1010A0000380C31C5C5505886B1C0380C31C595509
:1010B000140A05886B1C0380C31C5C5505886B1CD7
:1010C0000380C31C5A5530BD00BFFEE708B501219F
:1010D000052000F0EFF801211648FFF75BFF012122
:1010E0001548FFF7A8FF02211348FFF7A4FF4FF4AC
:1010F00000411148FFF79FFF03208DF802001020E8
:101100008DF803000120ADF8000069460A48FFF79A
:10111000B7FE0220ADF8000069460748FFF7B0FEB1
:101120004FF40040ADF8000069460348FFF7A8FE01
:1011300008BD0000000230000008014000BFFEE7CB
:101140007047000070B5002100230F22C4780CB353
:10115000164C246804F4E064C4F5E064210AC1F18B
:101160000403CA40447804FA03F18478144021430C
:1011700009010F4C0678A155047804F01F050124DD
:10118000AC4005786D114FF0E02606EB8505C5F8FB
:10119000004109E0047804F01F050124AC40054D2E
:1011A0000678761145F8264070BD00000CED00E091
:1011B00000E400E080E100E02DE9F04104460F4644
:1011C000208805284BDB2088801CB0F5FF7F46DC9B
:1011D0002088401F86B22288C2F580611346E21C37
:1011E0009818FFF747F806F11200C11700EB1171CC
:1011F0000911052202EB0111218032122088801E84
:10120000E11C0A542088401E0E542188481FC11733
:1012100000EB1171C1F30F1800250EE0052000EB63
:101220000513E01C1A18052000EB0513E01C191823
:101230000D4801F09BFC681C85B24545EEDB238818
:10124000E01C1918E21C4FF6FF70FFF7F9FE20882A
:10125000801C20803946204600F066F901E000201D
:101260003880BDE8F08100001C10002010B58022FD
:1012700002A1074802F09CFC10BD0000303132335F
:1012800034353637383961626364656600000000C2
:101290001C10002029B1064AD2690243044BDA61CE
:1012A00004E0034AD2698243014BDA6170470000CF
:1012B0000010024029B1064A92690243044B9A6128
:1012C00004E0034A92698243014B9A61704700002F
:1012D0000010024070B506460D4614464FF480518A
:1012E0000C48FFF7A8FE3046FFF762FBC020FFF76F
:1012F0005FFB04E0FF20FFF75BFB04F8010B280015
:10130000A5F10101CDB2F5D14FF480510148FFF7AD
:1013100094FE70BD000C014070B504464FF480513E
:101320000948FFF788FE2046FFF742FBC020FFF781
:101330003FFBFF20FFF73CFB05464FF4805102487E
:10134000FFF77BFE284670BD000C014021B10288EA
:1013500042F04002028004E002884FF6BF731A4058
:10136000028070470246002013890B4201D0012001
:1013700000E00020704701468889704781817047EE
:1013800010B50022028802F441520B884C88234396
:101390008C882343CC8823430C8923434C892343E3
:1013A0008C892343CC8923431A430280838B4FF2D9
:1013B000FF74234083830B8A038210BD70470000B3
:1013C0000149087070470000581E002010B500F059
:1013D00001F810BD0CB50020019000903248006863
:1013E00040F480303049086000BF2F48006800F4A6
:1013F000003000900198401C0190009818B90198A5
:10140000B0F5A06FF1D12848006810F4003F02D079
:101410000120009001E0002000900098012842D1B6
:101420002248006840F01000204908600846006823
:1014300020F0030008600846006840F002000860E1
:10144000194840681849486008464068486008469E
:10145000406840F4806048600846406820F47C1092
:1014600048600846406840F48810486008460068B4
:1014700040F08070086000BF0B48006810F0007FEB
:10148000FAD00948406820F0030007494860084640
:10149000406840F00200486000BF0348406800F028
:1014A0000C000828F9D10CBD0010024000200240B9
:1014B00070B5014600240B8800222BE074B9C81CCB
:1014C000805CC02824D1012400200880C81C855CD1
:1014D0000E88701C0880C81C855519E0C81C855CE6
:1014E0000E88701C0880C81C8555805CC0280FD1F0
:1014F0000888052803DB11208870012070BD0020BA
:101500000880C81C855C0E88701C0880C81C855526
:10151000501C82B29A42D1DB0888B0F5806F01D1AD
:10152000002008800020E9E770B505460C4600263B
:10153000012020808102E01CFEF79CFEC020E070AC
:1015400000BF2AE0E81C805DC0280CD1DB21228886
:10155000501C2080E01C8154DC212288501C2080FB
:10156000E01C815417E0E81C805DDB280CD1DB21F6
:101570002288501C2080E01C8154DD212288501CD0
:101580002080E01C815406E0E81C815D2288501C0C
:101590002080E01C8154701C86B22888B042D1DCC7
:1015A000C0212288501C2080E01C815470BDF0B501
:1015B00002460024002500230020088000BF41E0EF
:1015C0002CB9D01CC05CC0283AD1012438E0012DD0
:1015D0001AD1D01CC05CDC2808D0DD280DD1DB2658
:1015E0000F88781C0880C81CC6550AE0C0260F88E2
:1015F000781C0880C81CC65503E000200880002421
:1016000000BF00BF00251BE0D01CC05CC02803D079
:10161000DB280CD1012512E00888022803DB112009
:1016200088700120F0BD00200880002507E0D01C54
:10163000C65C0F88781C0880C81CC65500BF00BF58
:10164000581C83B210889842BADC0020EAE70000F8
:10165000012080F3138800BF00BF0748006800F432
:10166000E06006490843001D03490860BFF3408F4E
:1016700000BF00BFFEE700000CED00E00000FA052F
:101680007047002108E0002201E0531C9AB2B2F535
:10169000467FFADD4B1CD9B28142F4DB704730B58E
:1016A0000446002504E00A20FFF7EBFF681CC5B2E2
:1016B000A542F8DB30BD10B5FFF708FDFFF7D6FDFA
:1016C000FFF7B2F9FEF780FE10BD000010B5134819
:1016D000006840F001001149086008464068104960
:1016E00008400E494860084600680E4908400B490A
:1016F00008600846006820F48020086008464068BA
:1017000020F4FE0048604FF41F008860FFF75EFE83
:101710004FF000600449086010BD00000010024056
:101720000000FFF8FFFFF6FE08ED00E07047000044
:10173000F8B506460C4621463046FFF738FF08B993
:101740000020F8BD2088801E83B2E21C69464FF657
:10175000FF70FFF775FC9DF800202088801EE11CBB
:10176000085C824242D19DF801202088401E085C1E
:1017700082423BD12088801E20802188052935DDCA
:101780002188481FC11700EB11710911B0EB01113D
:101790002CD12188481FC11700EB1171C1F30F171D
:1017A00000250EE0052000EB0513E01C1A180520AB
:1017B00000EB0513E01C19180D4800F0B5F9681C82
:1017C00085B2BD42EEDB2088801EE11C085C05214D
:1017D00001EB00222088401EE11C085C10442080A0
:1017E000002030801020B0700120AAE70020A8E778
:1017F0001C10002000BFFEE72DE9F04105460C4615
:101800000027002640F204412046FEF733FD2888D9
:1018100005287DDBE878412802D0E878002877D1D8
:101820006979287901EB002087B2E979A87901EB81
:10183000002086B2A7F5807005286AD2DFE800F0A4
:10184000031C42799F00A6F57F40FF3813D1324632
:1018500039462046FFF718FC2288E11C501851A198
:10186000FEF7E4FC2088103020800D212288501CD7
:101870002080E01C81548DE0A6F57F40FF3820D108
:10188000288805281DD1324639462046FFF7FCFB43
:101890004FF44A314848FFF70BFA30B13121228822
:1018A000501C2080E01C815405E032212288501C0D
:1018B0002080E01C81540D212288501C2080E01CD7
:1018C000815467E0A6F57F40FF3831D12888092888
:1018D0002EDD324639462046FFF7D6FB287A010630
:1018E000687A01EB0041A87A01EB0021E87A01EB6C
:1018F00000082888A0F1090205F10C01404600F01B
:101900005FF848B932212288501C2080E01C01E099
:1019100045E03EE0815405E031212288501C2080C2
:10192000E01C81540D212288501C2080E01C815431
:1019300030E0A6F57F40FF3820D1288805281DD14A
:10194000324639462046FFF79FFB4FF400611B48A3
:10195000FFF7AEF930B131212288501C2080E01C05
:10196000815405E032212288501C2080E01C8154E3
:101970000D212288501C2080E01C81540AE0A6F52D
:101980007F40FF3804D12888052801D1FFF760FE89
:1019900000E000BF00BFE87808B900202080BDE863
:1019A000F08100004D4D30305F56312E305F3138C0
:1019B000303632350000000000C8000800F003088F
:1019C0002DE9F04780460D461746FFF719FA4646BF
:1019D0004FEA970A002426E008EB840615F8240055
:1019E00005EB8401497800EB012005EB840189783F
:1019F00000EB014005EB8401C97800EB01692A483E
:101A000086420DD3301D2949884209D849463046BF
:101A1000FFF7C0F93068484504D00020BDE8F087E2
:101A20000020FBE7641C5445D6D317F0030F38D0D1
:101A300008EB840607F00300012804D115F8240000
:101A4000A0F580791BE007F00300022809D115F802
:101A5000240005EB8401497800EB0120A0F58039D2
:101A60000DE015F8240005EB8401497800EB012016
:101A700005EB8401897800EB0140A0F180790A48E8
:101A800086420CD3301D0949884208D84946304661
:101A9000FFF780F93078484503D00020BEE70020EA
:101AA000BCE70120BAE7000000C8000800F0030806
:101AB00070B506460D4614464FF480510C48FFF7AA
:101AC000BAFA3046FEF774FF8020FEF771FF03E09C
:101AD00014F8010BFEF76CFF2800A5F10101CDB24F
:101AE000F6D14FF480510248FFF7A7FA70BD00000D
:101AF000000C014070B505460C464FF48051094872
:101B0000FFF799FA2846FEF753FF8020FEF750FFB3
:101B10002046FEF74DFF4FF480510248FFF78DFA43
:101B200070BD0000000C01402DE9F74F884691463A
:101B3000DDF800A00AF5807098F800A04FEA0A6A64
:101B400098F801B04AEA0B4A98F802B04AEA0B2A20
:101B500098F803B04AEA0B01D0F800A08AEA010124
:101B600098F804A04FEA0A6A98F805B04AEA0B4AC6
:101B700098F806B04AEA0B2A98F807B04AEA0B022E
:101B8000D0F804A08AEA020298F808A04FEA0A6A8C
:101B900098F809B04AEA0B4A98F80AB04AEA0B2AC0
:101BA00098F80BB04AEA0B03D0F808A08AEA0303BE
:101BB00098F80CA04FEA0A6A98F80DB04AEA0B4A66
:101BC00098F80EB04AEA0B2A98F80FB04AEA0B04CC
:101BD000D0F80CA08AEA040410304FEA116BDFF849
:101BE00078EF5EF82BB0D0F800A08AEA0B0ADFF895
:101BF0006CBFC4F3074E5BF82EB08AEA0B0ADFF81D
:101C000060BFC3F3072E5BF82EB08AEA0B0A02F01E
:101C1000FF0BDFF850EF5EF82BB08AEA0B054FEAB6
:101C2000126BDFF834EF5EF82BB0D0F804A08AEA2C
:101C30000B0ADFF828BFC1F3074E5BF82EB08AEA23
:101C40000B0ADFF81CBFC4F3072E5BF82EB08AEA3C
:101C50000B0A03F0FF0BDFF80CEF5EF82BB08AEAFB
:101C60000B064FEA136BDFF8F0EE5EF82BB0D0F8FE
:101C700008A08AEA0B0ADFF8E4BEC2F3074E5BF85D
:101C80002EB08AEA0B0ADFF8D8BEC1F3072E5BF844
:101C90002EB08AEA0B0A04F0FF0BDFF8C8EE5EF8FC
:101CA0002BB08AEA0B074FEA146BDFF8ACEE5EF854
:101CB0002BB0D0F80CA08AEA0B0ADFF8A0BEC3F361
:101CC000074E5BF82EB08AEA0B0ADFF894BEC2F327
:101CD000072E5BF82EB08AEA0B0A01F0FF0BDFF843
:101CE00084EE5EF82BB08AEA0B0C10304FEA156BCD
:101CF000DFF864EE5EF82BB0D0F800A08AEA0B0A99
:101D0000DFF858BECCF3074E5BF82EB08AEA0B0A18
:101D1000DFF84CBEC7F3072E5BF82EB08AEA0B0A39
:101D200006F0FF0BDFF83CEE5EF82BB08AEA0B0101
:101D30004FEA166BDFF820EE5EF82BB0D0F804A067
:101D40008AEA0B0ADFF814BEC5F3074E5BF82EB023
:101D50008AEA0B0ADFF808BECCF3072E5BF82EB038
:101D60008AEA0B0A07F0FF0BDFF8F8ED5EF82BB0FC
:101D70008AEA0B024FEA176BDFF8DCED5EF82BB056
:101D8000D0F808A08AEA0B0ADFF8D0BDC6F3074EE8
:101D90005BF82EB08AEA0B0ADFF8C4BDC5F3072E44
:101DA0005BF82EB08AEA0B0A0CF0FF0BDFF8B4EDFB
:101DB0005EF82BB08AEA0B034FEA1C6BDFF898ED54
:101DC0005EF82BB0D0F80CA08AEA0B0ADFF88CBDC5
:101DD000C7F3074E5BF82EB08AEA0B0ADFF880BD26
:101DE000C6F3072E5BF82EB08AEA0B0A05F0FF0B4C
:101DF000DFF870ED5EF82BB08AEA0B0410304FEA82
:101E0000116BDFF854ED5EF82BB0D0F800A08AEA31
:101E10000B0ADFF848BDC4F3074E5BF82EB08AEA20
:101E20000B0ADFF83CBDC3F3072E5BF82EB08AEA3D
:101E30000B0A02F0FF0BDFF82CED5EF82BB08AEAFC
:101E40000B054FEA126BDFF810ED5EF82BB0D0F8FF
:101E500004A08AEA0B0ADFF804BDC1F3074E5BF861
:101E60002EB08AEA0B0ADFF8F8BCC4F3072E5BF841
:101E70002EB08AEA0B0A03F0FF0BDFF8E8EC5EF8FD
:101E80002BB08AEA0B064FEA136BDFF8CCEC5EF856
:101E90002BB0D0F808A08AEA0B0ADFF8C0BCC2F366
:101EA000074E5BF82EB08AEA0B0ADFF8B4BCC1F328
:101EB000072E5BF82EB08AEA0B0A04F0FF0BDFF85E
:101EC000A4EC5EF82BB08AEA0B074FEA146BDFF83C
:101ED00088EC5EF82BB0D0F80CA08AEA0B0ADFF889
:101EE0007CBCC3F3074E5BF82EB08AEA0B0ADFF81E
:101EF00070BCC2F3072E5BF82EB08AEA0B0A01F021
:101F0000FF0BDFF860EC5EF82BB08AEA0B0C1030A8
:101F10004FEA156BDFF840EC5EF82BB0D0F800A06C
:101F20008AEA0B0ADFF834BCCCF3074E5BF82EB01C
:101F30008AEA0B0ADFF828BCC7F3072E5BF82EB03D
:101F40008AEA0B0A06F0FF0BDFF818EC5EF82BB0FC
:101F50008AEA0B014FEA166BDFF8FCEB5EF82BB058
:101F6000D0F804A08AEA0B0ADFF8F0BBC5F3074EED
:101F70005BF82EB08AEA0B0ADFF8E4BBCCF3072E3D
:101F80005BF82EB08AEA0B0A07F0FF0BDFF8D4EB00
:101F90005EF82BB08AEA0B024FEA176BDFF8B8EB5A
:101FA0005EF82BB0D0F808A08AEA0B0ADFF8ACBBC9
:101FB000C6F3074E5BF82EB08AEA0B0ADFF8A0BB27
:101FC000C5F3072E5BF82EB08AEA0B0A0CF0FF0B64
:101FD000DFF890EB5EF82BB08AEA0B034FEA1C6B3C
:101FE000DFF874EB5EF82BB0D0F80CA08AEA0B0A8D
:101FF000DFF868BBC7F3074E5BF82EB08AEA0B0A1E
:10200000DFF85CBBC6F3072E5BF82EB08AEA0B0A3A
:1020100005F0FF0BDFF84CEB5EF82BB08AEA0B04FF
:1020200010304FEA116BDFF830EB5EF82BB0D0F8D0
:1020300000A08AEA0B0ADFF824BBC4F3074E5BF862
:102040002EB08AEA0B0ADFF818BBC3F3072E5BF841
:102050002EB08AEA0B0A02F0FF0BDFF808EB5EF8FD
:102060002BB08AEA0B054FEA126BDFF8ECEA5EF858
:102070002BB0D0F804A08AEA0B0ADFF8E0BAC1F36B
:10208000074E5BF82EB08AEA0B0ADFF8D4BAC4F325
:10209000072E5BF82EB08AEA0B0A03F0FF0BDFF87D
:1020A000C4EA5EF82BB08AEA0B064FEA136BDFF83E
:1020B000A8EA5EF82BB0D0F808A08AEA0B0ADFF88D
:1020C0009CBAC2F3074E5BF82EB08AEA0B0ADFF81F
:1020D00090BAC1F3072E5BF82EB08AEA0B0A04F01F
:1020E000FF0BDFF880EA5EF82BB08AEA0B074FEAB5
:1020F000146BDFF864EA5EF82BB0D0F80CA08AEA23
:102100000B0ADFF858BAC3F3074E5BF82EB08AEA21
:102110000B0ADFF84CBAC2F3072E5BF82EB08AEA3E
:102120000B0A01F0FF0BDFF83CEA5EF82BB08AEAFD
:102130000B0C10304FEA156BDFF81CEA5EF82BB081
:10214000D0F800A08AEA0B0ADFF810BACCF3074EE9
:102150005BF82EB08AEA0B0ADFF804BAC7F3072E41
:102160005BF82EB08AEA0B0A06F0FF0BDFF8F4E901
:102170005EF82BB08AEA0B014FEA166BDFF8D8E95C
:102180005EF82BB0D0F804A08AEA0B0ADFF8CCB9CD
:10219000C5F3074E5BF82EB08AEA0B0ADFF8C0B928
:1021A000CCF3072E5BF82EB08AEA0B0A07F0FF0B80
:1021B000DFF8B0E95EF82BB08AEA0B024FEA176B42
:1021C000DFF894E95EF82BB0D0F808A08AEA0B0A91
:1021D000DFF888B9C6F3074E5BF82EB08AEA0B0A1F
:1021E000DFF87CB9C5F3072E5BF82EB08AEA0B0A3C
:1021F0000CF0FF0BDFF86CE95EF82BB08AEA0B03FA
:102200004FEA1C6BDFF850E95EF82BB0D0F80CA059
:102210008AEA0B0ADFF844B9C7F3074E5BF82EB021
:102220008AEA0B0ADFF838B9C6F3072E5BF82EB03E
:102230008AEA0B0A05F0FF0BDFF828E95EF82BB0FD
:102240008AEA0B0410304FEA116BDFF80CE95EF8F4
:102250002BB0D0F800A08AEA0B0ADFF800B9C4F36B
:10226000074E5BF82EB08AEA0B0ADFF8F4B8C3F326
:10227000072E5BF82EB08AEA0B0A02F0FF0BDFF89C
:10228000E4E85EF82BB08AEA0B054FEA126BDFF840
:10229000C8E85EF82BB0D0F804A08AEA0B0ADFF891
:1022A000BCB8C1F3074E5BF82EB08AEA0B0ADFF820
:1022B000B0B8C4F3072E5BF82EB08AEA0B0A03F01D
:1022C000FF0BDFF8A0E85EF82BB08AEA0B064FEAB6
:1022D000136BDFF884E85EF82BB0D0F808A08AEA28
:1022E0000B0ADFF878B8C2F3074E5BF82EB08AEA23
:1022F0000B0ADFF86CB8C1F3072E5BF82EB08AEA40
:102300000B0A04F0FF0BDFF85CE85EF82BB08AEAFA
:102310000B074FEA146BDFF840E85EF82BB0D0F8FB
:102320000CA08AEA0B0ADFF834B8C3F3074E5BF857
:102330002EB08AEA0B0ADFF828B8C2F3072E5BF842
:102340002EB08AEA0B0A01F0FF0BDFF818E85EF8FE
:102350002BB08AEA0B0C10304FEA156BDFF8F8E768
:102360005EF82BB0D0F800A08AEA0B0ADFF8ECB7D1
:10237000CCF3074E5BF82EB08AEA0B0ADFF8E0B721
:10238000C7F3072E5BF82EB08AEA0B0A06F0FF0BA4
:10239000DFF8D0E75EF82BB08AEA0B014FEA166B44
:1023A000DFF8B4E75EF82BB0D0F804A08AEA0B0A95
:1023B000DFF8A8B7C5F3074E5BF82EB08AEA0B0A20
:1023C000DFF89CB7CCF3072E5BF82EB08AEA0B0A35
:1023D00007F0FF0BDFF88CE75EF82BB08AEA0B0200
:1023E0004FEA176BDFF870E75EF82BB0D0F808A063
:1023F0008AEA0B0ADFF864B7C6F3074E5BF82EB023
:102400008AEA0B0ADFF858B7C5F3072E5BF82EB03F
:102410008AEA0B0A0CF0FF0BDFF848E75EF82BB0F6
:102420008AEA0B034FEA1C6BDFF82CE75EF82BB04F
:10243000D0F80CA08AEA0B0ADFF820B7C7F3074EE2
:102440005BF82EB08AEA0B0ADFF814B7C6F3072E42
:102450005BF82EB08AEA0B0A05F0FF0BDFF804E701
:102460005EF82BB08AEA0B0410304FEA116BDFF8EC
:10247000E8E65EF82BB0D0F800A08AEA0B0ADFF895
:10248000DCB6C4F3074E5BF82EB08AEA0B0ADFF81D
:10249000D0B6C3F3072E5BF82EB08AEA0B0A02F01F
:1024A000FF0BDFF8C0E65EF82BB08AEA0B054FEAB7
:1024B000126BDFF8A4E65EF82BB0D0F804A08AEA2D
:1024C0000B0ADFF898B6C1F3074E5BF82EB08AEA24
:1024D0000B0ADFF88CB6C4F3072E5BF82EB08AEA3D
:1024E0000B0A03F0FF0BDFF87CE65EF82BB08AEAFC
:1024F0000B064FEA136BDFF860E65EF82BB0D0F8FE
:1025000008A08AEA0B0ADFF854B6C2F3074E5BF85C
:102510002EB08AEA0B0ADFF848B6C1F3072E5BF843
:102520002EB08AEA0B0A04F0FF0BDFF838E65EF8FB
:102530002BB08AEA0B074FEA146BDFF81CE65EF853
:102540002BB0D0F80CA08AEA0B0ADFF810B6C3F360
:10255000074E5BF82EB08AEA0B0ADFF804B6C2F326
:10256000072E5BF82EB08AEA0B0A01F0FF0BDFF8AA
:10257000F4E55EF82BB08AEA0B0CDDF800A0DAF87F
:1025800000A2BAF10A0F7DDD10304FEA156BDFF8BB
:10259000C8E55EF82BB0D0F800A08AEA0B0ADFF895
:1025A000BCB5CCF3074E5BF82EB08AEA0B0ADFF815
:1025B000B0B5C7F3072E5BF82EB08AEA0B0A06F017
:1025C000FF0BDFF8A0E55EF82BB08AEA0B014FEABB
:1025D000166BDFF884E55EF82BB0D0F804A08AEA29
:1025E0000B0ADFF878B5C5F3074E5BF82EB08AEA20
:1025F0000B0ADFF86CB5CCF3072E5BF82EB08AEA35
:102600000B0A07F0FF0BDFF85CE55EF82BB08AEAF7
:102610000B024FEA176BDFF840E55EF82BB0D0F8FD
:1026200008A08AEA0B0ADFF834B5C6F3074E5BF858
:102630002EB08AEA0B0ADFF828B5C5F3072E5BF83F
:102640002EB08AEA0B0A0CF0FF0BDFF818E55EF8F3
:102650002BB08AEA0B034FEA1C6BDFF8FCE45EF850
:102660002BB0D0F80CA08AEA0B0ADFF8F0B4C7F35D
:10267000074E5BF82EB08AEA0B0ADFF8E4B4C6F323
:10268000072E00E094E05BF82EB08AEA0B0A05F012
:10269000FF0BDFF8D0E45EF82BB08AEA0B041030B1
:1026A0004FEA116BDFF8B0E45EF82BB0D0F800A071
:1026B0008AEA0B0ADFF8A4B4C4F3074E5BF82EB025
:1026C0008AEA0B0ADFF898B4C3F3072E5BF82EB042
:1026D0008AEA0B0A02F0FF0BDFF888E45EF82BB001
:1026E0008AEA0B054FEA126BDFF86CE45EF82BB058
:1026F000D0F804A08AEA0B0ADFF860B4C1F3074EF1
:102700005BF82EB08AEA0B0ADFF854B4C4F3072E44
:102710005BF82EB08AEA0B0A03F0FF0BDFF844E403
:102720005EF82BB08AEA0B064FEA136BDFF828E459
:102730005EF82BB0D0F808A08AEA0B0ADFF81CB4C8
:10274000C2F3074E5BF82EB08AEA0B0ADFF810B42A
:10275000C1F3072E5BF82EB08AEA0B0A04F0FF0BD8
:10276000DFF800E45EF82BB08AEA0B074FEA146B3F
:10277000DFF8E4E35EF82BB0D0F80CA08AEA0B0A8D
:10278000DFF8D8B3C3F3074E5BF82EB08AEA0B0A22
:10279000DFF8CCB3C2F3072E5BF82EB08AEA0B0A3F
:1027A00001F0FF0BDFF8BCE35EF82BB08AEA0B0CFC
:1027B000DDF800A0DAF800A2BAF10C0F7DDD1030D0
:1027C0004FEA156BDFF890E35EF82BB0D0F800A06D
:1027D0008AEA0B0ADFF884B3CCF3074E5BF82EB01D
:1027E0008AEA0B0ADFF878B3C7F3072E5BF82EB03E
:1027F0008AEA0B0A06F0FF0BDFF868E35EF82BB0FD
:102800008AEA0B014FEA166BDFF84CE35EF82BB057
:10281000D0F804A08AEA0B0ADFF840B3C5F3074EEC
:102820005BF82EB08AEA0B0ADFF834B3CCF3072E3C
:102830005BF82EB08AEA0B0A07F0FF0BDFF824E3FF
:102840005EF82BB08AEA0B024FEA176BDFF808E359
:102850005EF82BB0D0F808A08AEA0B0ADFF8FCB2C9
:10286000C6F3074E5BF82EB08AEA0B0ADFF8F0B227
:10287000C5F3072E5BF82EB08AEA0B0A0CF0FF0BAB
:10288000DFF8E0E25EF82BB08AEA0B034FEA1C6B3C
:10289000DFF8C4E25EF82BB0D0F80CA08AEA0B0A8D
:1028A000DFF8B8B2C7F3074E5BF82EB08AEA0B0A1E
:1028B000DFF8ACB2C6F3072E00E094E05BF82EB070
:1028C0008AEA0B0A05F0FF0BDFF898E25EF82BB0FE
:1028D0008AEA0B0410304FEA116BDFF87CE25EF8F5
:1028E0002BB0D0F800A08AEA0B0ADFF870B2C4F36C
:1028F000074E5BF82EB08AEA0B0ADFF864B2C3F326
:10290000072E5BF82EB08AEA0B0A02F0FF0BDFF805
:1029100054E25EF82BB08AEA0B054FEA126BDFF83F
:1029200038E25EF82BB0D0F804A08AEA0B0ADFF890
:102930002CB2C1F3074E5BF82EB08AEA0B0ADFF81F
:1029400020B2C4F3072E5BF82EB08AEA0B0A03F01C
:10295000FF0BDFF810E25EF82BB08AEA0B064FEAB5
:10296000136BDFF8F4E15EF82BB0D0F808A08AEA28
:102970000B0ADFF8E8B1C2F3074E5BF82EB08AEA23
:102980000B0ADFF8DCB1C1F3072E5BF82EB08AEA40
:102990000B0A04F0FF0BDFF8CCE15EF82BB08AEAFB
:1029A0000B074FEA146BDFF8B0E15EF82BB0D0F8FC
:1029B0000CA08AEA0B0ADFF8A4B1C3F3074E5BF858
:1029C0002EB08AEA0B0ADFF898B1C2F3072E5BF843
:1029D0002EB08AEA0B0A01F0FF0BDFF888E15EF8FF
:1029E0002BB08AEA0B0C10304FEA156BDFF878E158
:1029F0001EF82BB0D0F800A08AEA0B6AF346CCF39D
:102A0000074E3BF82EB08AEA0B4ADFF85CB1C7F3F9
:102A1000072E5BF82EB08AEA0B2A06F0FF0BDFF8D0
:102A200048E15EF82BB08AEA0B014FEA166B1EF8FC
:102A30002BB0D0F804A08AEA0B6AF346C5F3074E20
:102A40003BF82EB08AEA0B4ADFF81CB1CCF3072E14
:102A50005BF82EB08AEA0B2A07F0FF0BDFF808E1DB
:102A60005EF82BB08AEA0B024FEA176B1EF82BB008
:102A7000D0F808A08AEA0B6AF346C6F3074E3BF883
:102A80002EB08AEA0B4ADFF8E0B0C5F3072E5BF8F8
:102A90002EB08AEA0B2A0CF0FF0BDFF8CCE05EF8D0
:102AA0002BB08AEA0B034FEA1C6B1EF82BB0D0F850
:102AB0000CA08AEA0B6AF346C7F3074E3BF82EB028
:102AC0008AEA0B4ADFF8A0B0C6F3072E5BF82EB0F7
:102AD0008AEA0B2A05F0FF0BDFF88CE05EF82BB0DA
:102AE0008AEA0B044FEA116A89F800A04FEA114AFA
:102AF00089F801A04FEA112A89F802A089F8031089
:102B00004FEA126A89F804A04FEA124A89F805A030
:102B10004FEA122A89F806A089F807204FEA136ABB
:102B200089F808A04FEA134A89F809A04FEA132A46
:102B300089F80AA089F80B304FEA146A89F80CA0CA
:102B40004FEA144A89F80DA04FEA142A89F80EA01A
:102B500089F80F40BDE8FE8FFC590008FC5D0008B5
:102B6000FC610008FC650008FC5500082DE9F74FE2
:102B700088469146009898F800A04FEA0A6A98F8AB
:102B800001B04AEA0B4A98F802B04AEA0B2A98F8D0
:102B900003B04AEA0B01D0F800A08AEA010198F8D4
:102BA00004A04FEA0A6A98F805B04AEA0B4A98F876
:102BB00006B04AEA0B2A98F807B04AEA0B02D0F8A6
:102BC00004A08AEA020298F808A04FEA0A6A98F874
:102BD00009B04AEA0B4A98F80AB04AEA0B2A98F870
:102BE0000BB04AEA0B03D0F808A08AEA030398F86E
:102BF0000CA04FEA0A6A98F80DB04AEA0B4A98F816
:102C00000EB04AEA0B2A98F80FB04AEA0B04D0F843
:102C10000CA08AEA040410304FEA116BDFF878EF59
:102C20005EF82BB0D0F800A08AEA0B0ADFF86CBF80
:102C3000C2F3074E5BF82EB08AEA0B0ADFF860BFDA
:102C4000C3F3072E5BF82EB08AEA0B0A04F0FF0BE1
:102C5000DFF850EF5EF82BB08AEA0B054FEA126BF3
:102C6000DFF834EF5EF82BB0D0F804A08AEA0B0A44
:102C7000DFF828BFC3F3074E5BF82EB08AEA0B0AD1
:102C8000DFF81CBFC4F3072E5BF82EB08AEA0B0AEC
:102C900001F0FF0BDFF80CEF5EF82BB08AEA0B06B1
:102CA0004FEA136BDFF8F0EE5EF82BB0D0F808A017
:102CB0008AEA0B0ADFF8E4BEC4F3074E5BF82EB0D5
:102CC0008AEA0B0ADFF8D8BEC1F3072E5BF82EB0F4
:102CD0008AEA0B0A02F0FF0BDFF8C8EE5EF82BB0B1
:102CE0008AEA0B074FEA146BDFF8ACEE5EF82BB004
:102CF000D0F80CA08AEA0B0ADFF8A0BEC1F3074E99
:102D00005BF82EB08AEA0B0ADFF894BEC2F3072EF6
:102D10005BF82EB08AEA0B0A03F0FF0BDFF884EEB3
:102D20005EF82BB08AEA0B0C10304FEA156BDFF817
:102D300068EE5EF82BB0D0F800A08AEA0B0ADFF844
:102D40005CBEC6F3074E5BF82EB08AEA0B0ADFF8CA
:102D500050BEC7F3072E5BF82EB08AEA0B0A0CF0C0
:102D6000FF0BDFF840EE5EF82BB08AEA0B014FEA6A
:102D7000166BDFF824EE5EF82BB0D0F804A08AEAD8
:102D80000B0ADFF818BEC7F3074E5BF82EB08AEACD
:102D90000B0ADFF80CBECCF3072E5BF82EB08AEAE4
:102DA0000B0A05F0FF0BDFF8FCED5EF82BB08AEAAA
:102DB0000B024FEA176BDFF8E0ED5EF82BB0D0F8AE
:102DC00008A08AEA0B0ADFF8D4BDCCF3074E5BF803
:102DD0002EB08AEA0B0ADFF8C8BDC5F3072E5BF8F0
:102DE0002EB08AEA0B0A06F0FF0BDFF8B8ED5EF8AA
:102DF0002BB08AEA0B034FEA1C6BDFF89CED5EF800
:102E00002BB0D0F80CA08AEA0B0ADFF890BDC5F30E
:102E1000074E5BF82EB08AEA0B0ADFF884BDC6F3D2
:102E2000072E5BF82EB08AEA0B0A07F0FF0BDFF8DB
:102E300074ED5EF82BB08AEA0B0410304FEA116B88
:102E4000DFF854ED5EF82BB0D0F800A08AEA0B0A48
:102E5000DFF848BDC2F3074E5BF82EB08AEA0B0AD2
:102E6000DFF83CBDC3F3072E5BF82EB08AEA0B0AED
:102E700004F0FF0BDFF82CED5EF82BB08AEA0B05AF
:102E80004FEA126BDFF810ED5EF82BB0D0F804A01B
:102E90008AEA0B0ADFF804BDC3F3074E5BF82EB0D5
:102EA0008AEA0B0ADFF8F8BCC4F3072E5BF82EB0F1
:102EB0008AEA0B0A01F0FF0BDFF8E8EC5EF82BB0B2
:102EC0008AEA0B064FEA136BDFF8CCEC5EF82BB006
:102ED000D0F808A08AEA0B0ADFF8C0BCC4F3074E9A
:102EE0005BF82EB08AEA0B0ADFF8B4BCC1F3072EF8
:102EF0005BF82EB08AEA0B0A02F0FF0BDFF8A4ECB5
:102F00005EF82BB08AEA0B074FEA146BDFF888EC07
:102F10005EF82BB0D0F80CA08AEA0B0ADFF87CBC74
:102F2000C1F3074E5BF82EB08AEA0B0ADFF870BCDB
:102F3000C2F3072E5BF82EB08AEA0B0A03F0FF0BF0
:102F4000DFF860EC5EF82BB08AEA0B0C10304FEA29
:102F5000156BDFF844EC5EF82BB0D0F800A08AEADD
:102F60000B0ADFF838BCC6F3074E5BF82EB08AEACE
:102F70000B0ADFF82CBCC7F3072E5BF82EB08AEAE9
:102F80000B0A0CF0FF0BDFF81CEC5EF82BB08AEAA2
:102F90000B014FEA166BDFF800EC5EF82BB0D0F8AF
:102FA00004A08AEA0B0ADFF8F4BBC7F3074E5BF80C
:102FB0002EB08AEA0B0ADFF8E8BBCCF3072E5BF8E9
:102FC0002EB08AEA0B0A05F0FF0BDFF8D8EB5EF8AB
:102FD0002BB08AEA0B024FEA176BDFF8BCEB5EF806
:102FE0002BB0D0F808A08AEA0B0ADFF8B0BBCCF30C
:102FF000074E5BF82EB08AEA0B0ADFF8A4BBC5F3D4
:10300000072E5BF82EB08AEA0B0A06F0FF0BDFF8FA
:1030100094EB5EF82BB08AEA0B034FEA1C6BDFF8E7
:1030200078EB5EF82BB0D0F80CA08AEA0B0ADFF838
:103030006CBBC5F3074E5BF82EB08AEA0B0ADFF8CB
:1030400060BBC6F3072E5BF82EB08AEA0B0A07F0C6
:10305000FF0BDFF850EB5EF82BB08AEA0B04103060
:103060004FEA116BDFF830EB5EF82BB0D0F800A020
:103070008AEA0B0ADFF824BBC2F3074E5BF82EB0D6
:103080008AEA0B0ADFF818BBC3F3072E5BF82EB0F1
:103090008AEA0B0A04F0FF0BDFF808EB5EF82BB0AE
:1030A0008AEA0B054FEA126BDFF8ECEA5EF82BB008
:1030B000D0F804A08AEA0B0ADFF8E0BAC3F3074E9F
:1030C0005BF82EB08AEA0B0ADFF8D4BAC4F3072EF5
:1030D0005BF82EB08AEA0B0A01F0FF0BDFF8C4EAB6
:1030E0005EF82BB08AEA0B064FEA136BDFF8A8EA0A
:1030F0005EF82BB0D0F808A08AEA0B0ADFF89CBA79
:10310000C4F3074E5BF82EB08AEA0B0ADFF890BAD8
:10311000C1F3072E5BF82EB08AEA0B0A02F0FF0B10
:10312000DFF880EA5EF82BB08AEA0B074FEA146BEF
:10313000DFF864EA5EF82BB0D0F80CA08AEA0B0A3C
:10314000DFF858BAC1F3074E5BF82EB08AEA0B0AD3
:10315000DFF84CBAC2F3072E5BF82EB08AEA0B0AEE
:1031600003F0FF0BDFF83CEA5EF82BB08AEA0B0CA9
:1031700010304FEA156BDFF820EA5EF82BB0D0F87C
:1031800000A08AEA0B0ADFF814BAC6F3074E5BF810
:103190002EB08AEA0B0ADFF808BAC7F3072E5BF8ED
:1031A0002EB08AEA0B0A0CF0FF0BDFF8F8E95EF8A4
:1031B0002BB08AEA0B014FEA166BDFF8DCE95EF808
:1031C0002BB0D0F804A08AEA0B0ADFF8D0B9C7F315
:1031D000074E5BF82EB08AEA0B0ADFF8C4B9CCF3CD
:1031E000072E5BF82EB08AEA0B0A05F0FF0BDFF81A
:1031F000B4E95EF82BB08AEA0B024FEA176BDFF8EE
:1032000098E95EF82BB0D0F808A08AEA0B0ADFF83C
:103210008CB9CCF3074E5BF82EB08AEA0B0ADFF8C4
:1032200080B9C5F3072E5BF82EB08AEA0B0A06F0C8
:10323000FF0BDFF870E95EF82BB08AEA0B034FEA68
:103240001C6BDFF854E95EF82BB0D0F80CA08AEACA
:103250000B0ADFF848B9C5F3074E5BF82EB08AEACF
:103260000B0ADFF83CB9C6F3072E5BF82EB08AEAEA
:103270000B0A07F0FF0BDFF82CE95EF82BB08AEAA7
:103280000B0410304FEA116BDFF80CE95EF82BB03D
:10329000D0F800A08AEA0B0ADFF800B9C2F3074EA3
:1032A0005BF82EB08AEA0B0ADFF8F4B8C3F3072EF6
:1032B0005BF82EB08AEA0B0A04F0FF0BDFF8E4E8B3
:1032C0005EF82BB08AEA0B054FEA126BDFF8C8E80C
:1032D0005EF82BB0D0F804A08AEA0B0ADFF8BCB87D
:1032E000C3F3074E5BF82EB08AEA0B0ADFF8B0B8DA
:1032F000C4F3072E5BF82EB08AEA0B0A01F0FF0B2D
:10330000DFF8A0E85EF82BB08AEA0B064FEA136BF1
:10331000DFF884E85EF82BB0D0F808A08AEA0B0A40
:10332000DFF878B8C4F3074E5BF82EB08AEA0B0AD0
:10333000DFF86CB8C1F3072E5BF82EB08AEA0B0AEF
:1033400002F0FF0BDFF85CE85EF82BB08AEA0B07AF
:103350004FEA146BDFF840E85EF82BB0D0F80CA011
:103360008AEA0B0ADFF834B8C1F3074E5BF82EB0D7
:103370008AEA0B0ADFF828B8C2F3072E5BF82EB0F2
:103380008AEA0B0A03F0FF0BDFF818E85EF82BB0AF
:103390008AEA0B0C10304FEA156BDFF8FCE75EF899
:1033A0002BB0D0F800A08AEA0B0ADFF8F0B7C6F31A
:1033B000074E5BF82EB08AEA0B0ADFF8E4B7C7F3D2
:1033C000072E5BF82EB08AEA0B0A0CF0FF0BDFF831
:1033D000D4E75EF82BB08AEA0B014FEA166BDFF8F0
:1033E000B8E75EF82BB0D0F804A08AEA0B0ADFF841
:1033F000ACB7C7F3074E5BF82EB08AEA0B0ADFF8CA
:10340000A0B7CCF3072E5BF82EB08AEA0B0A05F0C2
:10341000FF0BDFF890E75EF82BB08AEA0B024FEA69
:10342000176BDFF874E75EF82BB0D0F808A08AEAD3
:103430000B0ADFF868B7CCF3074E5BF82EB08AEAC8
:103440000B0ADFF85CB7C5F3072E5BF82EB08AEAEB
:103450000B0A06F0FF0BDFF84CE75EF82BB08AEAA8
:103460000B034FEA1C6BDFF830E75EF82BB0D0F8A7
:103470000CA08AEA0B0ADFF824B7C5F3074E5BF805
:103480002EB08AEA0B0ADFF818B7C6F3072E5BF8EE
:103490002EB08AEA0B0A07F0FF0BDFF808E75EF8A8
:1034A0002BB08AEA0B0410304FEA116BDFF8E8E624
:1034B0005EF82BB0D0F800A08AEA0B0ADFF8DCB681
:1034C000C2F3074E5BF82EB08AEA0B0ADFF8D0B6DB
:1034D000C3F3072E5BF82EB08AEA0B0A04F0FF0B49
:1034E000DFF8C0E65EF82BB08AEA0B054FEA126BF4
:1034F000DFF8A4E65EF82BB0D0F804A08AEA0B0A45
:10350000DFF898B6C3F3074E5BF82EB08AEA0B0AD1
:10351000DFF88CB6C4F3072E5BF82EB08AEA0B0AEC
:1035200001F0FF0BDFF87CE65EF82BB08AEA0B06B1
:103530004FEA136BDFF860E65EF82BB0D0F808A016
:103540008AEA0B0ADFF854B6C4F3074E5BF82EB0D4
:103550008AEA0B0ADFF848B6C1F3072E5BF82EB0F3
:103560008AEA0B0A02F0FF0BDFF838E65EF82BB0B0
:103570008AEA0B074FEA146BDFF81CE65EF82BB003
:10358000D0F80CA08AEA0B0ADFF810B6C1F3074E98
:103590005BF82EB08AEA0B0ADFF804B6C2F3072EF6
:1035A0005BF82EB08AEA0B0A03F0FF0BDFF8F4E5B4
:1035B0005EF82BB08AEA0B0CDDF800A0DAF800A266
:1035C000BAF10A0F7DDD10304FEA156BDFF8C8E560
:1035D0005EF82BB0D0F800A08AEA0B0ADFF8BCB581
:1035E000C6F3074E5BF82EB08AEA0B0ADFF8B0B5D7
:1035F000C7F3072E5BF82EB08AEA0B0A0CF0FF0B1C
:10360000DFF8A0E55EF82BB08AEA0B014FEA166BF3
:10361000DFF884E55EF82BB0D0F804A08AEA0B0A44
:10362000DFF878B5C7F3074E5BF82EB08AEA0B0ACD
:10363000DFF86CB5CCF3072E5BF82EB08AEA0B0AE4
:1036400005F0FF0BDFF85CE55EF82BB08AEA0B02B1
:103650004FEA176BDFF840E55EF82BB0D0F808A012
:103660008AEA0B0ADFF834B5CCF3074E5BF82EB0CC
:103670008AEA0B0ADFF828B5C5F3072E5BF82EB0EF
:103680008AEA0B0A06F0FF0BDFF818E55EF82BB0AC
:103690008AEA0B034FEA1C6BDFF8FCE45EF82BB000
:1036A000D0F80CA08AEA0B0ADFF8F0B4C5F3074E95
:1036B0005BF82EB08AEA0B0ADFF8E4B4C6F3072EF3
:1036C00000E094E05BF82EB08AEA0B0A07F0FF0BEB
:1036D000DFF8D0E45EF82BB08AEA0B0410304FEA32
:1036E000116BDFF8B4E45EF82BB0D0F800A08AEAE2
:1036F0000B0ADFF8A8B4C2F3074E5BF82EB08AEAD3
:103700000B0ADFF89CB4C3F3072E5BF82EB08AEAED
:103710000B0A04F0FF0BDFF88CE45EF82BB08AEAAA
:103720000B054FEA126BDFF870E45EF82BB0D0F8AF
:1037300004A08AEA0B0ADFF864B4C3F3074E5BF80F
:103740002EB08AEA0B0ADFF858B4C4F3072E5BF8F0
:103750002EB08AEA0B0A01F0FF0BDFF848E45EF8AE
:103760002BB08AEA0B064FEA136BDFF82CE45EF805
:103770002BB0D0F808A08AEA0B0ADFF820B4C4F313
:10378000074E5BF82EB08AEA0B0ADFF814B4C1F3D7
:10379000072E5BF82EB08AEA0B0A02F0FF0BDFF867
:1037A00004E45EF82BB08AEA0B074FEA146BDFF8EB
:1037B000E8E35EF82BB0D0F80CA08AEA0B0ADFF839
:1037C000DCB3C1F3074E5BF82EB08AEA0B0ADFF8D0
:1037D000D0B3C2F3072E5BF82EB08AEA0B0A03F0CF
:1037E000FF0BDFF8C0E35EF82BB08AEA0B0CDDF8C4
:1037F00000A0DAF800A2BAF10C0F7DDD10304FEA1C
:10380000156BDFF894E35EF82BB0D0F800A08AEADD
:103810000B0ADFF888B3C6F3074E5BF82EB08AEACE
:103820000B0ADFF87CB3C7F3072E5BF82EB08AEAE9
:103830000B0A0CF0FF0BDFF86CE35EF82BB08AEAA2
:103840000B014FEA166BDFF850E35EF82BB0D0F8AF
:1038500004A08AEA0B0ADFF844B3C7F3074E5BF80B
:103860002EB08AEA0B0ADFF838B3CCF3072E5BF8E8
:103870002EB08AEA0B0A05F0FF0BDFF828E35EF8AA
:103880002BB08AEA0B024FEA176BDFF80CE35EF805
:103890002BB0D0F808A08AEA0B0ADFF800B3CCF30B
:1038A000074E5BF82EB08AEA0B0ADFF8F4B2C5F3D4
:1038B000072E5BF82EB08AEA0B0A06F0FF0BDFF842
:1038C000E4E25EF82BB08AEA0B034FEA1C6BDFF8E8
:1038D000C8E25EF82BB0D0F80CA08AEA0B0ADFF839
:1038E000BCB2C5F3074E5BF82EB08AEA0B0ADFF8CC
:1038F000B0B2C6F3072E00E094E05BF82EB08AEA7F
:103900000B0A07F0FF0BDFF89CE25EF82BB08AEAA7
:103910000B0410304FEA116BDFF87CE25EF82BB03D
:10392000D0F800A08AEA0B0ADFF870B2C2F3074EA3
:103930005BF82EB08AEA0B0ADFF864B2C3F3072EF5
:103940005BF82EB08AEA0B0A04F0FF0BDFF854E2B2
:103950005EF82BB08AEA0B054FEA126BDFF838E20B
:103960005EF82BB0D0F804A08AEA0B0ADFF82CB27C
:10397000C3F3074E5BF82EB08AEA0B0ADFF820B2D9
:10398000C4F3072E5BF82EB08AEA0B0A01F0FF0B96
:10399000DFF810E25EF82BB08AEA0B064FEA136BF1
:1039A000DFF8F4E15EF82BB0D0F808A08AEA0B0A41
:1039B000DFF8E8B1C4F3074E5BF82EB08AEA0B0AD1
:1039C000DFF8DCB1C1F3072E5BF82EB08AEA0B0AF0
:1039D00002F0FF0BDFF8CCE15EF82BB08AEA0B07B0
:1039E0004FEA146BDFF8B0E15EF82BB0D0F80CA012
:1039F0008AEA0B0ADFF8A4B1C1F3074E5BF82EB0D8
:103A00008AEA0B0ADFF898B1C2F3072E5BF82EB0F2
:103A10008AEA0B0A03F0FF0BDFF888E15EF82BB0AF
:103A20008AEA0B0C10304FEA156BDFF87CE11EF8C8
:103A30002BB0D0F800A08AEA0B6AF346C6F3074E13
:103A40003BF82EB08AEA0B4ADFF85CB1C7F3072EC9
:103A50005BF82EB08AEA0B2A0CF0FF0BDFF848E186
:103A60005EF82BB08AEA0B014FEA166B1EF82BB0FA
:103A7000D0F804A08AEA0B6AF346C7F3074E3BF876
:103A80002EB08AEA0B4ADFF820B1CCF3072E5BF8A0
:103A90002EB08AEA0B2A05F0FF0BDFF80CE15EF886
:103AA0002BB08AEA0B024FEA176B1EF82BB0D0F846
:103AB00008A08AEA0B6AF346CCF3074E3BF82EB017
:103AC0008AEA0B4ADFF8E0B0C5F3072E5BF82EB0A8
:103AD0008AEA0B2A06F0FF0BDFF8CCE05EF82BB089
:103AE0008AEA0B034FEA1C6B1EF82BB0D0F80CA02F
:103AF0008AEA0B6AF346C5F3074E3BF82EB08AEA12
:103B00000B4ADFF8A4B0C6F3072E5BF82EB08AEAA2
:103B10000B2A07F0FF0BDFF890E05EF82BB08AEA83
:103B20000B044FEA116A89F800A04FEA114A89F89C
:103B300001A04FEA112A89F802A089F803104FEA80
:103B4000126A89F804A04FEA124A89F805A04FEAE0
:103B5000122A89F806A089F807204FEA136A89F823
:103B600008A04FEA134A89F809A04FEA132A89F8F6
:103B70000AA089F80B304FEA146A89F80CA04FEAC2
:103B8000144A89F80DA04FEA142A89F80EA089F882
:103B90000F40BDE8FE8F0000FC450008FC4900080E
:103BA000FC4D0008FC510008FC4100087047000073
:103BB000F0B504460D461646E648006820B1FFF70A
:103BC000F5FF0020E34F3860802E05D0C02E07D0CF
:103BD000B6F5807F0CD107E00A20C4F8000209E0A6
:103BE0000C20C4F8000205E00E20C4F8000201E039
:103BF0000120F0BD00BF2146002216E015F822008A
:103C00000006012707EB8207EF5D40EA0740022725
:103C100007EB8207EF5D40EA0720032707EB8207E7
:103C2000EF5D384341F82200521CB2EB661FE5DB22
:103C3000802E05D0C02E36D0B6F5807F32D16DE013
:103C400000222DE0C44F57F8227008687840CF68F2
:103C5000C7F30747DFF804C31CF8277080EA076042
:103C60008F89C7F307273CF8277080EA07400F7B4E
:103C70005CF8277080EA0720CF683F0E5CF8277059
:103C8000784008610F694868784048614F698868E2
:103C9000784088618F69C8687840C861521C1031CB
:103CA0000A2ACFDB94E0002235E0AB4F57F82270B0
:103CB000086878404F69C7F30747DFF8A0C21CF8CF
:103CC000277080EA07608F8AC7F307273CF82770C0
:103CD00080EA07400F7D5CF8277080EA07204F6973
:103CE0003F0E5CF82770784088618F69486878409B
:103CF000C861CF698868784008620F6AC8687840F0
:103D000048624F6A0869784088628F6A48697840DB
:103D1000C862521C1831082AC7DB59E0002254E05F
:103D20008D4F57F8227008687840CF69C7F307476E
:103D3000DFF828C21CF8277080EA07608F8BC7F372
:103D400007273CF8277080EA07400F7F5CF8277050
:103D500080EA0720CF693F0E5CF827707840086240
:103D60000F6A4868784048624F6A8868784088627D
:103D70008F6AC8687840C862CF6A3F0E1CF8277007
:103D8000086980EA0760CF6AC7F307473CF82770E5
:103D900080EA07408F8DC7F307275CF8277080EA19
:103DA000072091F82C705CF82770784008630F6B3F
:103DB0004869784048634F6B8869784088638F6BA7
:103DC000C8697840C863521C2031072AA8DB00BFAD
:103DD00000BF6348006858B3002224E05F4850F8F1
:103DE0002200604F57F820005F4F47F822005B48E1
:103DF00050F822005D4F57F820005D4F47F8220031
:103E0000564850F822005B4F57F820005A4F47F8A9
:103E10002200524850F82200584F57F82000584FBF
:103E200047F82200521CFF2AD8DD00204C4F386092
:103E300004F5807301C901C301C901C301C901C3EC
:103E400001C901C3012275E020390868000E464F00
:103E500057F820000F68C7F30747DFF814C15CF874
:103E6000277078400F88C7F30727DFF80CC15CF88C
:103E7000277078400F78DFF808C15CF82770784029
:103E800001C3091D0868000E374F57F820000F685E
:103E9000C7F30747DFF8D8C05CF8277078400F8871
:103EA000C7F30727DFF8D0C05CF8277078400F7899
:103EB000DFF8CCC05CF82770784001C3091D0868A2
:103EC000000E294F57F820000F68C7F30747DFF8A7
:103ED000A0C05CF8277078400F88C7F30727DFF889
:103EE00098C05CF8277078400F78DFF894C05CF8D1
:103EF0002770784001C3091D0868000E1A4F57F853
:103F000020000F68C7F30747DFF864C05CF827702C
:103F100078400F88C7F30727DFF85CC05CF827708C
:103F200078400F78DFF858C05CF82770784001C3FC
:103F3000091D521CD4F80002904285DC203901C9C9
:103F400001C301C901C301C901C301C901C30020E3
:103F50004FE6000008000020FC690008FC41000852
:103F60000C000020FC5900081C000020FC5D00082B
:103F70001C040020FC6100081C080020FC650008EF
:103F80001C0C0020002018490870FCF7F7F9FDF719
:103F900092FB4FF400411548FDF74FF800201449FB
:103FA0000880102088701EE01148807811281AD1EE
:103FB00010490F48FDF7BCFB01280FD10E490D48F1
:103FC000FDF71AFC0C48008840B10A490A48FDF781
:103FD000F3F808480188C01CFCF7A2FD0020044942
:103FE000088010208870DFE70000002000080140F2
:103FF000541A0020241600202012002000C1814005
:1040000001C0804101C0804100C1814001C08041A8
:1040100000C1814000C1814001C0804101C0804198
:1040200000C1814000C1814001C0804100C1814088
:1040300001C0804101C0804100C1814001C0804178
:1040400000C1814000C1814001C0804100C1814068
:1040500001C0804101C0804100C1814000C1814058
:1040600001C0804101C0804100C1814001C0804148
:1040700000C1814000C1814001C0804101C0804138
:1040800000C1814000C1814001C0804100C1814028
:1040900001C0804101C0804100C1814000C1814018
:1040A00001C0804101C0804100C1814001C0804108
:1040B00000C1814000C1814001C0804100C18140F8
:1040C00001C0804101C0804100C1814001C08041E8
:1040D00000C1814000C1814001C0804101C08041D8
:1040E00000C1814000C1814001C0804100C18140C8
:1040F00001C0804101C0804100C1814000C0C101B8
:10410000C30302C2C60607C705C5C404CC0C0DCD47
:104110000FCFCE0E0ACACB0BC90908C8D81819D9B7
:104120001BDBDA1A1EDEDF1FDD1D1CDC14D4D515E7
:10413000D71716D6D21213D311D1D010F03031F1D7
:1041400033F3F23236F6F737F53534F43CFCFD3D07
:10415000FF3F3EFEFA3A3BFB39F9F83828E8E929F7
:10416000EB2B2AEAEE2E2FEF2DEDEC2CE42425E5A7
:1041700027E7E62622E2E323E12120E0A06061A117
:1041800063A3A26266A6A767A56564A46CACAD6DC7
:10419000AF6F6EAEAA6A6BAB69A9A86878B8B97937
:1041A000BB7B7ABABE7E7FBF7DBDBC7CB47475B567
:1041B00077B7B67672B2B373B17170B05090915157
:1041C0009353529296565797559594549C5C5D9D87
:1041D0005F9F9E5E5A9A9B5B995958988848498977
:1041E0004B8B8A4A4E8E8F4F8D4D4C8C4484854527
:1041F00087474686824243834181804063000000B6
:104200007C000000770000007B000000F20000004E
:104210006B0000006F000000C500000030000000CF
:1042200001000000670000002B000000FE000000FD
:10423000D7000000AB00000076000000CA000000BC
:1042400082000000C90000007D000000FA000000AC
:104250005900000047000000F0000000AD00000021
:10426000D4000000A2000000AF0000009C0000008D
:10427000A400000072000000C0000000B7000000B1
:10428000FD00000093000000260000003600000042
:104290003F000000F7000000CC00000034000000E8
:1042A000A5000000E5000000F10000007100000022
:1042B000D8000000310000001500000004000000DC
:1042C000C700000023000000C30000001800000029
:1042D00096000000050000009A00000007000000A2
:1042E0001200000080000000E2000000EB0000006F
:1042F00027000000B2000000750000000900000067
:10430000830000002C0000001A0000001B000000C9
:104310006E0000005A000000A000000052000000E3
:104320003B000000D6000000B300000029000000A0
:10433000E30000002F000000840000005300000094
:10434000D100000000000000ED000000200000008F
:10435000FC000000B10000005B0000006A000000EB
:10436000CB000000BE000000390000004A00000041
:104370004C00000058000000CF000000D0000000FA
:10438000EF000000AA000000FB0000004300000056
:104390004D000000330000008500000045000000D3
:1043A000F9000000020000007F0000005000000043
:1043B0003C0000009F000000A80000005100000029
:1043C000A3000000400000008F00000092000000E9
:1043D0009D00000038000000F5000000BC00000057
:1043E000B6000000DA00000021000000100000000C
:1043F000FF000000F3000000D2000000CD0000002C
:104400000C00000013000000EC0000005F00000042
:10441000970000004400000017000000C4000000E6
:10442000A70000007E0000003D00000064000000C6
:104430005D00000019000000730000006000000033
:10444000810000004F000000DC000000220000009E
:104450002A000000900000008800000046000000D4
:10446000EE000000B800000014000000DE000000B4
:104470005E0000000B000000DB000000E000000018
:10448000320000003A0000000A000000490000006D
:1044900006000000240000005C000000C2000000D4
:1044A000D3000000AC00000062000000910000009A
:1044B00095000000E400000079000000E700000023
:1044C000C8000000370000006D0000008D000000F3
:1044D000D50000004E000000A90000006C000000A4
:1044E00056000000F4000000EA0000006500000033
:1044F0007A000000AE00000008000000BA000000D2
:1045000078000000250000002E0000001C000000C4
:10451000A6000000B4000000C6000000E800000093
:10452000DD000000740000001F0000004B000000D0
:10453000BD0000008B0000008A0000007000000039
:104540003E000000B50000006600000048000000CA
:1045500003000000F60000000E00000061000000F3
:104560003500000057000000B90000008600000080
:10457000C10000001D0000009E000000E1000000DE
:10458000F800000098000000110000006900000021
:10459000D90000008E000000940000009B00000085
:1045A0001E00000087000000E9000000CE000000AF
:1045B0005500000028000000DF0000008C00000013
:1045C000A1000000890000000D000000BF000000F5
:1045D000E60000004200000068000000410000000A
:1045E000990000002D0000000F000000B000000046
:1045F00054000000BB00000016000000A56363C665
:10460000847C7CF8997777EE8D7B7BF60DF2F2FF58
:10461000BD6B6BD6B16F6FDE54C5C5915030306045
:1046200003010102A96767CE7D2B2B5619FEFEE719
:1046300062D7D7B5E6ABAB4D9A7676EC45CACA8F52
:104640009D82821F40C9C989877D7DFA15FAFAEFDC
:10465000EB5959B2C947478E0BF0F0FBECADAD41B9
:1046600067D4D4B3FDA2A25FEAAFAF45BF9C9C2341
:10467000F7A4A453967272E45BC0C09BC2B7B7752F
:104680001CFDFDE1AE93933D6A26264C5A36366CEE
:10469000413F3F7E02F7F7F54FCCCC835C34346862
:1046A000F4A5A55134E5E5D108F1F1F9937171E272
:1046B00073D8D8AB533131623F15152A0C04040866
:1046C00052C7C795652323465EC3C39D281818307B
:1046D000A19696370F05050AB59A9A2F0907070E76
:1046E000361212249B80801B3DE2E2DF26EBEBCDED
:1046F0006927274ECDB2B27F9F7575EA1B09091253
:104700009E83831D742C2C582E1A1A342D1B1B3695
:10471000B26E6EDCEE5A5AB4FBA0A05BF65252A405
:104720004D3B3B7661D6D6B7CEB3B37D7B292952BC
:104730003EE3E3DD712F2F5E97848413F55353A678
:1047400068D1D1B9000000002CEDEDC160202040FF
:104750001FFCFCE3C8B1B179ED5B5BB6BE6A6AD4FD
:1047600046CBCB8DD9BEBE674B393972DE4A4A94EF
:10477000D44C4C98E85858B04ACFCF856BD0D0BBBA
:104780002AEFEFC5E5AAAA4F16FBFBEDC54343860A
:10479000D74D4D9A5533336694858511CF45458A5B
:1047A00010F9F9E906020204817F7FFEF05050A063
:1047B000443C3C78BA9F9F25E3A8A84BF35151A2F3
:1047C000FEA3A35DC04040808A8F8F05AD92923FCB
:1047D000BC9D9D214838387004F5F5F1DFBCBC6301
:1047E000C1B6B67775DADAAF6321214230101020F6
:1047F0001AFFFFE50EF3F3FD6DD2D2BF4CCDCD8194
:10480000140C0C18351313262FECECC3E15F5FBEBC
:10481000A2979735CC4444883917172E57C4C493B0
:10482000F2A7A755827E7EFC473D3D7AAC6464C802
:10483000E75D5DBA2B191932957373E6A06060C00D
:1048400098818119D14F4F9E7FDCDCA366222244E0
:104850007E2A2A54AB90903B8388880BCA46468CAC
:1048600029EEEEC7D3B8B86B3C14142879DEDEA766
:10487000E25E5EBC1D0B0B1676DBDBAD3BE0E0DBE6
:10488000563232644E3A3A741E0A0A14DB4949928F
:104890000A06060C6C242448E45C5CB85DC2C29F26
:1048A0006ED3D3BDEFACAC43A66262C4A89191397C
:1048B000A495953137E4E4D38B7979F232E7E7D5E3
:1048C00043C8C88B5937376EB76D6DDA8C8D8D0143
:1048D00064D5D5B1D24E4E9CE0A9A949B46C6CD830
:1048E000FA5656AC07F4F4F325EAEACFAF6565CA89
:1048F0008E7A7AF4E9AEAE4718080810D5BABA6FC6
:10490000887878F06F25254A722E2E5C241C1C387E
:10491000F1A6A657C7B4B47351C6C69723E8E8CB2F
:104920007CDDDDA19C7474E8211F1F3EDD4B4B969E
:10493000DCBDBD61868B8B0D858A8A0F907070E01F
:10494000423E3E7CC4B5B571AA6666CCD848489054
:104950000503030601F6F6F7120E0E1CA36161C2F1
:104960005F35356AF95757AED0B9B9699186861760
:1049700058C1C199271D1D3AB99E9E2738E1E1D93A
:1049800013F8F8EBB398982B33111122BB6969D255
:1049900070D9D9A9898E8E07A7949433B69B9B2D85
:1049A000221E1E3C9287871520E9E9C949CECE8791
:1049B000FF5555AA782828507ADFDFA58F8C8C0305
:1049C000F8A1A15980898909170D0D1ADABFBF65B1
:1049D00031E6E6D7C6424284B86868D0C341418216
:1049E000B0999929772D2D5A110F0F1ECBB0B07B9E
:1049F000FC5454A8D6BBBB6D3A16162C6363C6A5EF
:104A00007C7CF8847777EE997B7BF68DF2F2FF0D54
:104A10006B6BD6BD6F6FDEB1C5C591543030605041
:104A2000010102036767CEA92B2B567DFEFEE71915
:104A3000D7D7B562ABAB4DE67676EC9ACACA8F454E
:104A400082821F9DC9C989407D7DFA87FAFAEF15D8
:104A50005959B2EB47478EC9F0F0FB0BADAD41ECB5
:104A6000D4D4B367A2A25FFDAFAF45EA9C9C23BF3D
:104A7000A4A453F77272E496C0C09B5BB7B775C22B
:104A8000FDFDE11C93933DAE26264C6A36366C5AEA
:104A90003F3F7E41F7F7F502CCCC834F3434685C5E
:104AA000A5A551F4E5E5D134F1F1F9087171E2936E
:104AB000D8D8AB733131625315152A3F0404080C62
:104AC000C7C7955223234665C3C39D5E1818302877
:104AD000969637A105050A0F9A9A2FB507070E0972
:104AE0001212243680801B9BE2E2DF3DEBEBCD26E9
:104AF00027274E69B2B27FCD7575EA9F0909121B4F
:104B000083831D9E2C2C58741A1A342E1B1B362D91
:104B10006E6EDCB25A5AB4EEA0A05BFB5252A4F601
:104B20003B3B764DD6D6B761B3B37DCE2929527BB8
:104B3000E3E3DD3E2F2F5E71848413975353A6F574
:104B4000D1D1B96800000000EDEDC12C20204060FB
:104B5000FCFCE31FB1B179C85B5BB6ED6A6AD4BEF9
:104B6000CBCB8D46BEBE67D93939724B4A4A94DEEB
:104B70004C4C98D45858B0E8CFCF854AD0D0BB6BB6
:104B8000EFEFC52AAAAA4FE5FBFBED16434386C506
:104B90004D4D9AD7333366558585119445458ACF57
:104BA000F9F9E910020204067F7FFE815050A0F05F
:104BB0003C3C78449F9F25BAA8A84BE35151A2F3EF
:104BC000A3A35DFE404080C08F8F058A92923FADC7
:104BD0009D9D21BC38387048F5F5F104BCBC63DFFD
:104BE000B6B677C1DADAAF752121426310102030F2
:104BF000FFFFE51AF3F3FD0ED2D2BF6DCDCD814C90
:104C00000C0C181413132635ECECC32F5F5FBEE1B8
:104C1000979735A2444488CC17172E39C4C49357AC
:104C2000A7A755F27E7EFC823D3D7A476464C8ACFE
:104C30005D5DBAE71919322B7373E6956060C0A009
:104C4000818119984F4F9ED1DCDCA37F22224466DC
:104C50002A2A547E90903BAB88880B8346468CCAA8
:104C6000EEEEC729B8B86BD31414283CDEDEA77962
:104C70005E5EBCE20B0B161DDBDBAD76E0E0DB3BE2
:104C8000323264563A3A744E0A0A141E494992DB8B
:104C900006060C0A2424486C5C5CB8E4C2C29F5D22
:104CA000D3D3BD6EACAC43EF6262C4A6919139A878
:104CB000959531A4E4E4D3377979F28BE7E7D532DF
:104CC000C8C88B4337376E596D6DDAB78D8D018C3F
:104CD000D5D5B1644E4E9CD2A9A949E06C6CD8B42C
:104CE0005656ACFAF4F4F307EAEACF256565CAAF85
:104CF0007A7AF48EAEAE47E908081018BABA6FD5C2
:104D00007878F08825254A6F2E2E5C721C1C38247A
:104D1000A6A657F1B4B473C7C6C69751E8E8CB232B
:104D2000DDDDA17C7474E89C1F1F3E214B4B96DD9A
:104D3000BDBD61DC8B8B0D868A8A0F857070E0901B
:104D40003E3E7C42B5B571C46666CCAA484890D850
:104D500003030605F6F6F7010E0E1C126161C2A3ED
:104D600035356A5F5757AEF9B9B969D0868617915C
:104D7000C1C199581D1D3A279E9E27B9E1E1D93836
:104D8000F8F8EB1398982BB3111122336969D2BB51
:104D9000D9D9A9708E8E0789949433A79B9B2DB681
:104DA0001E1E3C2287871592E9E9C920CECE87498D
:104DB0005555AAFF28285078DFDFA57A8C8C038F01
:104DC000A1A159F8898909800D0D1A17BFBF65DAAD
:104DD000E6E6D731424284C66868D0B8414182C312
:104DE000999929B02D2D5A770F0F1E11B0B07BCB9A
:104DF0005454A8FCBBBB6DD616162C3A63C6A563EB
:104E00007CF8847C77EE99777BF68D7BF2FF0DF250
:104E10006BD6BD6B6FDEB16FC59154C5306050303D
:104E20000102030167CEA9672B567D2BFEE719FE11
:104E3000D7B562D7AB4DE6AB76EC9A76CA8F45CA4A
:104E4000821F9D82C98940C97DFA877DFAEF15FAD4
:104E500059B2EB59478EC947F0FB0BF0AD41ECADB1
:104E6000D4B367D4A25FFDA2AF45EAAF9C23BF9C39
:104E7000A453F7A472E49672C09B5BC0B775C2B727
:104E8000FDE11CFD933DAE93264C6A26366C5A36E6
:104E90003F7E413FF7F502F7CC834FCC34685C345A
:104EA000A551F4A5E5D134E5F1F908F171E293716A
:104EB000D8AB73D831625331152A3F1504080C045E
:104EC000C79552C723466523C39D5EC31830281873
:104ED0009637A196050A0F059A2FB59A070E09076E
:104EE00012243612801B9B80E2DF3DE2EBCD26EBE5
:104EF000274E6927B27FCDB275EA9F7509121B094B
:104F0000831D9E832C58742C1A342E1A1B362D1B8D
:104F10006EDCB26E5AB4EE5AA05BFBA052A4F652FD
:104F20003B764D3BD6B761D6B37DCEB329527B29B4
:104F3000E3DD3EE32F5E712F8413978453A6F55370
:104F4000D1B968D100000000EDC12CED20406020F7
:104F5000FCE31FFCB179C8B15BB6ED5B6AD4BE6AF5
:104F6000CB8D46CBBE67D9BE39724B394A94DE4AE7
:104F70004C98D44C58B0E858CF854ACFD0BB6BD0B2
:104F8000EFC52AEFAA4FE5AAFBED16FB4386C54302
:104F90004D9AD74D3366553385119485458ACF4553
:104FA000F9E910F9020406027FFE817F50A0F0505B
:104FB0003C78443C9F25BA9FA84BE3A851A2F351EB
:104FC000A35DFEA34080C0408F058A8F923FAD92C3
:104FD0009D21BC9D38704838F5F104F5BC63DFBCF9
:104FE000B677C1B6DAAF75DA2142632110203010EE
:104FF000FFE51AFFF3FD0EF3D2BF6DD2CD814CCD8C
:105000000C18140C13263513ECC32FEC5FBEE15FB4
:105010009735A2974488CC44172E3917C49357C4A8
:10502000A755F2A77EFC827E3D7A473D64C8AC64FA
:105030005DBAE75D19322B1973E6957360C0A06005
:10504000811998814F9ED14FDCA37FDC22446622D8
:105050002A547E2A903BAB90880B8388468CCA46A4
:10506000EEC729EEB86BD3B814283C14DEA779DE5E
:105070005EBCE25E0B161D0BDBAD76DBE0DB3BE0DE
:10508000326456323A744E3A0A141E0A4992DB4987
:10509000060C0A0624486C245CB8E45CC29F5DC21E
:1050A000D3BD6ED3AC43EFAC62C4A6629139A89174
:1050B0009531A495E4D337E479F28B79E7D532E7DB
:1050C000C88B43C8376E59376DDAB76D8D018C8D3B
:1050D000D5B164D54E9CD24EA949E0A96CD8B46C28
:1050E00056ACFA56F4F307F4EACF25EA65CAAF6581
:1050F0007AF48E7AAE47E9AE08101808BA6FD5BABE
:1051000078F08878254A6F252E5C722E1C38241C76
:10511000A657F1A6B473C7B4C69751C6E8CB23E827
:10512000DDA17CDD74E89C741F3E211F4B96DD4B96
:10513000BD61DCBD8B0D868B8A0F858A70E0907017
:105140003E7C423EB571C4B566CCAA664890D8484C
:1051500003060503F6F701F60E1C120E61C2A361E9
:10516000356A5F3557AEF957B969D0B98617918658
:10517000C19958C11D3A271D9E27B99EE1D938E132
:10518000F8EB13F8982BB3981122331169D2BB694D
:10519000D9A970D98E07898E9433A7949B2DB69B7D
:1051A0001E3C221E87159287E9C920E9CE8749CE89
:1051B00055AAFF5528507828DFA57ADF8C038F8CFD
:1051C000A159F8A1890980890D1A170DBF65DABFA9
:1051D000E6D731E64284C64268D0B8684182C3410E
:1051E0009929B0992D5A772D0F1E110FB07BCBB096
:1051F00054A8FC54BB6DD6BB162C3A16C6A56363E7
:10520000F8847C7CEE997777F68D7B7BFF0DF2F24C
:10521000D6BD6B6BDEB16F6F9154C5C56050303039
:1052200002030101CEA96767567D2B2BE719FEFE0D
:10523000B562D7D74DE6ABABEC9A76768F45CACA46
:105240001F9D82828940C9C9FA877D7DEF15FAFAD0
:10525000B2EB59598EC94747FB0BF0F041ECADADAD
:10526000B367D4D45FFDA2A245EAAFAF23BF9C9C35
:1052700053F7A4A4E49672729B5BC0C075C2B7B723
:10528000E11CFDFD3DAE93934C6A26266C5A3636E2
:105290007E413F3FF502F7F7834FCCCC685C343456
:1052A00051F4A5A5D134E5E5F908F1F1E293717166
:1052B000AB73D8D8625331312A3F1515080C04045A
:1052C0009552C7C7466523239D5EC3C3302818186F
:1052D00037A196960A0F05052FB59A9A0E0907076A
:1052E000243612121B9B8080DF3DE2E2CD26EBEBE1
:1052F0004E6927277FCDB2B2EA9F7575121B090947
:105300001D9E838358742C2C342E1A1A362D1B1B89
:10531000DCB26E6EB4EE5A5A5BFBA0A0A4F65252F9
:10532000764D3B3BB761D6D67DCEB3B3527B2929B0
:10533000DD3EE3E35E712F2F13978484A6F553536C
:10534000B968D1D100000000C12CEDED40602020F3
:10535000E31FFCFC79C8B1B1B6ED5B5BD4BE6A6AF1
:105360008D46CBCB67D9BEBE724B393994DE4A4AE3
:1053700098D44C4CB0E85858854ACFCFBB6BD0D0AE
:10538000C52AEFEF4FE5AAAAED16FBFB86C54343FE
:105390009AD74D4D66553333119485858ACF45454F
:1053A000E910F9F904060202FE817F7FA0F0505057
:1053B00078443C3C25BA9F9F4BE3A8A8A2F35151E7
:1053C0005DFEA3A380C04040058A8F8F3FAD9292BF
:1053D00021BC9D9D70483838F104F5F563DFBCBCF5
:1053E00077C1B6B6AF75DADA4263212120301010EA
:1053F000E51AFFFFFD0EF3F3BF6DD2D2814CCDCD88
:1054000018140C0C26351313C32FECECBEE15F5FB0
:1054100035A2979788CC44442E3917179357C4C4A4
:1054200055F2A7A7FC827E7E7A473D3DC8AC6464F6
:10543000BAE75D5D322B1919E6957373C0A0606001
:10544000199881819ED14F4FA37FDCDC44662222D4
:10545000547E2A2A3BAB90900B8388888CCA4646A0
:10546000C729EEEE6BD3B8B8283C1414A779DEDE5A
:10547000BCE25E5E161D0B0BAD76DBDBDB3BE0E0DA
:1054800064563232744E3A3A141E0A0A92DB494983
:105490000C0A0606486C2424B8E45C5C9F5DC2C21A
:1054A000BD6ED3D343EFACACC4A6626239A8919170
:1054B00031A49595D337E4E4F28B7979D532E7E7D7
:1054C0008B43C8C86E593737DAB76D6D018C8D8D37
:1054D000B164D5D59CD24E4E49E0A9A9D8B46C6C24
:1054E000ACFA5656F307F4F4CF25EAEACAAF65657D
:1054F000F48E7A7A47E9AEAE101808086FD5BABABA
:10550000F08878784A6F25255C722E2E38241C1C72
:1055100057F1A6A673C7B4B49751C6C6CB23E8E823
:10552000A17CDDDDE89C74743E211F1F96DD4B4B92
:1055300061DCBDBD0D868B8B0F858A8AE090707013
:105540007C423E3E71C4B5B5CCAA666690D8484848
:1055500006050303F701F6F61C120E0EC2A36161E5
:105560006A5F3535AEF9575769D0B9B91791868654
:105570009958C1C13A271D1D27B99E9ED938E1E12E
:10558000EB13F8F82BB3989822331111D2BB696949
:10559000A970D9D907898E8E33A794942DB69B9B79
:1055A0003C221E1E15928787C920E9E98749CECE85
:1055B000AAFF555550782828A57ADFDF038F8C8CF9
:1055C00059F8A1A1098089891A170D0D65DABFBFA5
:1055D000D731E6E684C64242D0B8686882C341410A
:1055E00029B099995A772D2D1E110F0F7BCBB0B092
:1055F000A8FC54546DD6BBBB2C3A161652000000C2
:10560000090000006A000000D50000003000000022
:1056100036000000A500000038000000BF000000B8
:1056200040000000A30000009E0000008100000078
:10563000F3000000D7000000FB0000007C00000029
:10564000E300000039000000820000009B00000021
:105650002F000000FF000000870000003400000061
:105660008E0000004300000044000000C400000061
:10567000DE000000E9000000CB0000005400000044
:105680007B0000009400000032000000A600000033
:10569000C2000000230000003D000000EE000000FA
:1056A0004C000000950000000B00000042000000CC
:1056B000FA000000C30000004E00000008000000D7
:1056C0002E000000A100000066000000280000007D
:1056D000D900000024000000B200000076000000A5
:1056E0005B000000A2000000490000006D00000007
:1056F0008B000000D10000002500000072000000B7
:10570000F8000000F60000006400000086000000C1
:10571000680000009800000016000000D40000009F
:10572000A40000005C000000CC0000005D00000050
:1057300065000000B6000000920000006C00000050
:10574000700000004800000050000000FD00000054
:10575000ED000000B9000000DA0000005E0000006B
:10576000150000004600000057000000A7000000E0
:105770008D0000009D0000008400000090000000EB
:10578000D8000000AB000000000000008C0000000A
:10579000BC000000D30000000A000000F700000079
:1057A000E40000005800000005000000B800000000
:1057B000B30000004500000006000000D00000001B
:1057C0002C0000001E0000008F000000CA00000036
:1057D0003F0000000F00000002000000C1000000B8
:1057E000AF000000BD000000030000000100000049
:1057F000130000008A0000006B0000003A00000067
:105800009100000011000000410000004F00000066
:1058100067000000DC000000EA00000097000000C4
:10582000F2000000CF000000CE000000F0000000F9
:10583000B4000000E60000007300000096000000C5
:10584000AC0000007400000022000000E70000002F
:10585000AD0000003500000085000000E2000000FF
:10586000F900000037000000E80000001C00000004
:1058700075000000DF0000006E000000470000001F
:10588000F10000001A000000710000001D0000007F
:1058900029000000C5000000890000006F00000022
:1058A000B7000000620000000E000000AA00000027
:1058B00018000000BE0000001B000000FC000000FB
:1058C000560000003E0000004B000000C600000033
:1058D000D200000079000000200000009A000000C3
:1058E000DB000000C0000000FE00000078000000A7
:1058F000CD0000005A000000F40000001F0000006E
:10590000DD000000A8000000330000008800000057
:1059100007000000C700000031000000B1000000D7
:1059200012000000100000005900000027000000D5
:1059300080000000EC0000005F000000600000003C
:10594000510000007F000000A900000019000000C5
:10595000B50000004A0000000D0000002D0000000E
:10596000E50000007A0000009F00000093000000A6
:10597000C90000009C000000EF000000A000000033
:10598000E00000003B0000004D000000AE00000001
:105990002A000000F5000000B0000000C800000070
:1059A000EB000000BB0000003C0000008300000092
:1059B0005300000099000000610000001700000083
:1059C0002B000000040000007E000000BA00000070
:1059D00077000000D600000026000000E100000073
:1059E0006900000014000000630000005500000082
:1059F000210000000C0000007D00000050A7F451C1
:105A00005365417EC3A4171A965E273ACB6BAB3B16
:105A1000F1459D1FAB58FAAC9303E34B55FA302088
:105A2000F66D76AD9176CC88254C02F5FCD7E54F26
:105A3000D7CB2AC5804435268FA362B5495AB1DE3B
:105A4000671BBA25980EEA45E1C0FE5D02752FC3BB
:105A500012F04C81A397468DC6F9D36BE75F8F0395
:105A6000959C9215EB7A6DBFDA5952952D83BED471
:105A7000D32174582969E04944C8C98E6A89C2751E
:105A800078798EF46B3E5899DD71B927B64FE1BE37
:105A900017AD88F066AC20C9B43ACE7D184ADF63F2
:105AA00082311AE560335197457F5362E07764B1E4
:105AB00084AE6BBB1CA081FE942B08F9586848701B
:105AC00019FD458F876CDE94B7F87B5223D373ABF7
:105AD000E2024B72578F1FE32AAB55660728EBB2E1
